:100000003BC05FC05EC05DC0A3C45BC05AC059C0E6
:1000100058C057C056C092C254C053C052C051C0FD
:1000200050C04FC04EC04DC04CC04BC04AC049C06C
:1000300048C047C046C045C044C0DEC52BC137C11B
:1000400033C142C14BC14AC149C15CC163C150C146
:10005000F5C3FDC307C411C420C428C432C43CC4C2
:1000600073C8C5C87CC893C8A4C8ADC8C2C8F6C800
:1000700001C911C919C96A0911241FBECFEFD2E005
:10008000DEBFCDBF11E0A0E0B1E0E0EBF4E102C0E3
:1000900005900D92A436B107D9F721E0A4E6B1E0AE
:1000A00001C01D92AA3CB207E1F710E0C8E7D0E01A
:1000B00003C02297FE019AD9C637D107D1F70FD8CE
:1000C000F5C99ECFEF92FF920F931F93CF93DF93CB
:1000D000EC01E22E298368835C834B8380E039D076
:1000E0008A8300E010E0F12C0F5F1F4F0E151F05F3
:1000F00054F4EB81FC81E00FF11F319760818A811C
:1001000028D08A83F1CFDF91CF911F910F91FF907B
:10011000EF900895CF93DF93FC01C381D4812181B7
:10012000822F90E0DE01A80FB91F11975C914281E8
:10013000541709F00000233040F00397298130E084
:100140008217930711F481E0541380E0DF91CF917F
:100150000895682788E027E0962F990F67FF03C06E
:10016000692F622701C0692F8150B1F7862F08954A
:10017000682F89E07ED480E08ED417D29BD710926E
:100180006401089580916401813031F018F082306B
:1001900029F0089580E00AC081E008C0C5D124EFAD
:1001A00031E040E050E0AAD8822F817028C4CF937C
:1001B000DF93FC01208130E0A9014E5F5F4F848115
:1001C00090E001974817590770F4A281B381A20FFC
:1001D000B31FEB01888199818D939C9380818E5F01
:1001E000808381E001C080E0DF91CF910895CF93BB
:1001F000DF93FC01208130E0A9014F5F5F4F8481D4
:1002000090E001974817590760F4A281B381A20FCB
:10021000B31FEB0188818C9380818F5F808381E0A5
:1002200001C080E0DF91CF910895BF92CF92DF921D
:10023000EF92FF920F931F93CF93DF93CDB7DEB76B
:1002400028970FB6F894DEBF0FBECDBFC82E7B0136
:10025000B22EFB01D080242FAB01682FCE01019676
:1002600031DFCE01019656DF882309F460C0109279
:1002700068018981893009F057C0EC81FD810081D6
:1002800010E00A30110508F052C0025E1F4F0F93B4
:100290001F9308958A81843008F049C080E0FBD321
:1002A0001092640107D743C0FCD3811140C08A81FA
:1002B0008530E9F5EC81FD810281138176D18017CB
:1002C000910708F0BFC033C08A81863081F5028172
:1002D00013816BD10817190751F5AAC08A8185309F
:1002E00031F50281138161D10817190701F5AAC000
:1002F0008A818630E1F40281138157D108171907EA
:10030000B1F4A4C065E671E087E691E0E6D6882303
:1003100071F098C08A81883051F40381148145D1ED
:100320000817190721F49DC0CE010196F5D6CA829F
:100330001E821982FC82EB82BD82F9E0CF1251C08D
:1003400080916801882309F470C084E0D81629F1EF
:100350008D1550F08FEF8D0D823008F066C025D1DD
:1003600098278927982734C0E6E0DE1681F1DE164B
:10037000E8F0F7E0DF1259C067E671E0CE010196C0
:1003800036DF13D198878F83BE01695F7F4FCE011F
:1003900001960DDF65E671E020C083D38F83BE0137
:1003A000695F7F4FCE01019622DF22C010E0812FCE
:1003B0002CD1082F8F83BE01695F7F4FCE0101963C
:1003C00016DF0023A9F01F5F103289F711C01AD180
:1003D00098878F83BE01695F7F4FCE010196E7DE6C
:1003E00007C0BE016F5F7F4F8D2DE1D58823E9F0F7
:1003F0006C2D80E0AEDE00E010E0298130E00217D5
:1004000013074CF4EB81FC81E00FF11F6081A1DE4A
:100410000F5F1F4FF2CF8F83BE01695F7F4FCE0109
:100420000196E5DE898190E02FC080E090E02CC04D
:100430008A81853020F0EC81FD81848101C080E0DB
:100440002AD375CF81E08093680171CF8A8185308E
:1004500020F0EC81FD81848101C080E08093640103
:1004600066CF8A81873028F0EC81FD8165817681B5
:1004700004C060E070E0833020F0EC81FD81828177
:1004800001C080E029D653CF28960FB6F894DEBF7E
:100490000FBECDBFDF91CF911F910F91FF90EF90D5
:1004A000DF90CF90BF90089589B7816089BF83B7EF
:1004B000836083BF78940895CF92DF92EF92FF928A
:1004C0002FB7F89482B7C82ED12CE12CF12C08B6A6
:1004D00000FE06C080E8C816D104E104F104B0F0C3
:1004E0004091690150916A0160916B0170916C01BA
:1004F0002FBF962F852F742F66276C0D7D1D8E1DA7
:100500009F1DFF90EF90DF90CF9008958FEFD81A46
:10051000E80AF80AE5CFD0DF23E0660F771F881FCF
:10052000991F2A95D1F70895F6DF28EE33E040E0D1
:1005300050E0E4D6CA01B901089508951F920F92C0
:100540000FB60F9211242F933F934F935F936F93A6
:100550007F938F939F93AF93BF93EF93FF9380917C
:10056000690190916A01A0916B01B0916C010196B3
:10057000A11DB11D8093690190936A01A0936B0145
:10058000B0936C0191D2D9DFFF91EF91BF91AF9100
:100590009F918F917F916F915F914F913F912F919B
:1005A0000F900FBE0F901F9018950F931F9380917F
:1005B0000001909101010196F1F48CED91E050D78A
:1005C00090930101809300018091000190910101BD
:1005D000019689F493D18C01222733276027712754
:1005E000709301016093000160910001709101011D
:1005F0008CED91E03AD780910001909101011F911B
:100600000F9108958EED91E02BC7803238F490E081
:1006100080529E4F1DD78F3F09F0089580E00895C6
:10062000FC018081813019F08230D9F00895229543
:10063000207F862F8370282B4295440F440F407CE7
:10064000422B4FBD8EB570E0759567957595679592
:1006500043E0660F771F4A95E1F7877E862B8EBDB4
:1006600008952295207F862F8370282B4295440F72
:10067000440F407C422B4093CA008091C90070E037
:10068000759567957595679523E0660F771F2A9591
:10069000E1F7877E862B8093C9000895FC01808155
:1006A000813019F0823031F008958EB5887F862B25
:1006B0008EBD08958091C900887F862B8093C900E4
:1006C0000895FC0131812091660081E090E0032EC5
:1006D00001C0880F0A94EAF7662321F0282B2093A3
:1006E0006600089580958223809366000895FC013A
:1006F0008081813019F0823021F0089575BD64BD8C
:1007000008957093C1006093C0000895CF93DF9364
:10071000EC0180E090E02A813B8140E050E012D67D
:10072000B901CA012FEF3FEF40E050E0E7D58981E2
:1007300081709881913019F0923049F013C088236C
:1007400019F03BBD2ABD0EC039BD28BD0BC08823A2
:1007500029F03093C5002093C40004C03093C30037
:100760002093C200DF91CF9108951F93CF93DF9321
:10077000EC019A01AB01220F331F441F551F60E0AB
:1007800072E18AE790E0BAD5CA01B9012230310599
:1007900041055105A0F16130710521E08207910505
:1007A00080F06830710528E08207910570F06034B0
:1007B000710520E48207910560F020E031E014E04B
:1007C0000BC021E030E011E007C028E030E012E08B
:1007D00003C020E430E013E0442737FD4095542F58
:1007E0008DD5215031093B832A83612FCE0156DFFD
:1007F0006A817B81CE01DF91CF911F9178CFDF910C
:10080000CF911F910895CF93DF93EC0168834983C3
:100810001B821A8222E042E068E002DF42E350E0FD
:1008200060E070E0CE01A1DF498150E04830510521
:1008300008F061C0FA01E85DFF4F099480916700FC
:100840008C7F8093670080916700988122C080919F
:100850006700837F80936700909167008881880F8D
:10086000880F17C0809167008F7C809367009091FC
:10087000670088818295807F0CC0809167008F73AC
:10088000809367009091670088818295880F880F18
:10089000807C892B809367002EC0809168008C7FBC
:1008A0008093680080916800988122C080916800E0
:1008B000837F80936800909168008881880F880FFB
:1008C00017C0809168008F7C8093680090916800C9
:1008D00088818295807F0CC0809168008F7380939F
:1008E00068009091680088818295880F880F807CCD
:1008F000892B80936800DF91CF91089510926E014B
:1009000010926F01109270011092710188E0809333
:100910006D018EB581608EBDF89414BE81B5806482
:1009200081BD789480916D011816E4F3F89414BE9B
:1009300081B58F7B81BD78948EB58E7F8EBD6091A1
:100940006E0170916F018091700190917101089515
:100950001F920F920FB60F9211242F934F935F9314
:100960006F937F938F939F93AF93BF9380916D010C
:10097000815080936D0140916E0150916F016091A3
:1009800070017091710180916E0190916F01A09141
:100990007001B09171018B2F9927AA27BB27762F61
:1009A000652F542F4427842B952BA62BB72B809390
:1009B0006E0190936F01A0937001B09371018091CB
:1009C0006E0190916F01A0917001B09171012CB5F1
:1009D000822780936E0190936F01A0937001B09372
:1009E0007101BF91AF919F918F917F916F915F91B5
:1009F0004F912F910F900FBE0F901F9018959AB3A3
:100A000021E030E0A9010090020102C0440F551F0F
:100A10000A94E2F7942B9ABB90910201882349F043
:100A20008BB3092E01C0220F0A94EAF7822B8BBBED
:100A300008958BB3092E01C0220F0A94EAF720957E
:100A400028232BBB0895882321F08091A4008B7F5D
:100A500003C08091A40084608093A4009091A400BE
:100A6000662311F082E001C083E0892B8093A4000B
:100A700008959CE09093A500662329F09091A5002D
:100A800090639093A50098E09093A400880F8160F4
:100A90008093A100089580939801880F8093A2000D
:100AA0000895809198010895CE990AC080917201AD
:100AB000909173010196909373018093720104C029
:100AC00010927301109272018091720190917301E2
:100AD000843F914051F48091A500877F8093A500C9
:100AE0008091A50088608093A5000895CF92DF9241
:100AF000FF920F931F93CF93DF931F92CDB7DEB773
:100B00001091A30011FB002700F916FF37C0812FB9
:100B10008170F82E8091A000C82ED12CD594C79456
:100B20004091770181E0411102C001118F2561E000
:100B30006F25498388DF809174014981823061F497
:100B4000442351F020E268E771E0809175016DDB8C
:100B50008093770110927601F11003C01092740116
:100B60000BC0002321F081E08093740105C082E076
:100B70008093740110927701C092750117FF33C002
:100B8000002301F1E091760180917701E81768F484
:100B900081E08E0F80937601F0E0E858FE4F80816F
:100BA0008093A00060E081E004C01092A00061E0AA
:100BB00080E00F90DF91CF911F910F91FF90DF9018
:100BC000CF9041CF1091A00060E081E03CDFE09148
:100BD0007701E03240F481E08E0F80937701F0E0FE
:100BE000E858FE4F10830F90DF91CF911F910F9126
:100BF000FF90DF90CF9008951F920F920FB60F9243
:100C000011242F933F934F935F936F937F938F9311
:100C10009F93AF93BF93EF93FF9368DFFF91EF91A3
:100C2000BF91AF919F918F917F916F915F914F9104
:100C30003F912F910F900FBE0F901F901895883005
:100C4000B0F490E0FC01EE0FFF1FEC5BFE4F019053
:100C5000F081E02D2081DC01A45EBE4F8C916623E3
:100C600019F0282B2083089580958223808308958E
:100C70000F931F93CF93DF93C0E0D0E0082F10E0D5
:100C8000B8018C2F0C2E02C0759567950A94E2F777
:100C90006170D5DF2196C830D10591F7DF91CF91F2
:100CA0001F910F910895CF92DF92EF92FF928830BB
:100CB000B0F5E82FF0E0EE0FFF1FE756FE4F71830F
:100CC00060838130B9F028F0823019F0833039F533
:100CD00011C06B01E12CF12CB701A6018091040138
:100CE0009091050142DDB701A60180910801909124
:100CF000090110C06B01E12CF12CB701A601809114
:100D000006019091070131DDB701A60180910A012A
:100D100090910B01FF90EF90DF90CF9026CDFF9048
:100D2000EF90DF90CF9008958830B0F490E0FC0110
:100D3000EE0FFF1FEC5CFE4F0190F081E02D208153
:100D4000DC01A45EBE4F8C91662319F0282B208312
:100D500008958095822380830895CF93DF9300D0F8
:100D6000CDB7DEB789836A838981883008F043C0B4
:100D70008A81882389F09981E981F0E0EE0FFF1FD5
:100D8000EC5AFE4FA081B1818C91E92FF0E0E45E36
:100D9000FE4F9081892B15C02981E981F0E0EE0F8B
:100DA000FF1FEC5AFE4FA081B1818C9190E0E22FA1
:100DB000F0E0E45EFE4F208130E020953095822304
:100DC00093238C93E981F0E0EE0FFF1FEC5FFE4F61
:100DD00080819181892B51F0E981F0E0EE0FFF1FB6
:100DE000EC5FFE4F60E0808191816BDC898161E086
:100DF0009BDF81E001C080E00F900F90DF91CF91E9
:100E000008951F93CF93DF93182F8830D8F4282F9D
:100E100030E0220F331FF901E654FE4F71836083E7
:100E2000E901CC5FDE4F88819981009729F06EDC63
:100E300061E08881998145DC61E0812FDF91CF916C
:100E40001F9172CFDF91CF911F9108950F931F9340
:100E5000CF93DF93C0E0D0E0082F10E0B8018C2FD3
:100E60000C2E02C0759567950A94E2F761705CDFFD
:100E70002196C830D10591F7DF91CF911F910F9145
:100E800008952F923F924F925F926F927F928F922E
:100E90009F92AF92BF92CF92DF92EF92FF920F9309
:100EA0001F93CF93DF9300D000D0CDB7DEB784E09F
:100EB00091E09A838983A4E5B1E0BC83AB839CE194
:100EC000E92E91E0F92E29E9C22E21E0D22E00E090
:100ED00010E0E981FA8181919191FA83E983892B6C
:100EE000A1F54801880C991CC40186549E4F4C0101
:100EF000DC018D919C911197892B39F18D919C91F9
:100F0000019619F108DB2B013C01D401AD90BC9096
:100F1000F6016081718180E090E02CEF3FE040E0DD
:100F200050E010D2F901DA01C301B2019F01AD0115
:100F300009D24A155B0588F5AB81BC81ED91FC9126
:100F40008081D7019C91892B80830F5F1F4FEB819C
:100F5000FC813296FC83EB83FFEFEF1AFF0A22E05D
:100F6000C20ED11C0830110509F0B3CF0F900F90BD
:100F70000F900F90DF91CF911F910F91FF90EF9005
:100F8000DF90CF90BF90AF909F908F907F906F90A9
:100F90005F904F903F902F900895AB81BC81ED9171
:100FA000FC919081D7018C9180958923CDCF0F93AF
:100FB0001F93CF93DF93EB01813001F120F082305A
:100FC00009F44EC071C01091030160E0183098F52B
:100FD000812FAADE812F90E0FC01EE0FFF1FEC5D58
:100FE000FE4F0190F081E02D2081FC01E45EFE4F78
:100FF0008081282361E0F9F460E01DC004E211E083
:10100000ACE1B1E060E080E090E021E030E0F801A8
:10101000419151918F01FA0140815D91452339F051
:10102000A901082E01C0440F0A94EAF7642B019627
:101030008830910561F7288130E0A9014F5F5F4F4B
:101040008C8190E001974817590740F4EA81FB81B1
:10105000E20FF31F608388818F5F888381E025C062
:101060008091B901882349F01092B9012E99FECFE1
:1010700086B127B190E0922B02C080E090E04881D9
:1010800050E0BA016E5F7F4F2C8130E02150310972
:101090006217730718F7EA81FB81E40FF51F91834C
:1010A000808388818E5FD9CF80E0DF91CF911F91BF
:1010B0000F910895CF9380E0C9DE80E0D9DDC0E0D4
:1010C00062E370E08C2FEFDD60E08C2F46DECF5FB7
:1010D000C830B1F7CF910895089580E00895E4D91C
:1010E00080E046D84FD802DDCCDEFCCF70E0AB010B
:1010F0004D5F5F4FDC0111962C91119730E0241762
:10110000350740F01396ED91FC911497E60FF71F09
:101110008281089580E00895EF92FF920F931F93CC
:10112000CF93DF9300D0CDB7DEB78C01FC01E38015
:10113000F480F701408150E04B30510508F0C0C009
:10114000FA01E05DFF4F0994FC018181843009F0D0
:10115000B7C060E0C801CADF8093030148C0FC014A
:101160008181853009F0ACC060E0C801BFDF182F75
:1011700060E0DADDE12FF0E0EC5EFE4F808189B9BE
:1011800085B1866C85B981E08093B9019AC0FC0174
:101190008181853009F094C061E0C801A7DFF82E95
:1011A00060E0C801A3DF61E0F11001C060E0BCDDD8
:1011B0001EC0FC018181843009F082C060E0C8015A
:1011C00095DF44DE14C0FC018181853009F078C0D0
:1011D00060E0C8018BDF8A8361E0C80187DF898313
:1011E00099818A8161E0911101C060E0B6DD81E002
:1011F00068C0FC018181843009F062C060E0C801F0
:1012000075DFA4E5B1E00CE111E020E030E090E012
:10121000AC01022E02C0559547950A94E2F740FFB3
:1012200009C04D915C911197FA016081F8017081BC
:10123000672B09C04D915C911197FA017081F801FB
:10124000608160956723FA0160832F5F3F4F12969C
:101250000F5F1F4F28303105D9F6C9CFFC018181BE
:10126000863071F560E0C80141DFF7016381748168
:10127000C8DDBDCFFC018181853011F561E0C80179
:1012800035DFF82E60E0C80131DF61E0F11001C008
:1012900060E0D5DCACCFFC018181843089F460E072
:1012A000C80124DFE5DCA3CFFC018181863041F455
:1012B00060E0C8011BDFF70163817481F4DC97CF24
:1012C00080E00F900F90DF91CF911F910F91FF90D1
:1012D000EF90089547E062E085EB91E094DA41E019
:1012E00061E081EB91E08FDA40E062E08DEA91E02D
:1012F0008ADA42E061E089EA91E085CAA1E21A2E29
:10130000AA1BBB1BFD010DC0AA1FBB1FEE1FFF1FA9
:10131000A217B307E407F50720F0A21BB30BE40BF9
:10132000F50B661F771F881F991F1A9469F7609540
:101330007095809590959B01AC01BD01CF010895FA
:1013400068940013E894A0E0B0E0E8EAF9E01DC07A
:10135000EFEFE7F959016A015E23550FEE08FE2C05
:1013600087019B01AC019E23990F660B762FCB0161
:1013700041D0CDB7DEB7EAE024C02F923F924F9222
:101380005F926F927F928F929F92AF92BF92CF9215
:10139000DF92EF92FF920F931F93CF93DF93CDB71E
:1013A000DEB7CA1BDB0B0FB6F894DEBF0FBECDBF96
:1013B00009942A88398848885F846E847D848C8467
:1013C0009B84AA84B984C884DF80EE80FD800C8170
:1013D0001B81AA81B981CE0FD11D0FB6F894DEBF53
:1013E0000FBECDBFED010895EE0FFF1F0590F491E4
:1013F000E02D0994DF93CF939F92A0E49A2E0024CE
:10140000D001E001F00116950795F794E794D79481
:10141000C794B794A79448F41068A20FB31FC41FD1
:10142000D51FE61FF71F081E191E220F331F441F6A
:10143000551F661F771F881F991F9A9421F79D01DA
:10144000AE01BF01C00111249F90CF91DF9108959B
:10145000E199FECF9FBB8EBBE09A99278DB308958B
:10146000A8E1B0E042E050E005C012D0272F11C043
:10147000DC01CB01FC01E199FECF06C0FFBBEEBB56
:10148000E09A31960DB20D9241505040B8F7089550
:10149000262FE199FECF1CBA9FBB8EBB2DBB0FB68A
:1014A000F894E29AE19A0FBE01960895F894FFCF5E
:1014B000FFFF05FFB501B101AD01A901000000006A
:1014C0000000000008020103000B0A0704040208E0
:1014D0000101028036003900390039003900360038
:1014E0003600390037003A003A003A003A00370037
:1014F00037003A006200630063006300630062002B
:101500006200630038003B003B003B003B003800BA
:0415100038003B0064
:00000001FF
