:10000000A81500202916000025160000251600005E
:1000100000000000000000000000000000000000E0
:100020000000000000000000000000002516000095
:10003000000000000000000025160000251600004A
:1000400025160000251600002516000025160000C4
:1000500025160000251600002516000035090000B1
:100060004509000055090000650900000000000076
:1000700000000000251600002516000025160000CF
:1000800025160000251600002516000000000000BF
:1000900000000000251600002516000025160000AF
:1000A0002516000010B5064C2378002B07D1054B10
:1000B000002B02D0044800E000BF0123237010BDD4
:1000C0006804002000000000281A000008B5084B52
:1000D000002B03D00748084900E000BF0748036829
:1000E000002B03D0064B002B00D0984708BDC0461C
:1000F00000000000281A00006C040020281A0000EC
:10010000000000004278120283781B041A4303782F
:100110001A43C3781B06101C1843704710B5447867
:10012000240203781C43034B9847001B4442604160
:1001300010BDC0461104000038B50D1C141C002071
:10014000022A00D8B9E00B78672B43D0DAB2672ACD
:100150000BD8642B19D0642A02D8002B15D0A7E045
:10016000652B17D0662B25D0A2E06A2B68D0DAB2B7
:100170006A2A04D8682B3DD0692B4FD098E06B2BAE
:100180006FD06E2B00D182E092E000224B4B1A70B0
:10019000002092E00020052C00D08EE0881C484B07
:1001A0009847002800D188E001232B7000236B7052
:1001B000022082E00020052C7FD1CB781B028C78B6
:1001C0001C43404B9847A04274D9287000126870B5
:1001D000022072E00020072A6FD1881C384B984714
:1001E00000286AD06B791B0228791843364B984750
:1001F000002062E00020052C5FD1881C304B98471E
:1002000000285AD03148324B98470023DA00011CAD
:10021000D140E9540133042BF8D14DE000200A2CE1
:100220004BD1881C264B9847002846D0281D294BC7
:100230009847011C2B7A25482A1C274CA0473CE0F4
:100240000020092C39D1881C1D4B9847002834D038
:10025000281D204B9847011C1C48204B9847002024
:100260002BE00020082C28D9881C154B9847002823
:1002700023D0281D174B9847011C2A1C0832231C29
:10028000093BDBB21148164CA047002015E00020C6
:10029000042C12D1481C0A4B984700280DD0E9784D
:1002A0004B1E9941C9B209480E4B9847002004E003
:1002B000002002E0002000E0042038BD0000002003
:1002C0001D010000110400001D0400008404002032
:1002D0005904000005010000AD040000A90400005D
:1002E000C50400005504000010B582B0164C201C57
:1002F0000121164B9847201C154B9847154B9847E2
:100300000122154B1A70BFF35F8F62B60023694656
:100310000B70124A5268D206120F8A70CB700B71A2
:100320004B7068460E4B98470E4B984709200121A9
:100330000D4B98470D4A1378002BFCD102480C4B0B
:100340009847002002B010BD84040020650400001E
:100350008D0500000115000038000020004000411C
:10036000E10B000089030000650A00000000002086
:10037000C105000008B50248024B984708BDC046B9
:10038000840400204904000030B585B019491A4A98
:100390000B1C31CA31C331CA31C331CA31C30B88D6
:1003A000591E89B2154A91421FD9154B1B680093FB
:1003B000144B1B680193144B1B680293134B1B686F
:1003C00003930023002168461A58100C424092B251
:1003D00051400433102BF6D14A1E92B2074B9A4279
:1003E00000D90121034B998401E0024A938405B0AE
:1003F00030BDC0460400002000FF0100FDFF0000EA
:100400000CA0800040A0800044A0800048A0800094
:10041000014B988C7047C0460400002038B5064C4C
:10042000A0842080054D281C054B9847281C211CC2
:100430002422044B984738BD0400002000FF01002F
:10044000990D0000F90C000001235B420380012399
:100450008370704781707047014B98697047C04640
:100460000020004110B582B00C1C01AB01225A7073
:10047000002199701A700F20191C094B984780228F
:100480001202084B9A61002C03D0802212029A615A
:1004900003E080221202034B5A6102B010BDC04635
:1004A000ED0D0000004400417047C04630B5002B00
:1004B00005DD0024655C155501349C42FADB181CEF
:1004C00030BDC046F8B54F464646C0B40D1C171C9B
:1004D00098468378002B07D01A4B99422DD9424673
:1004E0005318194A934228D8AB0601D1174B1D6007
:1004F0003F232A1C9A439146144B1B689A421CD1F5
:10050000FF232B4202D1281C114B98474346002B56
:100510000ADD00240D483F223E5D6119114041185B
:100520000E7101349C42F7DB4544AB0605D14846C9
:10053000064904314022074B98470CBC9046994627
:10054000F8BDC046FF1F0000FFFF0300900400201D
:10055000990D0000F90C000008B50021084B9847E0
:1005600080239B011B685A1C00D1FEE783F3088897
:1005700080229201034B9A60034B1B68984708BD89
:100580006504000000ED00E00420000008B5094B00
:100590001B785BB2002B04DB064B1A7802218A43DE
:1005A0001A703823044AD35C9A0601D5034B984746
:1005B00008BDC0460010004000040040590500007E
:1005C00000B583B0002369460B7001224A700B719D
:1005D0004B718B700623CB706846014B9847FEE742
:1005E0002D15000010B5931C9B00C31859602423DF
:1005F000C15C01249440221C0A43D2B2C25410BDF3
:10060000031C028D0520002A0CD14A68DA620A8890
:100610001A850A88DA840521312299541B68072239
:100620005A7300207047C046031C028D0520002A23
:100630000CD14A68DA620A881A850A88DA840521A8
:10064000312299541B6807225A7300207047C04614
:1006500070B58000984BC45825682523E35C24229C
:10066000A65C1E40AB7B990700D492E0E28C92B26C
:10067000238D9A420ED03022A25C002A0AD1002398
:100680003122A354E3842385B20715D52369201CA6
:10069000984711E0E28C92B293420DD03023E35C94
:1006A000012B09D100233122A354E3842385F307CE
:1006B00002D5E368201C98472A8A43231A4207D0B0
:1006C00010223123E254B10602D5236A201C984738
:1006D000237A002B0AD02568784B984700232B8279
:1006E0008023DB026B60764B984741E02B8A1A0728
:1006F0001FD501223023E254730702D56369201C01
:100700009847E38C9BB2002B0AD125686B4B984726
:1007100000232B828023DB026B60694B984727E024
:100720002568664B984700232B826B60644B984783
:100730001EE000223023E254310702D5A369201CB9
:100740009847E38C9BB2002B0AD125685B4B9847F6
:1007500000232B828023DB026B60594B984707E014
:100760002568564B984700232B826B60544B984763
:1007700023689A7BD10701D501229A7302229A73CA
:1007800024684E4B98470023238263604C4B984764
:1007900091E0AB7BDA072FD50123AB7305232B73D5
:1007A0002523E35C590705D42523E35C082B01D0FE
:1007B00002232B733123E35C1E2B00D17BE031231A
:1007C000E35C102B77D000233122A354E3842385EC
:1007D000B20707D53023E35C002B03D12369201C2B
:1007E000984768E0F30766D53023E35C012B62D1BC
:1007F000E368201C98475EE0AB7B59075BD5238DEF
:10080000002B0AD03022A25C012A50D1E28C92B295
:1008100093424CD22B8A5A0749D500232385E3847F
:100820003023E35C002B16D1244B984700232B8206
:100830008023DB026B60224B98476A6880239B020F
:1008400013436B601E223123E254F30633D5E36970
:10085000201C98472FE0194B984700232B828023B8
:10086000DB026B60164B98476A6880239B02134338
:100870006B6031230022E25404232B731BE03023EE
:10088000E35C002B09D1E36A5A1CE2622A7ED2B2F1
:100890001A70238D013B23850DE0E36A5A1CE26246
:1008A0001B78DBB22B76238D013B238503E0E38CA1
:1008B0009BB2002BE3D170BD98050020710B0000A6
:1008C000B10B00007047C04630B50B4B1B78002BB6
:1008D0000ED10A4C0A4D25600A4B00221A60656051
:1008E0005A60A5609A60E560DA600122024B1A70D6
:1008F0008000024BC15030BDDC040020E004002029
:10090000C50800009805002030B583B0051C01AC77
:10091000201C05490422054B9847281C044B984786
:10092000205603B030BDC046AC18000011170000BF
:10093000BD10000008B5024B1B680020984708BD99
:10094000E004002008B5024B5B680120984708BD11
:10095000E004002008B5024B9B680220984708BDC0
:10096000E004002008B5024BDB680320984708BD6F
:10097000E00400207047C04610B5124B00221A80D8
:10098000114A5A6001680C7E640820215454525C5C
:10099000D2B21B7A934207D020230B4AD35CDBB23E
:1009A000084A527A9A4204D12123074AD35C002B89
:1009B00003D10449054B984703E02022014B1A80DC
:1009C000F7E710BD2C000020F004002029060000ED
:1009D00010B50F492023C85CC0B224314A780332D5
:1009E000D2B20C4CA04700280ADD0023084A111C93
:1009F0002431595C99540133834201D0202BF6D124
:100A0000C317181AC00F2123014AD05410BDC04685
:100A1000F00400203901000038B50F4B20221A8065
:100A20000E490C1C24345C6005682C7E64088C54D0
:100A3000C0468A5CD2B21B7A934209D02023CB5C99
:100A4000DBB2054A527A9A4202D00022024B1A8047
:100A50000149034B984738BD2C000020F0040020CA
:100A600001060000F0B5474680B488B0324B1872DA
:100A70000022002369460A70802189030191012127
:100A800049426C462181628122746374A374E374C9
:100A900023776A46A081FF23E381284B0593284BE7
:100AA0000693284D281C44302749284B98476C6CE6
:100AB000201C274B98471F23184001238340181CF4
:100AC000244B18606A6C138A1BB2002BFBDB236873
:100AD000022188460A1C0B4323601A4F3E1C4436F1
:100AE000301C1D491D4DA8473C1C69342278042345
:100AF0001343237041467B6C5973301C1849012203
:100B0000A8472278022313432370301C154903227F
:100B1000A84722780823134323707B6C42465A73FC
:100B2000301C11490022A847227801231343237067
:100B300008B004BC9046F0BD2C0000200200160056
:100B400002001700F004002000140042110E000003
:100B50000909000000E100E079090000E505000056
:100B6000D1090000190A0000750900007047C0464D
:100B70000C4B1B68002B10D1EFF31083002B09D115
:100B800072B6BFF35F8F0022074B1A700122074B2A
:100B90001A7002E00022054B1A70024B1A680132EB
:100BA0001A6070477005002038000020740500208E
:100BB000084B1A68013A1A601B68002B09D1064BD2
:100BC0001B78002B05D00122044B1A70BFF35F8FF6
:100BD00062B67047700500207405002038000020C0
:100BE00010B5021C1C4BD86904210143D9611B4B71
:100BF000188B2021FF31014319831B7D0520D90764
:100C000028D511780902C0239B0019405378DB01D5
:100C1000FF2003401943D3789B04194393785B006A
:100C20001E200340194310790004C0239B02034097
:100C300019430A4B596098684003400F084908243B
:100C400084400C809868488052780A71188BC005DF
:100C5000C00F000110BDC04600040040004000412C
:100C60007805002030B5204B5A881B8853438B42AF
:100C700006D21823802292011C4D4C19944231D87F
:100C80001B4B5C688022D20222435A601D8B2022BB
:100C9000FF322A431A831A7D0523D50722D545281A
:100CA0001FD88300134AD3589F46114B1A8B102329
:100CB000D50517D4890849000D4BD96103E089088F
:100CC00049000B4BD961A5231B021843084B188020
:100CD000191C01220B7D1342FCD0054B5C600023E4
:100CE00000E01723181C30BD7805002000C07FFFEE
:100CF00000400041B0180000F8B5051C224B1C88CC
:100D00005B8863431820AB423DD3631E2B423AD12C
:100D10001720944237D31D4B1B7D0520DC0732D5AD
:100D20001B481A4B18801C1C0120237D0342FCD059
:100D3000164B1C8B2020FF30204318836808002AA4
:100D40001CD040000023561ECC5CB34203DACF18FF
:100D50007F783F023C43048002339BB202309A42C8
:100D6000F2D8094B1B790020002B0CD13F2A0AD85E
:100D70000420291C0022074B984704E0024B1B79F2
:100D800000208342F4D0F8BD7805002000400041E7
:100D900044A5FFFF650C0000114B1A885988514388
:100DA0001823814219D39200013A104215D10D4BFC
:100DB0001A7D0523D10710D50A4B198B2022FF324B
:100DC0000A431A8380084000D861074A1A80191C18
:100DD00001220B7D1342FCD00023181C7047C04633
:100DE000780500200040004102A5FFFF00B583B058
:100DF00001AB80221A700A785A704A789A708A7801
:100E0000DA70191C014B984703B000BDD1140000E3
:100E1000F0B54F464646C0B483B0051C0C1C161CEA
:100E200029600B681C20990700D57FE02368052006
:100E3000DA077BD4201C404B984698473F4B196AF1
:100E40008946821C0127391C91400A1C49460A43E5
:100E50001A6201A9B37C0B700D30C0B28146384BC9
:100E600098474846374B9847B07C0021364B984707
:100E70002868C04780463549354B984743469A0015
:100E8000344BD55000232422AB542522AB54EB84A1
:100E9000737C2B72102323602C683389EB808023B2
:100EA00069460B7000234B708F70CB707069B56909
:100EB000002803D1201C0021274B98476A46107058
:100EC00002235370000CC0B26946244B9847002D92
:100ED00004D1201C0121204B9847051C6B461D7036
:100EE000022369464B702D0CE8B21C4B9847F27CEC
:100EF0008023002A04D11A4B9B789B07DB0FDB0170
:100F0000226871680A43317F89070A4313432360CB
:100F1000728980235B0013436360B2895200F389B6
:100F20005B041343327C13436361002003B00CBCA9
:100F300090469946F0BDC046BD1000000004004038
:100F4000F91300006D130000650F0000510600004A
:100F5000C908000098050020B50F0000D11400005A
:100F60000020004110B582B0041C0F4B1B78002BF1
:100F700001D000290DD001A90C700C200B4B984713
:100F80000C200B4B9847084B5C7001221A70002014
:100F900007E0054B5A781D20141B621E94416442E1
:100FA000204002B010BDC04680050020F9130000AB
:100FB0006D1300002E4B98421CD003D82D4B984245
:100FC00007D04AE02C4B984225D02C4B984233D086
:100FD00043E0012943D0002904D0022906D0032987
:100FE00006D001E0264841E000203FE025483DE0F2
:100FF00025483BE0012934D0002904D0022906D03D
:10100000032906D001E0032030E000202EE01F4835
:101010002CE01F482AE0012925D0002904D002290C
:1010200006D0032906D001E01A481FE000201DE089
:1010300019481BE0194819E0012916D0002904D0ED
:10104000022906D0032906D001E015480EE0002051
:101050000CE014480AE0144808E0002006E01348B9
:1010600004E0134802E0134800E013487047C0460C
:10107000000C004200080042001000420014004230
:1010800003000400030006000300070003001E0025
:1010900003001F000300080003000A0003000B0008
:1010A00003001000030012000300130003000500FA
:1010B00003000100030009000300110070B584B0B3
:1010C0000E4A694670CA70C112680A60031C009A11
:1010D00082420FD0019C844208D0029D854207D0F5
:1010E0000020039E9E4207D1032004E0012002E07D
:1010F000022000E00020C0B204B070BDC81900009A
:1011000070B50C4B1C6A017885784078012210403C
:1011100080014026B44304432A40D00180229443F6
:10112000221C0243032001400902034802400A43F3
:101130001A6270BD00080040FFFCFFFF07283BD883
:1011400080001E4B1B589F46002036E01C4B196A3E
:1011500002220A431A6200202FE0194B99690222E9
:101160000A439A61002028E0154B198A02220A439B
:101170001A82002021E0124B998A02220A439A82A5
:1011800000201AE00F4B196802220A431A601A68FD
:101190000D4B1A400A4B9A84191C1022CB681A4234
:1011A000FCD0084A9168064BD9625168996212686E
:1011B00092B29A84002000E017207047D8190000EE
:1011C00000080040840500207FFF000030B585B096
:1011D000C222D2001A4B9A601A4B5A681E218A43C7
:1011E0005A6001236A4613700024174DE0B2694625
:1011F000A84701341C2CF9D103A800244470012510
:1012000085700470114B98470620114B9847114B7D
:101210009847114B1C725C729C72DC7201956B4694
:101220005C7006236A46137014725472002069467B
:101230000A4B984700200A4B984705B030BDC0467E
:101240000008004000400041F913000001110000B7
:101250003D110000651200000004004089120000EA
:1012600029130000064B996908220A439A6101225A
:10127000044B1A70191C0B781342FCD17047C046FE
:1012800000040040000C004070B5061C0D782D02D3
:1012900005434B78002B02D08023DB021D434B7AA1
:1012A000002B02D080231B031D434C68012C17D94F
:1012B000631E1C420FD1022C06D9022300220132E8
:1012C0005B009C42FBD800E000221602064380230C
:1012D0005B031D4304E02602064380239B021D435B
:1012E0000B7A002B02D080239B031D430B494B78C4
:1012F0005BB2002BFBDB0A4B9847084B9E601A1C25
:1013000053785BB2002BFBDB044B596880225202FE
:101310000A4015435D60034B984770BD000C0040C8
:10132000710B0000B10B000010B5041C0B4A537880
:101330005BB2002BFBDB0A4B98470A4B1C70074A39
:1013400053785BB2002BFBDB044B596880225202BE
:101350000A435A60044B984710BDC046000C004039
:10136000710B0000040C0040B10B000010B5041C10
:10137000064B9847064B1C70064B59888022D201B9
:101380000A435A80044B984710BDC046710B0000B9
:10139000020C0040000C0040B10B000010B5041C12
:1013A0000F4B98470F4B1C700F4B58880005000FD0
:1013B00059880E4A0A405A8059880D4A0A405A8074
:1013C000191C8022D2014B881342FCD1064B01022A
:1013D0005888064A02400A435A80064B984710BD77
:1013E000710B0000020C0040000C0040FFF0FFFFFA
:1013F000FFBFFFFFB10B000010B50C7824020443BF
:10140000024B9847A4B2024B5C8010BD9D130000B4
:10141000000C004010B5041C064B9847064B1C708E
:10142000064B5988802212020A435A80044B98477F
:1014300010BDC046710B0000020C0040000C0040C3
:10144000B10B000030B5D378002B1ED11378802B60
:1014500004D01B0680246402234300E00023547858
:101460000225AC430AD19478002C03D18024A40235
:10147000234302E0C024E402234341605478013C4A
:10148000012C04D8114C234001E0416000230D04DD
:101490002D0CA024E4052C431C4384620D0CD024A5
:1014A00024062C431C438462D478002C0CD15C03AA
:1014B00005D59378012B01D1816100E0416153781A
:1014C000013B012B00D8816030BDC046FFFFFBFF10
:1014D00008B5031C0A1CC1090020002903D15809C2
:1014E000C001044940181F210B4001219940024BC3
:1014F000984708BD00440041451400007047C046AD
:1015000008B5054B9847054B9847054B9847054B41
:101510009847054B984708BDCD1100006D0B0000A2
:10152000FD140000FD140000FD14000010B582B091
:10153000041C374B996910220A439A61354B1A787B
:10154000D2091020002A60D1E2781720002A5CD04E
:101550002179914259D86179914256D81A7802215D
:101560008A431A701A1CD3795BB2002BFBDB6278BA
:101570000020002A49D001A9A3780B700120264B36
:1015800098470120254B98472378002B02D0012053
:10159000234B9847E378013B2279002A09D01D4A62
:1015A00010780421014311702279013A120113438A
:1015B00004E0184A1178042081431170154AD1794A
:1015C00049B20029FBDBDBB2124A53706379002B6E
:1015D00007D0D17949B20029FBDB013BDBB20D4AD0
:1015E00093702378002B05D00A4B197880220A4388
:1015F0001A7004E0074B197802220A431A70054B4F
:10160000DA7952B2002AFBDB002002B010BDC046DE
:101610000004004000100040F91300006D130000AA
:1016200015140000FEE7C04610B51C4B1C4A9A4238
:1016300003D01C4B194A9A4204D31B4B1B4A9A42B3
:1016400010D31BE01A4B17480330C01A8008013032
:10165000800000231149124AD458CC5004338342ED
:10166000FAD1EAE7114B1A1D0F490331891A89088B
:1016700089005218002102C39342FCD10D4BFF2177
:101680000D4A8A439A600D4B596880220A435A607A
:101690000B4B98470B4B9847FEE7C04600000020D5
:1016A000281A000068040020A80500206804002013
:1016B0000400002000ED00E00000000000400041B8
:1016C000C9160000E902000070B50D4E0D4D002452
:1016D000AD1BAD1005D0A300F35801349847A542C7
:1016E000F9D100F08DF9084E084D0024AD1BAD1066
:1016F00005D0A300F35801349847A542F9D170BD35
:101700000C1A00000C1A00000C1A0000181A000035
:10171000F0B50F2A35D9031C0B439C0735D1161C95
:10172000103E36093501451910350C1C031C27687D
:101730001F6067685F60A7689F60E7681034DF60BC
:101740001033AB42F3D1731C1B01C518C9180F230A
:101750001340032B1BD91C1FA4080134A400002331
:10176000CE58EE500433A342FAD1ED18C918032322
:101770001A4005D00023CC5CEC5401339342FAD1DB
:10178000F0BD051C002AF5D1FAE7051CF2E71A1C8A
:10179000F8E7C04608B5034B002B02D0024800F022
:1017A00005F808BD00000000BD17000008B5011CC9
:1017B00000220020002300F019F808BD38B5094BBD
:1017C000094DED1AAD1009D0013DAC00E41800E060
:1017D000013D23689847043C002DF9D100F01CF925
:1017E00038BDC046241A0000281A0000F0B54F4644
:1017F0004646C0B498462B4BA4251B686D005C5927
:1018000083B0061C0F1C91460193002C44D06568E0
:101810001F2D1ADD244B002B02D1012040421CE079
:10182000C820400000E000BF041EF6D0002545603F
:10183000A42301985B00C05801992060CC50C423B8
:101840005B00E550C6235B00E550002E0AD16B1CFF
:101850000235AD00636000202F5103B00CBC9046F0
:101860009946F0BDAB00E318882248469850C42042
:101870004000221810680121A9400843106084220A
:10188000520040469850022EE1D1C6225200A318C1
:10189000186801431960DAE71C1C4D34FF345C51B1
:1018A000B5E7C046FC190000000000000708090A5F
:1018B000E20C0000E20C0000BE0C0000E20C000094
:1018C000BE0C0000AA0C0000AA0C0000E20C0000F4
:1018D000E20C0000E20C0000E20C0000E20C000050
:1018E000E20C0000E20C0000E20C0000E20C000040
:1018F000E20C0000E20C0000E20C0000E20C000030
:10190000E20C0000E20C0000E20C0000E20C00001F
:10191000E20C0000E20C0000E20C0000E20C00000F
:10192000E20C0000E20C0000E20C0000E20C0000FF
:10193000E20C0000E20C0000E20C0000E20C0000EF
:10194000E20C0000E20C0000E20C0000E20C0000DF
:10195000E20C0000E20C0000E20C0000E20C0000CF
:10196000E20C0000E20C0000E20C0000E20C0000BF
:10197000E20C0000E20C0000E20C0000E20C0000AF
:10198000E20C0000E20C0000E20C0000E20C00009F
:10199000E20C0000E20C0000E20C0000E20C00008F
:1019A000E20C0000E20C0000E20C0000E20C00007F
:1019B000BE0C0000BE0C0000C60C0000C60C0000EF
:1019C000C60C0000C60C000000080042000C0042DB
:1019D000001000420014004268110000B81100001D
:1019E000B8110000481100005A11000076110000E3
:1019F0004C11000084110000430000004000002052
:101A0000F8B5C046F8BC08BC9E4670479517000064
:101A1000CD00000075030000F8B5C046F8BC08BC56
:081A20009E467047A50000007E
:101A280001000000FFFFFFFF0000000000000000B1
:101A3800000000000000000000000000000000009E
:101A48000000000000000000FFFF00002000000070
:101A5800F004002009FF0000010000000000000061
:101A6800000000002C03002094030020FC03002049
:101A7800000000000000000000000000000000005E
:101A8800000000000000000000000000000000004E
:101A980000000000F819000000000000000000002D
:101AA800000000000000000000000000000000002E
:101AB800000000000000000000000000000000001E
:101AC800000000000000000000000000000000000E
:101AD80000000000000000000000000000000000FE
:101AE80000000000000000000000000000000000EE
:101AF80000000000000000000000000000000000DE
:101B080000000000000000000100000000000000CC
:101B18000E33CDAB34126DE6ECDE05000B00000091
:101B280000000000000000000000000000000000AD
:101B3800000000000000000000000000000000009D
:101B4800000000000000000000000000000000008D
:101B5800000000000000000000000000000000007D
:020000021000EC
:10FF0000FFFFFFFF000000000000000000000000F5
:10FF100000000000000000000000000000000000E1
:04FF200000000000DD
:00000001FF
