:1000000098230020590800005508000055080000FA
:1000100000000000000000000000000000000000E0
:100020000000000000000000000000005508000073
:100030000000000000000000550800005508000006
:10004000550800005508000055080000550800003C
:10005000550800005508000055080000550800002C
:10006000550800005508000055080000550800001C
:10007000550800005508000055080000550800000C
:1000800055080000550800005508000055080000FC
:1000900055080000550800005508000055080000EC
:1000A00055080000550800005508000055080000DC
:1000B00010B5064C2378002B07D1054B002B02D03E
:1000C000044800E000BF0123237010BD5000002051
:1000D000000000006018000008B5084B002B03D09A
:1000E0000748084900E000BF07480368002B03D019
:1000F000064B002B00D0984708BDC046000000000A
:10010000601800005400002060180000000000008B
:1001100030B52D4B1E215A680F208A4302210A4315
:100120002A495A600A6A2A4B13400B62294B5A68C3
:1001300082435A605A78274852B2002AFADB446850
:1001400083225202224342605A7852B2002AFBDBD9
:10015000214A1068800E3F2800D11F201F4A204CE2
:1001600012689205920DA24200D11E4A80021043ED
:100170008A8C8024A2438A84CC68144AE506FBD585
:100180001949D16291214900906291845A883F2196
:100190008A435A8059888022D2010A435A805A6879
:1001A0000F218A4301210A435A605A78094952B201
:1001B000002AFADB48680D4A02434A605A7852B274
:1001C000002AFBDB30BDC046004000410008004073
:1001D000FFFCFFFF000C00402460800028608000CE
:1001E000FF030000FF01000080BB000000070100CA
:1001F00010B52B4B802252029A609A61294A181C32
:10020000117801221140284B002200290AD11C68D4
:10021000264A944201D1196016E01A60244A013A34
:10022000002AFCD11A60234B1A68531C0CD080237F
:100230005B02436180239B011B6883F308881E4B8C
:100240008021890199601047FFF762FF1B4B012253
:100250001A70BFF35F8F62B600F030FB01F07EF8DA
:10026000041CA368201C9847154B002801D00122CC
:100270001A701A78002A05D0002000F023F800F048
:10028000B7FAFCE71B78002BEBD100F093FB0028BA
:10029000E7D0012000F016F800F0AAFAFCE7C0460B
:1002A0000044004138040040FC7F00203581730782
:1002B00048E801000420000000ED00E04C000020B0
:1002C0006C000020012805D1054B064A1A60064B38
:1002D000187004E0002802D1044A014B1A607047EC
:1002E0007C010020A415000075000020F01500001E
:1002F00030B51A4B85B01B78002B29D0042901D1C9
:10030000026804E0022901D1028800E00278490075
:1003100004A843180B3B5C1AA3420BD00F201040DB
:10032000092802D83025284300E037301870120918
:10033000013BF1E701A830230370782343700A22C0
:1003400043189A700D22DA70054B04311B6801E0E6
:10035000034B1B68DB68984705B030BD7400002074
:100360007C01002072B6BFF35F8F064B00221A702B
:10037000EFF30883044A1360036883F30888436833
:10038000184770474C0000208001002007B5072364
:100390000F220240111C00093031092A00DD07310B
:1003A0006A469954013BF3D2034B68461B68082107
:1003B000DB68984707BDC0467C010020F0B5CD4CF6
:1003C000CD4D236840211B6987B0281C9847CB4935
:1003D000CB4ACC4B0860002015601860C94EC74955
:1003E000326809688A4200D3F5E1C54F386802785F
:1003F000FF2A00D1E6E1232A00D0BDE1C24D2B78CF
:10040000002B04D02368C148DB6802219847C04B09
:100410001B78532B3DD1B9493268086890421ED9E8
:10042000B74B01321B683260191CB54B01311960A2
:10043000B84B821A1B689A4200D91A1CB64BB74DAA
:1004400018682A6001F08CF8AE4E2B683668386860
:100450009A19AC4E3260C2183A60B14A1370A94979
:10046000A74F0968A74E0B1C3F68013B33603B1C3C
:10047000A34E013B3360A74AA94B11681B788B42FE
:1004800005D22268A448C91A006892699047C046FC
:1004900020E1522B06D1A04A236810689D4A5B696F
:1004A000116816E14F2B05D19B4B9A4A1B681268C5
:1004B0001A700FE1482B05D1974B964A1B681268BA
:1004C0001A8007E1572B05D1934B924A1B6812689B
:1004D0001A60FFE06F2B03D18F4B0121186807E0F2
:1004E000682B08D18C4B8B481B6802211B8803604A
:1004F000FFF7FEFEEEE0772B06D1874B85481B68A1
:1005000004211B680360F3E7472B17D1814B186860
:10051000FFF728FF834B1B6883F30888824B012277
:100520001A70BFF35F8F62B6804B1B78002B00D12F
:10053000D0E0236806201B689847CBE0542B02D1FB
:1005400001232B7056E04E2B0AD12B78002B04D1BF
:1005500023686E48DB680221984700232B70B9E0BE
:10056000562B4CD123680121DB68714898472368DA
:100570000321DB686F4898476F4D2368281CDB68B0
:100580000121984723680D21DB686C489847236850
:10059000281CDB6801219847594E5A4D68480023B2
:1005A00030602B60321C291C13685F1C17601F7899
:1005B000002F03D00B6801330B60F5E7236829682F
:1005C000DB68984723685C48DB68012198475D48F1
:1005D0002F6030604A4A1368591C11601B78002B49
:1005E00004D0484B1A6801321A60F3E7236829687F
:1005F000DB68984723684548DB68022169E0454A83
:10060000582B15D11368504A1068504A1568AD0030
:10061000834209D24E4A5908D1614E491180117D59
:10062000CF07FCD55B19F3E723684B48DB684FE045
:10063000592B32D11268384B4849002A02D11B6825
:100640000B6026E0086842491D684B688026B3436A
:1006500092084B60002A1CD0414B0B800B7DDE07BB
:10066000FCD50023394E3668B608B34202D33D4E5E
:100670000E8006E09342FAD09E0087590133AF51B5
:10068000F0E70E7DF707FCD59E00AD198019D21A50
:10069000E0E723683448DB681AE05A2B1AD11E4B76
:1006A00017681D680026EF19BD4206D02878311C56
:1006B00000F0A2F90135061CF6E723680121DB688A
:1006C0002A489847301CFFF761FE23682848DB68FA
:1006D000032198470E4B7A221A700E4B00221A60A3
:1006E000094B1B7893426DD023680121DB682148B8
:1006F000984767E07C010020380100201C010020A1
:10070000200100203001002074000020E4150000CA
:1007100024010020840100207801002088010020AD
:1007200018010020800100204C00002075000020EE
:10073000C0150000E9150000C21500000C160000ED
:10074000C4150000D015000028010020340100204D
:100750000040004102A5FFFFD915000070000020F5
:1007600044A5FFFF04A5FFFFDD150000E115000013
:10077000E3150000E7150000111C3039C8B2174B13
:10078000092804D818680201114319601AE0111CE5
:100790004139052903D81E68373A310106E0111C9A
:1007A0006139052904D81F68573A39010A4308E01E
:1007B0002C2A03D10A4A1868106001E009490A701E
:1007C00000221A60084B1A6801321A60074B1A6837
:1007D00001321A6002E607B0F0BDC0468401002075
:1007E0007801002024010020300100202001002099
:1007F00030B5114A89B06B4631CA31C331CA31C3F1
:1008000011CA11C30D4A694693685B035B0F9B00D5
:100810005B580B490B6092680A4992B253430A60D5
:10082000094900220B60094B1A60094B7A221A70A1
:10083000FFF7C4FDFCE7C0468415000000400041FE
:10084000340100202C010020280100207801002024
:1008500024010020FEE700001148124910B588422B
:1008600001D0002301E0104B07E0104CCA18A2424F
:10087000F9D2C45804331460F7E70D4A191D043B3C
:10088000934203D200221A600B1CF6E7094A0A4B76
:10089000FF218A439A6000F03DFEFFF7A9FCFEE7C6
:1008A00060180000000000205400002050000020CC
:1008B000980300200000000000ED00E038B5234A56
:1008C0000124131C4A331978153B214359751878B4
:1008D0000F218843187018780225284318704B326E
:1008E00010781B4D204310701A78281C1140197085
:1008F0001A7820210A431A7000F0A8FD154B811CBC
:100900001A6A8C4014431C62134B3F2258881231E0
:10091000114090430843588059888022D2010A43ED
:100920005A80C422281C0D49920300F0A7FD0C4BED
:1009300000241C700B4B1C700B4B1C700B4B1C7061
:100940000B4B1C700B4B1C7038BDC0460044004163
:100950000008004200040040000C004004C50000F4
:100960008C010020130200208D0100209001002046
:10097000140200201102002008B5C1B2024800F0A4
:10098000ABFD012008BDC04600080042024B187EA6
:100990004007C00F7047C0460008004208B5FFF787
:1009A000F5FF0028FBD0024800F09CFD08BDC046C2
:1009B0000008004208B5FFF7E9FF0023984205D080
:1009C000FFF7ECFF031C233B5A425341181C08BDA0
:1009D00070B5041C0D1C4618B44204D02078FFF7F3
:1009E000CBFF0134F8E7281C70BD10B5041CFFF7DD
:1009F000D5FF2070012010BD0B0A5840034B40006A
:100A0000C05A0902484080B27047C0461A1600001A
:100A1000F7B50024051C0F1C261CBC4220D0FFF794
:100A2000BDFF114BC0B21B780190002B1AD1311CB5
:100A3000FFF7E2FF0D4B061C1A88002A04D10C4A6E
:100A400011782A1C002907D001996A1C2970802F6F
:100A500002D11988013919800134A4B2151CDCE7D0
:100A6000301C00E00120FEBD110200208E0100209C
:100A700012020020F0B585B003AC051C0191201CCA
:100A80000221FFF7C5FF281C8021FFF7C1FF134D8E
:100A9000061C2B78002B18D1FFF780FF0702FFF709
:100AA0007DFFBFB22B783F18BFB2012B0DD0B742EC
:100AB00008D12378019A934204D1DB436278DBB2F8
:100AC0009A4204D01820FFF757FF002003E00620C9
:100AD000FFF752FF012005B0F0BDC0461102002013
:100AE000F0B53E4E85B0002203900C1C32703C4B9A
:100AF000914201D1012201E03A490C801A707F2312
:100B00001C4201D080349C43FFF748FF3378C0B2C9
:100B1000002B07D000253570FFF740FF3378C0B2B7
:100B2000AB4236D1432803D0712853D01528EBD1DE
:100B3000012300930120FFF71FFF0098FFF71CFF20
:100B400000998025C843C0B2FFF716FF039B00271A
:100B50000293244A1388002B1DD12149019309785F
:100B6000002918D10198FFF707FF391C0198FFF7FA
:100B700043FF013D071C002DEBD1000AC0B2FFF777
:100B8000FBFEF8B2FFF7F8FEFFF708FF3378002B03
:100B90000AD035701FE00299013B09781380029B4F
:100BA000019101330293DDE7C0B2062807D1009B13
:100BB00003990133DBB280310093803C0391002C18
:100BC000B8D10420FFF7D8FEFFF7E8FE044B01255B
:100BD0001C7000E00025281C05B0F0BD11020020AB
:100BE000120200208E010020F8B5234D0023071CBF
:100BF0002B70994201D1012301E0204A1180204A43
:100C0000642413704320FFF7B7FE1E4EFFF7BEFEAD
:100C1000002803D1002E03D0013EF7E7002E03D1B8
:100C2000013C002CEED125E00126FFF7B7FE2C7821
:100C3000002C01D000240FE0C0B2012805D0042808
:100C400014D10620FFF798FE10E0381C311CFFF786
:100C500011FF2B78002B01D02C700BE0012803D161
:100C60000136F6B28037E0E70028DED1044A0023DF
:100C700013700124201CF8BD110200208E010020F9
:100C80001202002000350C00F8B51E4E151C3378FA
:100C90000468002B12D11C4B1C4A1A645A6C920B2C
:100CA00092035A64586C1A4A02405A64A2235B00A9
:100CB000E25C40200243E254012333704827FF37AF
:100CC000E25D012313401AD00F4B5A6C9204920C30
:100CD000AA4202D25D6CAD04AD0C081C2A1C0B4963
:100CE00000F03EFCE25D03231A4001210A43E15D6E
:100CF00099430B1C1343E3550023337000E01D1C84
:100D0000281CF8BD8C00002090000020D802002094
:100D1000FF3F00F0F7B5141C0068234A5E011D1C5C
:100D2000019093195869271C4000400F033010337D
:100D3000C74006D00F1C8022596812060A435A6029
:100D400009E02F1C7B1E9F41184BBF01FF18381C68
:100D5000221C00F005FC144AA1049619376172693F
:100D6000890C920B92030A4372617169104A08352B
:100D70000A407261019F6B01FB18D979032211406F
:100D800002200143D8799043021C0A43DA71597951
:100D9000802252420A435A71019F6B01FB18DB7992
:100DA0009A07F9D5201CFEBD9000002018030020F2
:100DB000FF3F00F038B5384B2021DA690F200A4395
:100DC000DA61364B0122197811431970344B1978C6
:100DD000814319701C7806210C431C70314C257816
:100DE000154325701C782040187018786024204323
:100DF00018702D4B3F245888A043014359805888D0
:100E00008221C90101435980284B19780A431A707D
:100E10009A78D107FCD426480268510B1F22114052
:100E2000914200D1052111408C011D8D214929409D
:100E3000214319850468A10C0A401F2A00D11D22F4
:100E40001C8D1F210A408C4322431A85026807210A
:100E5000D20D0A408A4200D103220A40188D1103A4
:100E6000154A02400A431A8519787F220A401A70EF
:100E70001A78042111480A431A7058621A890C2101
:100E80008A431A811A8901218A431A81002180220A
:100E900000F06FFB38BDC0460004004058440041DC
:100EA0003C44004159440041000C004000500041C6
:100EB000246080003FF8FFFFFF8FFFFF90000020BD
:100EC000002303714371064B01608360054B0222CE
:100ED000C360054B03610B7813430B707047C0462A
:100EE000250F0000150D0000890C00000C4BFF3091
:100EF0005A690221920B92035A61027A03231A4023
:100F00000A43017A99430B1C1343037282798023AD
:100F10005B4213438371037A9A07FCD57047C0463E
:100F200090000020F7B50468051CA38B082003403F
:100F3000201CFF30002B29D0A38B08210B43A38357
:100F400011228023A3724270402282714371AD4B03
:100F5000AD4C5E68C021264089050E435E605E6927
:100F6000344021435961A9491960A94919615C6854
:100F7000A84921408024A402214359605968890B63
:100F800089035960002342712B71E1E1017A10223B
:100F9000114200D1DCE1017A9C4E0A4302729E4F5D
:100FA00032789E493A707278984F0A70BA789C4E9F
:100FB0008C463280F978328809020A4332803A79C5
:100FC00098490A800A887979964F09020A433A803B
:100FD0008E4FBA79944F3A8039888C4A0191D179F1
:100FE000019A09020A433A80402162464171117810
:100FF000894A0902127811438C4A9446894A61450C
:1010000000D19AE11CDC80277F00B94200D1F1E0D9
:1010100009DC812900D198E0822900D19AE0802959
:1010200000D08EE191E081235B00994200D111E173
:1010300000DA82E1C0239B00994200D1DAE080E12E
:1010400088200001814200D17BE00CDCA023DB0082
:1010500099426CD0D023DB0099424BD0744B99421B
:1010600000D06EE199E0734B994200D165E135DC27
:1010700090231B01994200D063E13388201C2B711F
:10108000FFF734FFA02303225B00E2545D4B5E4A6E
:10109000586CC02110408905084358644620FF3031
:1010A000402626545948302640301864902040008D
:1010B0002654586B4027104001439220596340004A
:1010C000802121545C481863B02040002754586F99
:1010D00002405A67B2235B00E15439E1574B994211
:1010E00000D11EE1564B994200D02AE14C4F3B887B
:1010F0006B7122E1328880235B009A4208D13B88E1
:101100001222934201D83A8892B2281C4D4910E12C
:10111000328880239B009A4200D012E13B88432210
:10112000934201D83A8892B2281C474901E1201C19
:10113000FFF7DCFE328880235B421343DBB2A372ED
:1011400006E1291D281C0122F4E04049281C0B80DF
:101150000222EFE03D490B80168850231E403C4B95
:101160001E7017880F263E4016801688032E41D821
:101170001B78002B06D0138808335B01E418A37991
:101180009B0605E0138808335B01E418A379DB06AE
:10119000DB0F0B80281C0222CBE011887F239943B0
:1011A0002B4BC9B2197010880F2101401180318872
:1011B000002900D0C5E01188002900D1C1E01188C4
:1011C000032900D9BDE01B78002B08D013883021FB
:1011D00008335B01E3185A798A43202107E013881A
:1011E000302108335B01E3185A798A4310210A43FE
:1011F0005A71A2E0837930229343202213438371F2
:10120000A6E0C04690000020FFFFFF8F980200205C
:1012100018030020FF3F00F0770000208D00002021
:101220001001002014010020120100200103000021
:10123000020300002120000058030020A12100002B
:10124000212200001C180000000000208E00002059
:101250007600002011887F2399433E4BC9B2197054
:1012600010880F21014011803188002969D111882F
:10127000002966D01188032963D81B78002B24D05D
:10128000138808335B01E31899790223880654D543
:10129000118830260831490161180879B0432026A9
:1012A0003043087111880320083149016118C97958
:1012B00049090140194240D011886026083149018E
:1012C0006118C879B043402623E0138808335B01D6
:1012D000E31899790123CE062FD5118830260831DD
:1012E000490161180879B04310263043087111880C
:1012F0000320083149016118C9794909014019429F
:101300001BD011886026083149016118C879B043A3
:1013100020263043C871128808325201A218137176
:101320000BE03B880822934201D83A8892B20A49DE
:10133000281C0023FFF7EEFC0AE0201CFFF7D6FD77
:1013400006E0FF34A3793022934320221343A37194
:101350002879FEBD760000204400002010B5054B22
:10136000054C2360FFF726FD201C2168FFF7A8FD30
:10137000201C10BD005000417800002007B501225C
:10138000019001A90248131CFFF7C4FC01200EBD07
:101390007800002013B56C460734211C0122024856
:1013A000FFF772FC207816BD7800002010B5074CBE
:1013B000201CFFF7B7FD031C0020834205D02268E4
:1013C0004823FF33D05C0123184010BD7800002073
:1013D00010B5031C0C1C221C191C03480123FFF729
:1013E00099FC201C10BDC0467800002070B5084C48
:1013F000061C201C0D1CFFF795FD0023984205D00C
:10140000201C311C2A1CFFF73FFC031C181C70BD5C
:1014100078000020F8B50C4C051C201C0E1CFFF7B2
:1014200081FD0023271C341C98420AD0002C07D0D1
:10143000291C221C381CFFF727FC241A2D18F5E75D
:10144000331C181CF8BDC046780000207FB50A4B3D
:10145000694670CB70C11B686A460B600023990017
:101460005158884204D00133042BF8D1002000E009
:10147000181C04B070BDC0463018000010B5C36918
:101480009C07FCD403680224A3430360C4690123BE
:101490001C42FBD10468234303600368DC07FCD4CF
:1014A000C46901231C42FBD1C469DC401C42F7D152
:1014B000084B1A430260C3695A07FCD4C0239B023D
:1014C00043608181C3699C07FCD4036802221343F3
:1014D000036010BD04000040037EDA07FCD50185DF
:1014E00070470000027E01235107FBD5428B1A4250
:1014F00007D1428BDA401A4203D1428B92081A423A
:1015000002D0034B01221A70008DC0B27047C04652
:101510001601002070B50E4B0E4D0024ED1AAD10D3
:101520001E1CAC4204D0A300F35898470134F8E7DE
:1015300000F086F9084B094D0024ED1AAD101E1C71
:10154000AC4204D0A300F35898470134F8E770BDCB
:101550004C1800004C1800004C18000050180000F7
:1015600010B50023934203D0CC5CC4540133F9E797
:1015700010BD031C8218934202D019700133FAE7A0
:10158000704700000800000010000000200000006C
:101590004000000080000000000100000002000088
:1015A00000040000790900009D0900008D09000079
:1015B000D1090000EB090000E10A0000E90B00007E
:1015C000760020004A756C203233203230313500ED
:1015D00031313A31353A323600580A0D00590A0D88
:1015E000005A00230A0D003E00312E310000000099
:1015F0007D13000095130000AD130000D11300000F
:10160000ED130000D1130000151400005B4172645B
:1016100075696E6F3A58595A5D00000021104220DA
:1016200063308440A550C660E770088129914AA1C3
:101630006BB18CC1ADD1CEE1EFF13112100273323A
:101640005222B5529442F772D662399318837BB313
:101650005AA3BDD39CC3FFF3DEE3622443342004CA
:101660000114E664C774A44485546AA54BB5288563
:101670000995EEE5CFF5ACC58DD55336722611161A
:101680003006D776F6669556B4465BB77AA71997B3
:101690003887DFF7FEE79DD7BCC7C448E5588668A2
:1016A000A7784008611802282338CCC9EDD98EE903
:1016B000AFF9488969990AA92BB9F55AD44AB77A7A
:1016C000966A711A500A333A122AFDDBDCCBBFFB53
:1016D0009EEB799B588B3BBB1AABA66C877CE44C8A
:1016E000C55C222C033C600C411CAEED8FFDECCDA3
:1016F000CDDD2AAD0BBD688D499D977EB66ED55E5A
:10170000F44E133E322E511E700E9FFFBEEFDDDFF2
:10171000FCCF1BBF3AAF599F788F8891A981CAB17E
:10172000EBA10CD12DC14EF16FE18010A100C230B0
:10173000E3200450254046706760B9839893FBA36B
:10174000DAB33DC31CD37FE35EF3B1029012F32200
:10175000D2323542145277625672EAB5CBA5A895BB
:1017600089856EF54FE52CD50DC5E234C324A01450
:1017700081046674476424540544DBA7FAB799874B
:10178000B8975FE77EF71DC73CD7D326F2369106A0
:10179000B01657667676154634564CD96DC90EF993
:1017A0002FE9C899E9898AB9ABA9445865480678F0
:1017B0002768C018E1088238A3287DCB5CDB3FEBAB
:1017C0001EFBF98BD89BBBAB9ABB754A545A376A40
:1017D000167AF10AD01AB32A923A2EFD0FED6CDD7B
:1017E0004DCDAABD8BADE89DC98D267C076C645C90
:1017F000454CA23C832CE01CC10C1FEF3EFF5DCF8B
:101800007CDF9BAFBABFD98FF89F176E367E554EDF
:10181000745E932EB23ED10EF01E00001201100134
:1018200002000040D016670A10010000000100000D
:1018300000080042000C0042001000420014004268
:10184000F8B5C046F8BC08BC9E467047D9000000F9
:10185000F8B5C046F8BC08BC9E467047B100000011
:1018600009024300020100C0000904000001020255
:1018700000000524001001042402000524060001D4
:101880000524010001070583030800FF0904010086
:10189000020A00000007058102400000070502025D
:1018A0004000000000C2010000000800010000002C
:102000000080002005320000ED310000ED310000BD
:1020100000000000000000000000000000000000C0
:10202000000000000000000000000000ED31000092
:102030000000000000000000ED3100005D320000F3
:10204000ED310000ED310000ED310000ED31000018
:10205000ED310000ED310000ED310000F131000004
:10206000ED310000C5310000354A0000ED310000BF
:10207000ED310000ED310000ED310000ED310000E8
:10208000ED310000ED310000ED310000ED310000D8
:1020900000000000ED310000ED310000ED310000E6
:1020A000ED310000ED310000ED310000ED310000B8
:1020B00010B5064C2378002B07D1054B002B02D01E
:1020C000044800E000BF0123237010BD1001002070
:1020D000000000002C5E000008B5084B002B03D068
:1020E0000748084900E000BF07480368002B03D0F9
:1020F000064B002B00D0984708BDC04600000000EA
:102100002C5E0000140100200C01002000000000E3
:1021100038B5051C002000F097FE0024AC4208DA18
:10212000044B984205D0013080B200F08DFE01349E
:10213000F4E738BDFFFF0000F0B5544F89B03868B0
:10214000FFF7E6FF524B051C524C98420ED1201C63
:1021500000F0D0FB201C00F0C9FC201C002138221C
:1021600000F0E8FB201C10304B4970E0022100F029
:10217000E1FE201C00F0BEFB00210A1C201C00F028
:10218000D9FB00212022684603F001FC6946281C87
:102190001F2200F0BEFE6846404903F049FC0028BB
:1021A00003D1201C10303E493AE068463D4903F017
:1021B0003FFC002803D1201C10303B4930E068462A
:1021C0003A4903F035FC002803D1201C103038496F
:1021D00026E06846374903F02BFC002803D1201C79
:1021E000103035491CE06846344903F021FC0028D2
:1021F00003D1201C1030324912E06846314903F007
:1022000017FC002803D1201C10302F4908E0684635
:102210002E4903F00DFC002804D1201C2C4910305D
:1022200001F092FA261C1036301C01F085FA29497B
:10223000301C01F077FA291C0A22301C01F0D3FA75
:10224000201C0021382200F075FB2349301C01F0CE
:102250007BFA201C002100F080FB201C022100F0F2
:10226000EBFB1E4E041E0DD0317800290AD1084B1D
:102270009D4206D0281C00F05DFE3B6801333B60A8
:1022800000E03960347009B0F0BDC04604000020A1
:10229000FFFF0000300100206C5A00007D5A000052
:1022A0008C5A0000915A0000A65A0000B25A000051
:1022B000C55A0000CE5A0000E25A0000ED5A000054
:1022C000FF5A0000075B0000175B0000245B000062
:1022D000315B00003B5B0000405B00002C010020F4
:1022E00008B596210448890101F008FE0620012165
:1022F00001F038F908BDC0468803002010B5054C30
:10230000201C00F047FA201C0349044A03F0EEFAAF
:1023100010BDC046300100201D2700000000002035
:10232000F8B5124C061C0F1C201C7E2101F0FEFC8F
:10233000351CAB1BBB4210DA2978201C0B1C7D3BE3
:10234000012B06D87D2101F0F1FC2B78202159408A
:10235000201C01F0EBFC0135EBE77E21201C01F095
:10236000E5FC201C01F04CFDF8BDC04688030020B0
:1023700000B589B044236A46137001214318013B1C
:102380001B78002B03D06A4653540131F6E7C9B2DB
:102390006846FFF7C5FF09B000BD0000F0B5051C99
:1023A00097B003292EDD0378877804934378C678A5
:1023B00005933B1D994203D01348FFF7D9FF21E055
:1023C00006AC00214022201C03F0E1FA6B461A33D0
:1023D0000093331C1F3B59424B4102932A1D3B1C67
:1023E00001960498059900F099FC522323706070BF
:1023F000002803D00236F1B2201C01E0201C02218B
:10240000FFF78EFF17B0F0BD515B000008B5002943
:1024100013D00378542B04D101300139FFF7BEFFEC
:102420000BE0512B05D1054B00221A7000F090FCF7
:1024300003E0582B01D1FFF773FF08BD2E010020E8
:1024400038B5124C7E280BD1114D2968002905DDC5
:10245000C9B21048FFF7DAFF00232B60002302E027
:102460007D2802D1012323700EE02378002B03D0B6
:102470002023584000232370054A13683F2B03DCB8
:10248000591C1160034AD05438BDC0462D010020AC
:10249000B401002074010020F0B587B06F4600241D
:1024A00004AD562311370526AC80049409202B7007
:1024B0000721009701960294221C231C00F02EFC99
:1024C000A0420CD0082100940194029409203A1CE7
:1024D000331C00F023FC281C0621FFF721FF07B066
:1024E000F0BD000070B5164E164C3578002D0CD09E
:1024F000FFF7D2FF201C01F089FC00281FD0201C10
:1025000001F04AFCFFF79CFF19E000F041FC00F0ED
:1025100033FCFFF711FE201C01F0F2FC00280ED066
:10252000201C01F073FC002809D0074C0123201C5B
:10253000337000F0DFF9201C291C00F00EFA70BD8A
:102540002E0100208803002030010020074B08499D
:10255000083303600B681A1C002B04D0834200D19F
:10256000DA68DB68F8E70A607047C046685B00001D
:10257000B801002070470120704710B5041CFFF718
:10258000E5FF201C01F0B8FB201C10BD0A4B0B4AD4
:102590000833036001235B42038183720023C3720B
:1025A000C36013684160002B03D01A1C0C32DB6837
:1025B000F9E710607047C046685B0000B801002072
:1025C000054B1B68002B04D01A89824201D0DB68BE
:1025D000F8E7181C7047C046B8010020044B1B6880
:1025E000002B03D0FF229A72DB68F9E77047C046E0
:1025F000B8010020F0B5294E89B0306800282BD0F2
:10260000C37A002B05D00289254B9A4201D00023C2
:10261000C372C068F2E7E468002C37D02389BB425C
:10262000F9D16846616803F003FA0028F3D100236A
:10263000E372A37A2581FF2B05D11A4A137801335F
:10264000DBB21370A372A17A281C00F051FC23683E
:10265000201C9B689847281C00F020FC104F051E8A
:10266000BD4218D03468002C04D02389AB42DED0A0
:10267000E468F8E7211C2022684603F088F9281C4A
:1026800069461F2200F045FC3468C5E7281C7F21FD
:1026900000F02EFCDFE709B0F0BDC046B801002015
:1026A000FFFF000008000020F0B589B01F1C0EAB32
:1026B000059204CB04911B78051C069310AB1B7884
:1026C0000793C47A002C19D1837AFF2B19D0261CCA
:1026D000079B9E420FDA0E9B069A009300230192FD
:1026E0000293A87A0499059A3B1C00F017FB002876
:1026F00006D10136ECE70123EB7202E0002400E092
:102700000124201C09B0F0BD002303704370704702
:1027100070470023437003707047000010B5054BED
:10272000041C1A1C0832243302600361FFF70EFFF9
:10273000201C10BD805B000010B5041CFFF7EEFFED
:10274000201C01F0D9FA201C10BDF8B5051C002989
:102750001ED1431CD87F161230439043D7B2D8778E
:102760000C1C331C2341DA0705D5AB69002B02D0C2
:10277000281C211C98473B1C2341DA0705D5EB692F
:10278000002B02D0281C211C98470134032CE8D1CF
:10279000F8BD000010B50C49041CFFF7F7FE0B4A0A
:1027A0000023111C243222610831621C2160636104
:1027B000FF21D377A21CD177211C3E310B704B70C7
:1027C000201CD38710BDC046ED5A0000805B00007E
:1027D000F0B589B0061C0591151CB71CFA8F0023B3
:1027E000AA4219D207AC022223706370019203221D
:1027F00002920094301C05211A1CFFF755FF002897
:1028000016D0637822781B021343FB87AB42E4D2D5
:10281000052000F037FDE0E7521BFA870322009302
:1028200001930292191C301C059A2B1CFFF73CFFE8
:1028300009B0F0BD831CDA7F8A4205D0D977012226
:102840003C3303301A70C177704770B5851CEB7F3D
:10285000092B10D1041C3E34237800265A1CC318BF
:102860000333D2B2011C22702231DE77FFF7B0FFB2
:10287000FF232670EB7770BD10B5041C3E34227820
:10288000531C82180332DBB22370D177821CD27FB3
:10289000092A03D11B2B01D1FFF7D7FF10BD30B59B
:1028A00087B06C460023E37503221734012502929A
:1028B0000094019504211A1CFFF7F6FE002803D0AE
:1028C00025786B1E9D41EDB2281C07B030BD10B5B8
:1028D000031C3F331A78041C002A0AD000221A7005
:1028E000201CFFF7DCFF002803D1052000F0CAFC04
:1028F000F6E710BD13B5041CFFF7A7FF201CFFF778
:10290000E6FF01A90C23201C01220B70FFF760FFDA
:1029100013BD37B5041C0D1CFFF797FF201CFFF7F4
:10292000D6FF01A90B220A70201C02224D70FFF76E
:102930004FFF37BD73B5041C0E1C151CFFF785FF38
:10294000201CFFF7C4FF01A90A220A70201C0322E1
:102950004E708D70FFF73CFF73BD37B5041C0D1C26
:10296000FFF773FF201CFFF7B2FF01A900220A80C6
:10297000201C02224D703F34FFF72AFF01232370F1
:1029800037BDF7B50D1C071C141C1E1CFFF75DFF9F
:102990005F2D31DC3F2C2FDC2A1C403203DA40351E
:1029A000761940256D42231C403305DA089A403CD5
:1029B0001219402408926442002E1DDD089B002B52
:1029C0001ADD381CFFF783FF6A4606231370557023
:1029D0009470331EFF2B00DDFF23089E6A46D370E0
:1029E000FF2E00DDFF26099A6B465A71381C694696
:1029F00006221E71FFF7ECFEF7BD38B5041C0D1C56
:102A0000FFF765FFA31CDB7F092B06D0201CFFF717
:102A10001CFF201C0921FFF70DFF201C291CFFF7BC
:102A20002BFF012038BD000008B4024B9C46103833
:102A300008BC6047FB2900000130C07F012308412A
:102A400018407047F0B5051C87B00F1C181C0721F3
:102A500003921E1C02F08AF90021041C00900191CF
:102A6000281C391C039A331CFFF78BFF0C9A002398
:102A700000920193281C391C039A231CFFF781FF45
:102A80000C9ABE190023311B00920193281C039A53
:102A9000231CFFF776FF039966000C9A8919BF196A
:102AA0000491921B0023059200920193281C391C6B
:102AB000049A231CFFF765FF059A0023B9190092B9
:102AC0000193281C049A231CFFF75BFF03990C9ABF
:102AD00000948B181A1B0021032301916343281CC7
:102AE000391CFFF74EFF07B0F0BD0000F0B5051C24
:102AF00085B0FFF7AAFE281C02ACFFF7E8FE00270E
:102B00000423029723704423FF26211C05226370AF
:102B1000281C3D23E3702671FFF75AFE281CFFF79F
:102B200094FE281CFFF7D3FE0323281C211C05223A
:102B3000029726712370FFF74BFE40230093281C59
:102B40006023391C3A1C0197FFF71BFF2822281C21
:102B5000391CFFF7EFFE0121281CFFF7DAFE281CC5
:102B6000FFF773FE281CFFF7B2FE05230522281C81
:102B7000211C23706670A670E6702671FFF728FE90
:102B8000281C1749103000F0CDFD281CFFF75DFE12
:102B9000281CFFF79CFE0323211C0522281C0297FA
:102BA00027712370FFF714FE281CFFF74EFE281C28
:102BB000FFF78DFE0423281C211C0522237066705C
:102BC000A670E6702671FFF703FE1A230093281CF7
:102BD0001E210A222323FFF735FF05B0F0BDC046B2
:102BE000B05B00004840082342B24000C0B2002A57
:102BF00001DA07225040013BDBB2002BF4D17047D1
:102C000008B50248FFF780FD08BDC046BD010020A1
:102C1000F0B587B002930CAB049204CB01901B7803
:102C20000E1C03930EAB1B78019900200593FFF750
:102C3000D9FF394C051C0199201C00F050FA311CB9
:102C4000201C00F0AAF90299201C00F0A6F9311C02
:102C5000281CFFF7C7FF0299FFF7C4FF049E071C5B
:102C6000049AB31A029A93420ADA31782A4800F099
:102C700094F93178381CFFF7B5FF0136071CEFE7F0
:102C8000391C201C00F089F9039A201C5642564139
:102C9000F6B2311C00F02EFA002801D0002637E0F1
:102CA000002E35D1201C00F06EF9061E03D0201C2A
:102CB00000F064F9F6E7039F201C013701993A1CE4
:102CC00000F008FAB842E9D1201C00F057F90C9B3B
:102CD000059AC1B29955002A0AD0002E08D09B1936
:102CE000013B1B78002B03D14E1B71424E410EE07D
:102CF000281CFFF777FF039B0136051C9E42E3DB90
:102D0000201C00F03BF9C6B2AE1B75426E41F6B214
:102D1000301C07B0F0BDC046C0010020F0B587B040
:102D200005930CAB049204CB051C1F780EAB1E78E8
:102D30000C1C00F063F80C9B019700930296281C72
:102D4000211C049A059BFFF763FF07B0F0BD00004C
:102D50001FB50023009301930293191C1A1C09202C
:102D6000FFF7DCFFFFF73AFC0248FFF7D2FC05B0A3
:102D700000BDC046BD0100201FB500230093019394
:102D8000029364211A1C0920FFF7C8FF05B000BD9B
:102D9000F0B587B0FFF7F0FF1748FFF7B9FCFFF772
:102DA00029FC002504AC0526009401960295092013
:102DB00007212A1C2B1CFFF7B1FFA8421AD0331C95
:102DC00000950195029509200821221CFFF7A6FF16
:102DD000A0786378000218432578E6782779FFF712
:102DE000EFFB0028DDD003683A023243DB68291C80
:102DF0009847D6E707B0F0BDBD0100200F4B10B5D6
:102E00001A78002A18D101221A7000F035FA6328C6
:102E100003D86423181A00F035FA094C201C00F07E
:102E2000F9F8201C074900F015F9FFF791FFFA2087
:102E300000F028FAFFF7ACFF10BDC046BC0100202F
:102E4000C001002040420F0070B5124B86B098427E
:102E500001D110481CE0013004AE80B20225307070
:102E600005AC001270700C492A1C201C02F086FD73
:102E7000002302930094019509200121321C2B1C90
:102E8000FFF74CFF0028E4D0207863780002184355
:102E900006B070BDFFFF0000BC5B000070B5124BB8
:102EA00086B0984201D110481CE0013004AE80B2D7
:102EB0000225307005AC001270700C492A1C201CD1
:102EC00002F05CFD00230293009401950920291C67
:102ED000321C2B1CFFF722FF0028E4D020786378F7
:102EE0000002184306B070BDFFFF0000BC5B00008D
:102EF0007FB505AA10709170002303210012507055
:102F000000930193029309200B1CFFF707FF07B002
:102F100000BD7FB505AB18700012587001920122F8
:102F20000091029205211A1C09200223FFF7F6FEE8
:102F300007B000BD7FB505AA1070001250700023C5
:102F400009209170009301930293011C0323FFF762
:102F5000E5FE07B000BDF8B5051C0F1C161C0024CB
:102F6000B44208D02B68395D1B68281C984700289C
:102F700001D00134F4E7201CF8BD704708B51830C3
:102F800000F092FC08BD08B5183000F09BFC08BDAD
:102F900008B5183000F09CFC08BD38B5041C006969
:102FA0000D1C00F0ABFD00280ED0A37D002B10D02F
:102FB0006034201C00F095FC00280AD1201C291C3C
:102FC00000F063FC012005E02069291C00F08AFD67
:102FD00000E0002038BD0000F7B50193FA239B0004
:102FE00083600B4B00250833041C456003601830D8
:102FF0000F1C161C00F03EFC201C603000F03AFC58
:10300000019B27612675A575201C6375FEBDC04612
:10301000C05B000070B50D49041C006900F030FE73
:10302000206900F0E5FC1826207D331C4343084D41
:103030000821EB18595600F0F1FA607D082146434B
:10304000AD19695600F0EAFA70BDC046A0860100CD
:10305000545C000038B5041C0D1C006900F0DCFC59
:10306000291C206900F00CFE206900F0C1FC38BD6D
:10307000F8B5041C0020151E85422AD020690122C3
:1030800000F0F6FC002822D0206900F062FD271C29
:103090001837011C381C00F0F8FB01262069AE42ED
:1030A0000ED000F0CBFC0221206900F0CFFC20699B
:1030B00000F04FFD011C381C00F0E7FB0136EDE786
:1030C00000F0B4FC2069032100F0C0FC00E0051C06
:1030D000E8B2F8BD08B50123FFF7CAFF08BD10B577
:1030E000031CA833041C1970603000F0D9FB0123C5
:1030F000A37510BDF8B50022031C8275A833041C0B
:103100001978006900F0B4FC002805D1206903217A
:1031100000F09CFC02201BE0271C6037381C00F0EC
:10312000D1FB2669051E0ED0381C00F0BDFBC1B2D4
:10313000301C00F0C6FC0028EED12069032100F00D
:1031400085FC032004E0301C032100F07FFC281CD8
:10315000F8BD38B5041C006900F0D9FC00282FD058
:10316000206900F0DDFC00281BD0206900F0F1FC94
:10317000011C201C183000F088FB206900F0D5FCF1
:10318000002804D1206900F0D5FC002809D0231CB8
:10319000B0331D68002D04D02368201C9B6898471D
:1031A000A847206900F0CBFC002809D0206900F076
:1031B000CBFC002804D0AC342368002B00D0984707
:1031C00038BD000008B50248FFF7C3FF08BDC04680
:1031D000C001002008B50348034907220823FFF770
:1031E000FBFE08BDC001002094090020FEE700009E
:1031F00008B5034B1B68002B00D0984708BDC0469C
:103200007402002038B51049104CA14206D102F0DA
:1032100085FB00F055F800F051FD0BE00C4D8D42A0
:10322000F5D00023CA18E818A24204D2006804337B
:103230001060F7E7FEE79042E9D0064B064A93425A
:10324000E5D2002204C3F9E70000002010010020AD
:10325000305E000010010020AC09002008B500F02D
:103260002CF8002801D100F01DF808BD014B1860B2
:103270007047C04674020020014B18687047C04672
:103280007802002070B5041E08D0054B1D681E1C76
:1032900000F012F833685B1BA342F9D370BDC0463F
:1032A0007802002008B5034B1A6801321A6000F05A
:1032B000B3FA08BD78020020704700207047000074
:1032C00030B5484B1E225968082091430222114311
:1032D000596045498B6903438B614448444B98824C
:1032E000988A02439A82DA689007FCD5414A012005
:1032F00010701078C40704D53E48407840B20028CA
:10330000F7DB01209060507840B20028FBDB3A4C9C
:1033100038484460507840B20028FBDB82243548AE
:10332000E4014480507840B20028FBDB988C802474
:10333000A0439884D868C506FCD5304C2C48C4629C
:10334000DC682B48E506FBD5848C2D4D2C4384840A
:10335000DC682748E506FBD5848C02252C43848451
:10336000D8680406FCD52248C0684506F8D5D86858
:10337000C406FCD500209060507840B20028FBDBEA
:10338000204C1C48446054781A4864B2002CFADB84
:103390001D6A1D4C2C401C621C6A8025AC431C62BB
:1033A00003238360194B436053785BB2002BFBDB34
:1033B00000230B72164A4B728B72CB72154BFF2196
:1033C0001A60154B154A1B6812685801D20E01404D
:1033D00011439A06520F12020B1C1343104A138515
:1033E00030BDC04600400041000400400C06000013
:1033F00000080040000C004001050100B805FF7DF9
:10340000040A000000070300FFFCFFFF03060100A1
:10341000006CDC020C000020246080002060800032
:10342000004000422E4BFA21186810B5890001F0C7
:103430004FFC2C4B013898421DD82B4B2B4A58601F
:10344000106AC0210002000A09060143116200242B
:1034500007229C601A60264BFC211A6A0A431A62F2
:10346000196AFC2292010A431A62196AA022D20246
:103470000A431A6200E0FEE7201C0021013400F03C
:1034800071F8072CF8D11B4C63785BB2002BFADB88
:10349000194B6380194B5A7ED209012AFAD0E422D3
:1034A000D2009A803F22DA70597E144AC909012954
:1034B000FAD0C0235B0100201361907000F024F863
:1034C00063785BB2002BFBDB0D4A0A4B5A800D4B35
:1034D000DA79D209012AFAD041225A7010BDC046C9
:1034E0000C000020FFFFFF0010E000E000ED00E016
:1034F00000040040000C00401E400000004000425C
:10350000214000000048004200B5144A517E131CBF
:10351000C9090129F9D00138042813D81969104ABA
:103520000A401A615A780F218A4301F0C7FB03054C
:1035300009070300012102E0032100E002210A4300
:103540005A700AE01169F0231B050B43136153788D
:103550000F218B4302210B43537000BD00400042FA
:10356000FFFFFFF010B51824021C201C5043284B0D
:103570001818007A40B2013048D0032946D8081CF8
:10358000211C01F09BFB02331121624398569A18CB
:10359000C301204852681B18991840310220087056
:1035A00001219140596031E06243985619499A18B7
:1035B0005268C3015B189918403106200870012138
:1035C00091405960996121E051435A561148591868
:1035D0004B68D2011118C81840300624047001202D
:1035E000984048600C49521850600FE0624398566A
:1035F0009A18C301074852681B1899184031087877
:103600000224A043087001219140996010BDC0467A
:10361000545C000000440041104400411822424321
:10362000F8B52D4D0824AA181457031C621C50D05D
:10363000481C00240C284CD801F040FB071E1E1E1D
:103640001E1E1E1E1E0A0A0A0A000124644240E0D1
:10365000092902D1181C002103E00A2904D1181CF1
:103660000221FFF77FFF23E000240B2931D1181C32
:103670000121FFF777FF2CE018225343EA18526824
:10368000EB560120141C04405508DB01002C11D01E
:10369000124C1B195D1930352E780C010F21314069
:1036A00021439A18C9B22970403213781843107018
:1036B00000240EE0094E0F279B195D1930352E7836
:1036C0009A18BE433143C9B2297040321378184367
:1036D0001070201CF8BDC046545C0000004400413E
:1036E000F7B58A18061C0D1C01920C1C019B671B68
:1036F0009C4207D0336821781B68301C98470134FE
:103700000028F3D1381CFEBD38B5051C0C1C081E62
:1037100007D002F097F92B68021C5B68281C211C5B
:10372000984738BD08B5FFF7EFFF08BD08B5036837
:103730001B68984708BD000008B50249FFF7E4FF81
:1037400008BDC046E05B000038B5041CFFF7DCFF95
:10375000051C201CFFF7F0FF281838BDF0B58BB012
:10376000151C09AB0022071C0E1C1A70012D00D875
:103770000A256C462334301C291C01F0A9FA031CCD
:103780006B43F61AF6B2211C092E01D8303600E040
:103790003736F6B22670013C002801D0061CEAE755
:1037A000381CFFF7B1FF0BB0F0BDF8B5041C0D1CC1
:1037B000161E04D10368C9B21B68984712E00A2A92
:1037C0000DD100290ADA2D21FFF7B0FF6942071C4D
:1037D000321C201CFFF7C2FFC01903E000E0D2B288
:1037E000FFF7BCFFF8BD38B5041CFFF7DEFF051C72
:1037F000201CFFF7A1FF281838BD0000014B1860FE
:103800007047C04610000020024B012252421A604D
:103810007047C04610000020104A1368591C1CD085
:10382000013B1360002B18D172B60D4B1A7DD107E6
:10383000FBD5198B2022FF320A431A83094ADA6129
:10384000094A1A801A7DD107FCD5BFF34F8F074A6A
:10385000074BDA60BFF34F8FFEE770471000002080
:10386000004000410210000002A5FFFF0400FA051D
:1038700000ED00E010B500214022041C02F087F8A2
:103880000023201C2364636410BD026C10B53F2329
:10389000541C2340446CA34201D08154036410BDE6
:1038A0000023036443647047436C026C934206D068
:1038B000C25C3F2101330B404364101C01E0012036
:1038C00040427047026C436CD01A00D540307047BC
:1038D000436C026C934201D0C05C01E00120404285
:1038E0007047026C3F2301321A40436CD01A4342A6
:1038F0005841C0B2704701607047F7B508AC2678F0
:1039000004689D1E27686C1EA541ECB292070568ED
:103910003A4327063A432A6002680725294050683F
:10392000B501002C00D05C03294301430C435460D3
:10393000F7BD30B50368C0251C68AD0312052A40E9
:103940002243C024A40209042140114319600368E2
:103950005A6814435C6030BD036801211A680A4349
:103960001A600268116801231942FBD1D16919421A
:10397000F8D17047036802211A680A431A60026886
:10398000D3699907FCD470470268137ED907FCD528
:103990007047036800225A8370470368187E400707
:1039A000C00F70470368187EC00970470368802203
:1039B000197E52420A431A7670470368188DC0B2C6
:1039C000704738B5041C0D1CFFF7DEFF236801208B
:1039D0001D8538BD036801211A680A431A60026810
:1039E000116801231942FBD1D1691942F8D17047FE
:1039F000036802211A680A431A600368DA699107AA
:103A0000FCD45A8B30218A4310210A435A8302681E
:103A1000D3695907FCD47047036802211A688A43A6
:103A20001A600268D3699907FCD470470368802242
:103A30005968D2020A435A60704700000368024A7C
:103A400059680A405A607047FFFFFBFF10B50368D2
:103A5000032211400A045C68044921401143596063
:103A60000268D3695907FCD410BDC046FFFFFCFFB4
:103A700049001143036810B5CCB2598B8906890FF0
:103A80000129FAD1596AC90AC90221435962036856
:103A9000002A03D11A7ED107FCD50DE0187E012241
:103AA0004008104008D1197E1142F7D05968C02251
:103AB00092020A435A6003E05B8B01209B08984303
:103AC00010BD0368283319700268107E0123184066
:103AD00003D1518B1942F8D003E0528B181C920885
:103AE0009043704703682833197003681A7E5107A2
:103AF000FCD55B8B01209B089843704703681868CE
:103B0000C006400F053843425841C0B270470368B1
:103B10001868C006400F043843425841C0B270478D
:103B20000368187E4007C00F70470368187E0123A2
:103B3000184070470368588BC006C00F7047036871
:103B4000187E8007C00F70470368588B0007C00FAE
:103B5000704703681A68D206520F052A02D11A7EEE
:103B60009107FCD528331878C0B2704703681C4A07
:103B700030B593420BD01B4A93420BD01A4A934262
:103B80000BD01A4A93422AD10C23172207E00923AB
:103B9000142204E00A23152201E00B231622DCB2D2
:103BA000134901209B08A0409B0008605B1803207C
:103BB000C021890004405D58E000FF248440A543F3
:103BC0002C1CC0258540281C204358508023DB0135
:103BD0001A43084B5A805A7852B2002AFBDB30BD98
:103BE00000080042000C0042001000420014004295
:103BF00000E100E0000C0040F8B5041C151C0F1C8F
:103C00001E1CFFF7B3FF201CFFF7A6FEB9001C2205
:103C10000A4069072368090C0A431A602268842352
:103C20009375012F26D11020002D03D00320022DE3
:103C300000D1082001F0ECFD051C301C01F0E8FD6E
:103C4000011C281C01F02AFB0B4B051C186801F015
:103C5000DFFD011C281C01F03DF9011CFE20800540
:103C600001F046FC054901F019FB01F01BF924683D
:103C700080B2A081F8BDC0460C00002000FF7F4745
:103C800038B5041C0D1CFFF771FF201CFFF7A2FEC6
:103C9000236814221A60074B6900186801F018F8AD
:103CA0002468421EE068FF231A4098431043E060F6
:103CB00038BDC0460C0000207047000010B5FFF76B
:103CC000B1FBFFF7F9FF0120FFF7DCFA084C201CDD
:103CD00000F0D4F9201C00F031FAFEF701FBFEF7EA
:103CE00001FC044B002BFAD000E000BFF7E7C04610
:103CF000270800200000000008B501F035FE08BDCF
:103D0000094B1A1CFC32506891681A1C884206D173
:103D1000FF335B7A002B02D10120404203E0131CE9
:103D2000FC339B68D05C70477C02002013B50268AE
:103D30006B46D97107335468191C0122A04716BD80
:103D4000F0B58023C1B002216A465B00006900F033
:103D500063FB72B60F4A0021131CFC335B6881427F
:103D600012D0141CFF34657A002D0DD16F467E5C95
:103D70005D1CD654EBB2151CFC35AD68AB4201D1CD
:103D8000012565720131EAE7FC32536062B641B049
:103D9000F0BDC0467C02002038B5184C051C231C21
:103DA000FC335A689B689A420ED1231CFF335B7A1E
:103DB000002B09D10069022100F0B8FA002803D0D5
:103DC0002B68281C9B699847231CFC335A689B6806
:103DD0009A4207D1231CFF335B7A002B02D10120CA
:103DE00040420AE0231CFC339A68A05C9A68FF34C6
:103DF0000132D2B29A600023637238BD7C02002087
:103E000008B50069032100F07BFA08BD0C4B1A1CB1
:103E1000FF32527A002A10D11A1CFC325168926883
:103E2000914204D14A2207490120FF328854FC33D1
:103E300058689B68C01AC0B201E0802040007047FB
:103E40007C0200200050004138B5131C084A041CB5
:103E5000D2790D1C002A06D0006903212A1C00F02B
:103E600023FB002801D001236360002038BDC04639
:103E70005800002008B5037803490233037042223A
:103E8000024800F085FB08BD140000202708002030
:103E900010B50178031C42780020A12908D1212AFD
:103EA00026D114481449072200F072FB01201FE0BC
:103EB00021291DD1202A05D10F4907220D4800F0E4
:103EC0006FFA04E0222A13D19A780B4BDA710A4B6D
:103ED00096221968D200914207D1DC7901231C4057
:103EE00003D1FA20FFF78AFC01E0FFF78DFC0020E8
:103EF00010BDC04627080020580000207047000071
:103F000010B5FFF7B9F9F423FF330024984207D91D
:103F1000044B0A20DC79631E9C41E4B2FFF7B2F93E
:103F2000201C10BD58000020054B00225A60FA22C8
:103F300092009A60034A08321A60034A1A61704775
:103F400088030020F85B00002708002070B5C2B28B
:103F500019495301CB189E68184DC0242E40A40562
:103F600026439E60164E800109683018083258605A
:103F70005201505C0726B0430126304350549E69DD
:103F800035402C439C610F4C5C61505C7024A04315
:103F90001024204350549C680B488A1820408024E9
:103FA00064032043986098684021800B80039860E8
:103FB00053790B43537170BD2C080020FFFFFF8F16
:103FC00064060020A4040020FF3F00F038B5041C64
:103FD00008CC01211A78051C0A431A708022201C83
:103FE0000021520001F0D3FC2B689A78D107FCD451
:103FF0005C6238BD134BF0B51B6899035A029B01F4
:10400000C90ED20E5B0F1F2900D105211F2A00D136
:104010001D22072B00D1032304688E01278D0A4936
:104020001F2539403143218501682A400C8DAC435E
:1040300022430A8502681903108D044B03400B4389
:104040001385F0BD246080003FF8FFFFFF8FFFFF66
:1040500037B500236C46E3710734201C0D1CFFF7B5
:1040600009FF2B681818286000F016FE211C00F0CC
:10407000CCFD2B681818286020783EBD38B5264B3B
:104080002021DA69051C0A43DA61244B01201A78E1
:10409000062402431A70224B0F221978914319709B
:1040A0001978214319701F490C782043087019783A
:1040B0000A401A701A7860210A431A701A4B1B4A78
:1040C0005A805A78D209FCD11948FFF7CFF8194C19
:1040D000201CFFF77BFF201CFFF78CFF23687F224B
:1040E00019780A401A701A7804210A431A701A893A
:1040F0000C218A431A81C1210F4A890050580002BD
:10410000000A5050802111601A7802210A431A7067
:1041100001232B7038BDC0460004004058440041C4
:104120003C44004159440041000C0040064000005E
:10413000254A00002C08002000E100E0007800285B
:1041400010D0094B01211B681A898A431A811A8BE6
:1041500008210A431A831A8B04210A431A83034B4A
:1041600000221A607047C0462C0800203009002049
:104170000F4B9A69920B92039A611B680222FF33DC
:104180001A7298798022524202439A711A7A9007E1
:10419000FCD5084B081C997A7F22104091430143BB
:1041A0009972997A802252420A439A727047C046A5
:1041B0002C0800200050004110B50B790C1C002B7E
:1041C0000BD1081CFFF764FE002804D1094B9A6943
:1041D000920B92039A6101200BE000F05DFD211C1F
:1041E00000F047FD0028F6D1024B9A69920B92032A
:1041F0009A6110BD2C08002038B5832A16D1CAB2A6
:1042000031485301C3189D69304C89012C40C025A9
:10421000AD052C439C612E4C08326118596103682E
:104220005201D15C70208143402044E0022A24D115
:10423000C8B2254A4301D3189D68244C89012C40FB
:10424000C025AD052C439C60224C12686118596052
:10425000011C08314901885C0724A0430324204342
:10426000885499681C4A0A40802149030A439A608D
:104270009A68920B92039A6025E0822A1ED1CAB2F4
:1042800011485301C3189D69104C89012C40C02569
:10429000AD052C439C610E4C0832611859610368CE
:1042A000520199180C798020404220430871D15C5A
:1042B0007020814330200143D15404E0002A02D110
:1042C000081CFFF743FE38BD2C080020FFFFFF8FBE
:1042D000A404002064060020FF3F00F038B5051C50
:1042E0000124064BA200D258002A06D0211C281C0B
:1042F0000134FFF781FFE4B2F3E738BD600000202E
:10430000CBB2094A59015118896889040AD0116849
:1043100008335B01C9184A7980235B4213434B7110
:104320000223CB717047C0462C080020034BC9B252
:104330004901591888688004800C70472C080020B7
:1043400070B5CAB2134B14485401890159180319A6
:1043500059609D681149083229408025AD022943E2
:10436000996099684026890B890399600368510117
:1043700059180D7935430D715101591889794D0638
:10438000FAD551015918C979CD07FAD50419A06891
:10439000C0B270BD640600202C080020FF3F00F072
:1043A00038B50C4B141C1B680D1CFF335A79402187
:1043B0000A435A710021FFF7C3FFA04200D9201C15
:1043C0000023A34204D0044A9A5CEA540133F8E77C
:1043D00038BDC0462C0800206406002010B5C9B2C4
:1043E0000C48490143189A689204920C3F2A08D954
:1043F000141C9A68403CA404920BA40C9203224320
:1044000002E09A68920B92039A6041188868C0B2E1
:1044100010BDC0462C080020F7B51C1C1F4B0F1CFC
:104420001B680192002B34D0CDB21D4E6B01F318E6
:104430009A689204920CA24202D29C68A404A40C32
:10444000391CFFF7CBFF326869015318FF335A7AE2
:10445000009103218A4301210A431249BF015A7284
:10446000C9190198221C01F089FA0020844214D055
:10447000009AB3189B689B0483420DD133680835BA
:104480006D015D192B79402213432B710123EB71D0
:1044900002E00120404200E0201CFEBD3009002067
:1044A0002C08002064060020F0B51C1C234B85B0AE
:1044B0001B680F1C161C002B3CD08023DB019C4288
:1044C00038D8002C34D0251E3F2D00D940251C4A59
:1044D000BB01D318181C311C2A1C039301F04EFA9F
:1044E000F9B2184A03984B01D3185861A804800CFC
:1044F000039002919969880B0399800301439961A4
:104500000299126808314B01D3180220D871019228
:104510005A79802003924242039810435871019ABD
:104520004B01D318DB799807F9D5641B7619C8E7D6
:10453000201C01E00120404205B0F0BD3009002000
:10454000A40400202C08002070B50E4D1C1C8B010B
:10455000ED18281C0E1C111C221C01F00FFAF6B2DB
:104560000949760189194D618A69084B201C13405D
:104570008B618B69A2049B0B920C9B0313438B6191
:1045800070BDC046A40400202C080020FF3F00F0AE
:10459000F7B5114B01901B780F1C141C002B19D17F
:1045A0000E4B1E78002E01D1151C08E00C4D0D4855
:1045B0002E888019361901F0E1F92E800AE0002DCD
:1045C00008D0BA192B1C01980021FFF7BDFF36183F
:1045D0002D1AF4E7201CFEBD260800202408002028
:1045E000A2040020A1030020F8B50D1C00AF012A91
:1045F00020D953085B000833DB086946DB00C91A81
:104600008D4601202B18013B1C784300002C0BD158
:10461000C02292001A430A8008481A1CFFF7B8FF0C
:10462000431E9841C0B206E0DEB2B242F0D0CC5296
:104630000130E7E70020BD46F8BDC046270800204E
:1046400008B5044B00221A70034B04491A88FFF77F
:104650009FFF08BD24080020A2040020A103002021
:10466000F0B5204A87B001230026009102A91370FB
:10467000051C0296FFF7ECFC03AC092701903A1CDD
:10468000201C311C01F083F902236370C023E37105
:10469000FA232372029B0122DB196380019B627162
:1046A0002371104A009B27701670BB4205D1281C4D
:1046B000211C1A1CFFF76CFF11E00B4B01221A7032
:1046C0000A4B211C3A1C281C1E800296FFF760FF33
:1046D000281C02A9FFF7BCFC281CFFF7B1FF012032
:1046E00007B0F0BD2608002024080020A204002006
:1046F00070B5CE7886B0051C0C1C022E08D1C98876
:104700002348FFF7ADFF031C581E8341D8B23DE09C
:1047100000F0C2FA211C00F08DFA002803D0C31764
:104720001B1AD80F32E0012E04D1E2881949112A50
:1047300027D823E0032E29D1A278002A05D11649D3
:10474000E2880B78934219D81BE0022A03D1A279A0
:10475000281C124904E0012A05D1A2791049281C1D
:10476000FFF742FF12E0032A10D100F095FA01A9E9
:1047700000F070FAA279281C01A9F1E7D2B2002A50
:1047800000D10A78281CFFF703FF012006B070BD96
:1047900027080020305C0000205C0000425C000024
:1047A000245C000073B5051C48780C1C0B287BD8D2
:1047B00000F084FA081C7A287A3E4306474B6B7255
:1047C000002072E0097801AA002903D1117051700C
:1047D000281C09E0002313705370344B1B78012B05
:1047E00000D11370281C0021022352E08A78002394
:1047F000012A04D101AA137053702D4BEEE72B4A06
:1048000013704CE08E78012E07D1294B01AA0021AC
:104810001E701170281C331C3BE0002E08D1234A67
:1048200001231370234A9169890B890391613BE04D
:10483000A178281CFFF79CFC36E0281CFFF758FFE6
:1048400033E0281C00211C4A22E00A780020D3060D
:104850002BD1281CFFF742FDA2781649164B2A20BF
:104860001A600A68FF30145C03239C4302252C4322
:1048700014544A20FF30145C9C4301231C431454FD
:104880008A69920B92038A610EE00C4A281C00216F
:104890000123FFF759FE07E08A78084B1A60054BA1
:1048A0009A69920B92039A61012076BDA0030020C1
:1048B000250800202C0800203009002028080020AE
:1048C000014A024B1A607047005000412C0800203A
:1048D00008B5022907D1134B9B6C9B0420D01248CA
:1048E000FFF72EFA1CE003290BD10E4BB2221B68F6
:1048F0005200985C80214942014399540221682268
:104900000CE001290CD1074B92221B685200985CE5
:10491000802149420143995402212822FF329954AF
:1049200008BDC0462C08002088030020F8B5384B8D
:10493000071C1C78002C6AD1364D2868838B190718
:104940000DD5201CFFF702FB2B6810201A1CFF322C
:10495000917A01439172304A146008229A832B683D
:104960009A8B500701D504229A83FF331A7AD10615
:1049700028D510221A725A7940210A4327495A71C0
:104980000A786023381C1A4202D1FFF70BFF01E0BE
:10499000FFF712FC002806D02B688022FF3399799C
:1049A00052420A4301E01E4B20229A712B68FF33CA
:1049B0001A7A500606D540221A72597A602081432D
:1049C0000A435A722968FE230E8C00241E40E1B26D
:1049D000002E1CD0331C0122234113420FD0231C74
:1049E000286808335B01C318D87910420BD1DA79F3
:1049F000032313409A0706D40123A3409E430134A6
:104A0000092CE4D103E0381CFFF762FFF4E7F8BD9E
:104A1000240800202C080020300900206406002013
:104A2000FF50004108B50248FFF780FF08BDC046AF
:104A30002708002008B5024800F06EF808BDC046FF
:104A40003409002013B50A490A48FEF754FF0A4CFE
:104A50000A49201CFEF74FFF032300930123019313
:104A6000211C04220523064800F032F813BDC0467D
:104A7000000800429409002098090020000C004220
:104A8000340900200120704710B5041C0069FEF7AE
:104A900063FF201C1430FEF703FF10BD08B500694A
:104AA000FEF772FF08BD08B51430FEF70BFF08BD16
:104AB00008B51430FEF70CFF08BD08B51430FEF73A
:104AC000F3FE08BD08B50069FEF77BFF012008BDB5
:104AD000F7B51D1C08AB1B78041C009309AB1B78B1
:104AE000161C019300234360FA239B008360094B4B
:104AF0000F1C083303601430FEF7BCFE009A231C21
:104B00005C3327619A70019A1E705D70201CDA7008
:104B1000FEBDC046785D000010B5041C0069FEF7BC
:104B20003CFF002807D02069FEF747FF011C201C2E
:104B30001430FEF7AAFE2069FEF734FF002805D0E6
:104B40002069FEF733FF2069FEF723FF10BD0F2316
:104B5000081C984330384342584170470020704742
:104B60000F231940012905D002394B424B41022045
:104B7000C01A00E000207047F0B5031C85B0039117
:104B80005C33041C182718783B1C43431B4E082138
:104B9000F3185956151CFEF741FD231C5D33187898
:104BA00008214743F6197156FEF738FD039B002292
:104BB00020690121FFF720F8291C201CFFF7CEFFF8
:104BC000291C071C201CFFF7CBFF291C061C201CDE
:104BD000FFF7BDFF391C0090331C20690122FEF74E
:104BE0008CFE231C5F331978013B1A782069FEF78D
:104BF000A0FE2069FEF7BEFE05B0F0BD545C0000CB
:104C000008B51322FFF7B8FF08BD70B544680E1C45
:104C10000025002C09D02368201C5B68311C9847B4
:104C2000002804DB2D18E468F3E7281C01E00120CC
:104C3000404270BD38B544680D1C002C08D0236874
:104C4000201C9B68291C9847002802D1E468F4E7DF
:104C5000201C38BD38B544680D1C002C07D02368D3
:104C6000201C291CDB689847E4682D18F5E72C7098
:104C700038BD38B544680D1C002C08D02368201CB2
:104C80001B68291C9847002803D1E468F4E7201C1E
:104C900000E0012038BD0000064B0122196810B564
:104CA0001140054805D10224047004244470416079
:104CB0001A6010BDA40900209C09002002B47146AE
:104CC00049084900095C49008E4402BC7047C0464F
:104CD000002934D00123002210B488422CD30124AF
:104CE0002407A14204D2814202D209011B01F8E744
:104CF000E400A14204D2814202D249005B00F8E7FD
:104D0000884201D3401A1A434C08A04202D3001B28
:104D10005C0822438C08A04202D3001B9C0822435B
:104D2000CC08A04202D3001BDC082243002803D099
:104D30001B0901D00909E3E7101C10BC70470028CB
:104D400001D00020C04307B4024802A140180290DD
:104D500003BDC046D90000000029F0D003B5FFF71D
:104D6000B9FF0EBC4243891A1847C046002941D0FA
:104D700010B4041C4C40A44601230022002900D595
:104D80004942002800D5404288422CD30124240700
:104D9000A14204D2814202D209011B01F8E7E400DA
:104DA000A14204D2814202D249005B00F8E7884266
:104DB00001D3401A1A434C08A04202D3001B5C08DE
:104DC00022438C08A04202D3001B9C082243CC083B
:104DD000A04202D3001BDC082243002803D01B0999
:104DE00001D00909E3E7101C6446002C00D54042BD
:104DF00010BC7047002806D003DB0020C0434008E9
:104E000001E08020000607B4024802A14018029089
:104E100003BDC046190000000029EBD003B5FFF721
:104E2000A7FF0EBC4243891A1847C0467047C046C8
:104E30008446081C6146FFE71FB500F0E3F900282F
:104E400001D40021C8421FBD10B500F069F94042ED
:104E5000013010BD10B500F0D5F9002801DB0020AD
:104E600010BD012010BDC04610B500F0CBF90028E0
:104E700001DD002010BD012010BDC04610B500F0BE
:104E800079F9002801DC002010BD012010BDC046CA
:104E900010B500F06FF9002801DA002010BD0120E4
:104EA00010BDC0469E2110B5C905041CFFF7F0FFD8
:104EB000002803D1201C00F08BFC10BD9E21C905E9
:104EC000201C00F015FB00F083FC80231B06C0189B
:104ED000F3E7C046F0B55F4656464D464446F0B44B
:104EE00046024500C00F85B00F1C760A2D0E804685
:104EF00041D0FF2D26D08024240400212643F60033
:104F00007F3D89468B46F90F7C027800640A000ECB
:104F100000918A463CD0FF2834D080231B041C43D8
:104F20000023E4007F380193009F4346019A7B40B1
:104F300049469C4611430F2900D971E0764F8900FC
:104F40007F58BF46002E3ED10822022391469B4641
:104F5000D9E75A46341CC24601920199022937D03A
:104F6000032900D1CFE0012900D0ABE053460B402C
:104F70000022002632E0002E19D1042101228946A8
:104F80009346C0E7221C531E9A4102320192CBE79E
:104F900001270197002CC7D0201C00F089FC431F7B
:104FA0009C4076235B420021181A0191BCE7301C1B
:104FB00000F07EFC7625431F9E406D4200232D1A93
:104FC00099469B469FE70C23032199468B469AE717
:104FD000D446012367463B40FF2200267602D205D5
:104FE000700ADB071043184305B03CBC9046994655
:104FF000A246AB46F0BD80260023F603FF22EDE774
:1050000000220026EAE78020C00306423BD004428B
:1050100039D1061C26437602760A009BFF22DDE783
:10502000281A039076016401A64239D3361B1A224E
:1050300001230120311C5B007600002901DBB44212
:1050400001D8361B0343013A002AF3DC741EA64143
:10505000341C1C43039A7F32002A27DD630704D0E7
:105060000F232340042B00D00434270103D52B4BFE
:10507000039A1C408032FE2A0BDD012361460B405F
:10508000FF220026AAE706437602760A4346FF225D
:10509000A4E7A40101236746660AD2B23B409DE71C
:1050A000039F1B22013F03970023C2E77E23039F38
:1050B0005B42DB1B1B2B07DD012361460B400022FB
:1050C00000268BE7D446C5E7221CDA40039B9E33BB
:1050D0009C40231C5C1EA34113435A0704D00F229B
:1050E0001A40042A00D004335F0105D5012361462C
:1050F0000B400122002671E79E0162460123134006
:10510000760A00226AE78026F60326437602760AAC
:105110005346FF2262E7C046A85D0000FFFFFFF78D
:105120004A02430270B55C0A550A43004A001B0E4E
:10513000C60F120EC90FFF2B05D0FF2A08D0012081
:1051400093420BD070BD0120002CFBD1FF2AF6D179
:105150000120002DF6D101209342F3D1AC42F1D1D0
:105160008E4205D0002BEDD1201C441EA041E9E762
:105170000020E7E74A024302F0B55C0A550A430003
:105180004A001B0EC60F120EC90FFF2B31D0FF2A8B
:1051900034D0002B16D1604260418446002A14D0DE
:1051A000002820D18E4217D1934215DC04DBAC429B
:1051B00012D80020AC4212D270427041404201230A
:1051C00018430CE0002AEDD194466F426F416046CF
:1051D000002805D1002FE5D0704201231843F0BD0F
:1051E0000020002FFBD14842484140420123184390
:1051F000F5E7002CCBD002204042F0E7002DC8D0CC
:10520000F9E7C0464A024302F0B55C0A550A43007A
:105210004A001B0EC60F120EC90FFF2B27D0FF2A04
:1052200029D0002B10D0002A15D194466F426F412F
:105230006046002815D00020002F04D14842484184
:10524000404201231843F0BD604260418446002A79
:10525000ECD00028F2D18E4211D0704201231843C5
:10526000F1E7002FF7D0704201231843EBE702204B
:10527000002CE8D1D3E70220002DE4D1D1E79342FE
:10528000EBDC04DBAC42E8D80020AC42DBD270425D
:105290007041404201231843D5E7C046F0B55F4650
:1052A00056464D464446F0B44402460083B00F1CB7
:1052B000640A360EC50F002E41D0FF2E22D0802367
:1052C0001B0400201C43E4007F3E82468046391CBC
:1052D0004B007F02C90F7F0A1B0E8B463BD0FF2B72
:1052E00034D0802212041743FF007F3B00215A462E
:1052F0006A40019252460A430F2A63D87A489200C4
:1053000082589746002C3FD10822022392469846A5
:10531000DDE70195404602282AD1019A0125154072
:10532000FF2300246402DB05600AED0718432843CD
:1053300003B03CBC90469946A246AB46F0BD002C5B
:1053400027D10420012282469046C0E7391C4A1E1C
:1053500091410231CBE70121002FC8D0381C00F069
:10536000A7FA431F9F4076235B421B1A0021BEE72A
:10537000032800D1AEE001284FD1019842461040E9
:10538000C5B200230024CDE70C2303209A468046B3
:105390009DE7201C00F08CFA7626431F9C40764245
:1053A0000023361A9A46984691E780240025E403A4
:1053B000FF23B7E75B463C1C01938846AAE73C1CE9
:1053C0008846A7E7250C24043A0C240C3F04F61861
:1053D0003F0C211C231C794353436F435543FB1857
:1053E0000A0C9B18B1469F4202D980225202AD1886
:1053F00009041A04090C521894011B0C611E8C41FB
:10540000920EED181443AD012C43230105D5012262
:1054100063080120144081441C434B467F33002B1A
:105420002DDD600704D00F222240042A00D004346E
:10543000220103D52D4B1C404B468033FE2B17DD3C
:10544000019B01251D400024FF236BE78020C00342
:10545000044208D0074206D1041C3C436402640A9B
:105460005D46FF235EE704436402640AFF2359E7B5
:105470000198A4010125640ADBB2054052E77E23AE
:105480005B424A469B1A1B2B05DD019B01251D40F3
:105490000024002346E7221CDA404B469E339C4002
:1054A000231C5C1EA3411343580704D00F221A404B
:1054B000042A00D004335A0105D5019B01251D4063
:1054C000002401232EE701989C010125640A054070
:1054D000002327E78027FF03019B3C43640201254B
:1054E0001D40640AFF231DE7E85D0000FFFFFFF792
:1054F000F8B5C20F430244004D024800240E161CAA
:105500009B09000EC90FAD09FF2800D17EE00127DD
:1055100079408A4258D0221A002A00DC89E000280B
:105520001BD1002D00D075E0580704D00F221A407F
:10553000042A00D00433590138D50134FF2C00D19E
:1055400083E09B0101225B0AE0B232405B02C405AA
:10555000580AD20720431043F8BDFF2CE4D0802125
:10556000C9040D431B2A00DD2DE1291C2020D14058
:10557000821A95406A1E95410D435B1B5801D3D595
:105580009B019F09381C00F093F9421F97409442F9
:1055900060DC141B1F231B1B3A1C9F40611C3B1C1F
:1055A000CA405F1EBB4113430024BDE70122DB0854
:1055B000E0B23240FF2C04D1002B7ED08021C90301
:1055C0000B435B025B0AC1E7211A002946DD002874
:1055D00026D0FF2CA8D08020C00405431B2900DD65
:1055E000EFE0281C2027C840791A8D40691E8D41A4
:1055F00005435B19590197D50134FF2C5CD07349E1
:1056000001221A400B405B0813438DE7002D00D0A8
:105610007FE77CE7013A002AAFD0FF2CA2D183E7D5
:10562000002D00D180E701390029E2D0FF2CD5D12F
:105630007AE7002A1ED1621CD2B2012A4EDD5F1B1E
:105640007A0126D5EF1A0E1C9CE701223240FF207A
:1056500000237BE75D4BA41A3B4065E7002946D158
:10566000611CC8B201282ADDFF2925D0EB185B0890
:105670000C1C59E7002C13D0FF2818D08024E40418
:10568000524223431B2A4DDD0123EB1A041C0E1C3E
:1056900074E7002F00D075E700220020002390E778
:1056A000002B3BD0D243002AEFD0FF28EAD12B1C9D
:1056B000FF240E1C38E70022FF20002346E7002CC1
:1056C0005AD1002B77D0002D00D12DE75B1958015E
:1056D00000D429E73D4A0124134025E7002C15D1C9
:1056E000002B2FD1002DD7D02B1C0E1C1CE7002C1B
:1056F00021D1002B53D0C943002904D0FF284BD01F
:105700001B294FDD01235B19041C73E7002B22D1F9
:10571000002DD0D02B1C0E1CFF2405E72B1C041CD5
:105720000E1C01E71C1C2026D440B21A93405A1EBE
:1057300093412343A9E7FF282ED08024E404494263
:105740002343DDE7002D00D1EEE65A1B500134D58E
:10575000EB1A0E1CE8E6FF24002D00D1E4E68022BF
:10576000DB08D203134204D0ED08154201D12B1CF3
:105770000E1CDB00FF24D7E6002B0DD0FF24002DEC
:1057800000D1D1E68022DB08D2031342F1D0ED082C
:105790001542EED12B1CECE72B1CFF24C4E62B1C7E
:1057A000041CC1E61C1C2027CC40791A8B40591ED2
:1057B0008B412343A7E72B1CB6E6131E00D0B3E6AC
:1057C0006AE7012515E70125D7E6C046FFFFFFFB85
:1057D0004302590A4300C20F1B0E00207E2B0DDD31
:1057E0009D2B0CDC802000040143952B0ADC9620C5
:1057F000C31AD9404842002A00D1081C7047034B05
:10580000D018FBE7963B9940F4E7C046FFFFFF7FC7
:1058100010B5041E33D000F04BF89E231B1A962BB4
:1058200009DC083884406402640ADBB26402DB05E8
:10583000600A184310BD992B0ADD0522121A211C9B
:10584000D1400A1C011C1B318C40611E8C41144349
:10585000052801DD421F9440144A2240610704D00C
:105860000F210C40042C00D0043251010AD59F2393
:10587000181AFF2816D09401640AC3B2D6E7002391
:105880000024D3E7D208FF2B03D05402640ADBB212
:10589000CCE7002A06D08024E40314436402640A9F
:1058A000FF23C3E7FF230024C0E7C046FFFFFFFB41
:1058B0001C2101231B04984201D3000C10391B0A40
:1058C000984201D3000A08391B09984201D3000904
:1058D000043902A2105C40187047C046040302025B
:1058E00001010101000000000000000008B5031CD8
:1058F000081C191C00F002F808BD000038B5051C92
:1059000005480C1C131C002804D00220291C221C52
:1059100000E000BF38BDC0460000000070B50E4B6F
:105920000E4D0024ED1AAD101E1CAC4204D0A30095
:10593000F35898470134F8E700F08CF8084B094D0C
:105940000024ED1AAD101E1CAC4204D0A300F35885
:1059500098470134F8E770BDEC000020EC0000200F
:10596000EC0000200801002008B5034B011C18685A
:1059700000F016F808BDC046E800002010B500236E
:10598000934203D0CC5CC4540133F9E710BD031C2F
:105990008218934202D019700133FAE77047000071
:1059A00030B5002940D004390B68002B00DAC91843
:1059B0001E4A1368141C002B02D14B60116033E0A7
:1059C00099420FD208680A189A4205D113685268A2
:1059D000C01808604A6000E04B60216024E08A4201
:1059E00003D8131C5A68002AF9D11D685C198C422F
:1059F0000BD10968691858181960904214D11468BD
:105A00005268091919605A600EE08C4202D90C23C1
:105A1000036009E008680C18944203D114685268C6
:105A2000001908604A60596030BDC046A8090020CE
:105A300002780B7801300131002A01D09A42F7D068
:105A4000D01A70470023C25C0133002AFBD1581ED4
:105A500070470000F8B5C046F8BC08BC9E467047C9
:105A6000F8B5C046F8BC08BC9E46704720202020F0
:105A700020202044657669636573203E00636F2EA5
:105A80006D6F64756C6F2E6B6E6F62004B6E6F6224
:105A900000636F2E6D6F64756C6F2E626C616E6B40
:105AA000736C61746500426C616E6B20536C617441
:105AB0006500636F2E6D6F64756C6F2E6A6F7973FE
:105AC0007469636B004A6F79737469636B00636F09
:105AD0002E6D6F64756C6F2E74656D7070726F6271
:105AE000650054656D702050726F626500636F2EA3
:105AF0006D6F64756C6F2E646973706C61790044AE
:105B00006973706C617900636F2E6D6F64756C6F73
:105B10002E6D6F746F72004D6F746F7220447269D6
:105B200076657200636F2E6D6F64756C6F2E69728F
:105B30000049522052656D6F74650049443A200057
:105B4000202020202020202020204E657874203E18
:105B5000004C656E677468206D61746368206572BF
:105B6000726F7200000000000000000000000000E2
:105B70004D2500007B2500007725000075250000DD
:105B800000000000000000001D2700003927000071
:105B9000772500004B270000FB290000F0FFFFFFE6
:105BA00000000000292A0000E1360000000000008B
:105BB00020202020204D4F44554C4F00FFFF000077
:105BC00000000000000000009B2F0000572F000085
:105BD000872F00007D2F0000912F00007B2F0000F9
:105BE0000D0A006E616E00696E66006F7666002EAB
:105BF00000000000000000000000000000000000A5
:105C00002D3D0000493E00000D3E0000993D000082
:105C1000013D0000013E0000413D00000000000089
:105C2000040309044D6F64756C6F204C616273004E
:105C300012011001EF020140D016580B00010102C1
:105C400003014D6F64756C6F20436F6E74726F6CDF
:105C50006C657200000000000200000001000000FE
:105C6000060000000000FFFFFFFF02000000000030
:105C70000300000001000000040000000100FFFF1D
:105C8000FFFF03000000000004000000040000000B
:105C90001C000000040000000000040000000000E0
:105CA00005000000040000001C00000005000100C9
:105CB00001000500000000000600000004000000D4
:105CC0001C000000060000010001040000000000AC
:105CD00007000000040000001C0000000700010194
:105CE0000101050000000000100000000400000099
:105CF0001C000000FF000002000200000000000085
:105D0000080000000200000000000000FF00FFFF8C
:105D1000FFFFFF000000000009000000020000007B
:105D200000000000FF00FFFFFFFFFF000000000079
:105D30001C0000000600000000000000FF00FFFF44
:105D4000FFFFFF0000000000180000000600000038
:105D500000000000FF00FFFFFFFFFF000000000049
:105D6000190000000600000000000000FF00FFFF17
:105D7000FFFFFF0000000000000000000000000026
:105D8000C54A0000E1360000A74A0000BB4A0000F7
:105D9000B14A00009D4A0000014C0000894A000001
:105DA000854A00000000000020500000D24F000093
:105DB000005000005A4F000000500000F64F000055
:105DC000005000005A4F0000D24F0000D24F000098
:105DD000F64F00005A4F0000524F0000524F000093
:105DE000524F000006500000C4530000BE53000094
:105DF000BE530000B45300001453000014530000BD
:105E0000AA530000B453000014530000AA5300002A
:105E100014530000B453000012530000125300004A
:105E2000125300004C54000043000000000000002A
:105E300000000000FF0000000900000040420F00C9
:105E4000FFFFFFFF080B0002020200000904000030
:105E500001020200000524001001042402060524AA
:105E60000600010524010101070581031000100946
:105E7000040100020A0000000705020240000007BA
:105E8000058302400000000000C20100000008007D
:105E900000000000830000000200000082000000FB
:105EA00000000000000000000000000000000000F2
:105EB00000000000000000000000000000000000E2
:105EC00000000000000000000000000000000000D2
:105ED0000000000000000000285E0000000000003C
:105EE00000000000000000000000000000000000B2
:105EF00000000000000000000000000000000000A2
:105F00000000000000000000000000000000000091
:105F1000000000000000000088000020D9200000E0
:105F2000FD220000012C0000D5310000293F0000B7
:105F3000C1480000454A0000B120000000000000F8
:00000001FF
