:10200000B03D002075590000715900007159000061
:1020100000000000000000000000000000000000C0
:1020200000000000000000000000000071590000E6
:10203000000000000000000071590000B1360000EF
:102040007159000071590000715900007159000068
:10205000715900007159000071590000B55300001A
:10206000C5530000D5530000E553000000000000F8
:102070000000000071590000715900007159000002
:1020800071590000715900007159000000000000F2
:1020900000000000715900007159000071590000E2
:1020A0007159000010B5064C2378002B07D1054B61
:1020B000002B02D0044800E000BF0123237010BDB4
:1020C0006C040020000000008095000008B5084B5B
:1020D000002B03D00748084900E000BF0748036809
:1020E000002B03D0064B002B00D0984708BDC046FC
:1020F0000000000080950000700400208095000022
:1021000000000000F8B5041C1E1C637001704260E2
:1021100000200A4B9847A070012E0DDD01250023F9
:10212000064FA0786268D15CB847A0706A1CB242C2
:1021300002DA2B1C151CF4E7201CF8BD6D210000F1
:1021400010B542684378D11801390C7881788C42F7
:1021500000D0C0460020022B07D9033B527893429F
:1021600003D1601A41424841C0B210BD4840082323
:10217000072142B2002A04DA4000C0B24840C0B28F
:1021800001E04000C0B2013BDBB2002BF1D170474F
:1021900008B5011C0920064B98470020054B9847BD
:1021A000054B9847054B98470022054B1A7008BD10
:1021B0003D4A0000454B0000D1370000D1480000E7
:1021C0008804002008B50E4B1B78012B08D0002B8B
:1021D00002D0022B08D011E000200A4B98470DE0F6
:1021E0000120084B984709E0074B9847FA2149001E
:1021F000064B984701231840024B984708BDC0463C
:102200008804002031490000A5360000796D0000E7
:10221000F0B54F464646C0B487B0051C0E1C141CD2
:1022200098460F7802A8291C321C231CC84CA047D2
:1022300002A8C84B9847002800D1DDE00022C64B19
:102240005A7002AB1B78092B00D0D2E003990B78AF
:102250000A2B00D9D0E09B00C04AD3589F4602AB5E
:102260005B78032B00D9C7E00020BD4B98470022C4
:10227000B94B1A70BB4B9847BEE0BB4B9847002840
:1022800000D0B9E002AB5B78052B00D0B4E06C461F
:10229000063403990231201C0222B44B984724884B
:1022A000B34B9847A04200D2A6E00122AA4B5A7035
:1022B000A2E002AB5B78062B00D09DE06C460634B2
:1022C0000231201C0222A94B98472488A84B98472A
:1022D000A04200D090E002AB5B780020042B01D933
:1022E000039908799E4B984786E002AB5B78052BF3
:1022F00000D081E06C4606340231201C02229B4B48
:10230000984724889A4B9847A04275D10122924B56
:102310005A7071E002AB5B78062B6DD16C460634C7
:102320000231201C0222914B98472488904B9847F9
:10233000A04261D102AB5A780023042A01D9039A42
:102340001379854A137057E08349881C0431894BFF
:102350009847002850D001227F4B5A704CE002ABC6
:102360005B78082B48D16C4606340331201C0222CE
:102370007E4B984724887E4B9847A0423CD102ABC5
:102380005B780024022B01D903998C780021062B5D
:102390000AD906226A44914603990531101C02228B
:1023A000724B98474B461988201C734B984723E083
:1023B00002AB5B78072B1FD16C4606340231201C20
:1023C00002226A4B98472488694B9847A04213D150
:1023D00002AB5B780020052B08D96C4606340399C4
:1023E0000431201C0222614B98472088634B984798
:1023F00002E002A8624B984702AC6570002262724C
:102400002270666041462172092D00D099E0524B3E
:102410005B780020002B00D1E0E0072F00D9B9E065
:10242000BF00584BDB599F46514B9847031200029F
:1024300018436B46D88002AB1878821C1B7A013B8C
:102440009A4200D3AAE002AC039A101869460631FA
:102450000222464B98472378023323709EE0424B7A
:10246000984702AB1A78511C1B7A013B994200D362
:1024700094E002AB039FB8541A7801321A708DE0D1
:102480000024414EE0B2B047011C02AB1A78571C41
:102490001B7A013B9F4205D202AB039FB8541A78C6
:1024A00001321A70002979D00134202CEAD175E06C
:1024B000364B98476B46D88202AB1878821C1B7A41
:1024C000013B9A426AD202AC039908186946163158
:1024D0000222264B98472378023323705EE043465E
:1024E000013B012B05D91C4B9B783370012202ABB9
:1024F0001A701F4B984705AB188002AB1878821CE6
:102500001B7A013B9A4209D202AC039A101805A922
:102510000222164B984723780233237002AB1878B7
:10252000821C1B7A013B9A4238D202AC039B1818DA
:102530000949043102220D4B984723780233237056
:102540002CE0381C02A9124B9847031C23E0C0461C
:10255000052100004121000088040020488D000072
:10256000454B0000D1480000514B0000AD8B0000EE
:10257000D1370000E94600001D470000E5370000A4
:1025800041450000748D00003138000061380000C2
:102590001D46000000230020002B1FD00020291C16
:1025A000114B984702AB1B78002B09DD00240E4E1F
:1025B00002AD039F395DB04701342B789C42F7DBB5
:1025C0005A1C02A9097A01398A4205D202AA039942
:1025D000C85413780133137002AB187807B00CBCE1
:1025E00090469946F0BDC0466D210000F0B55F46AB
:1025F00056464D464446F0B409AC0026A55F0AACE9
:102600002488A346AF1AFE17BC197440A4465E1A6C
:10261000F717F6197E400124B44500DC0024A4B26B
:10262000A146002C05D01C1C2B1C251C0C1C111CAD
:10263000221C994205DD141C2A1C251C0C1C191C8B
:10264000231C5C1AA4B2A446AE1AF41736196640CD
:10265000644627B2FC0FA04647447C10A4B2AA42AD
:1026600002DA0125A84601E02D4FB8464D46002D5F
:1026700028D0CD43ED17294009B21D1C3F2B00DDAA
:102680003F252FB2BA46B94244DC95B25F2D08D837
:102690004B005B185B019B1808335B00C3185F4657
:1026A0009F80A41BA3B29CB227B2002F05DA444638
:1026B0002A1912B265465C19A4B2013109B28A45E1
:1026C000E3DA27E0CD43ED17294009B21D1C5F2B4B
:1026D00000DD5F252FB2BA46B9421BDC95B23F2D13
:1026E00008D853009B185B015B1808335B00C318C4
:1026F0005F469F80A41BA3B29CB227B2002F05DACD
:1027000044462A1912B265465C19A4B2013109B2D5
:102710008A45E3DA3CBC90469946A246AB46F0BDFA
:10272000FFFF0000F0B54F464646C0B483B0041C1E
:102730000F1C151C99460AAB0022995E88460BAB0C
:102740001E880368009699688C46391C2A1C4B46E3
:10275000E04723684246013A521912B2009699683E
:102760008C46201C391C4B46E047236800965A686B
:102770009446201C391C2A1C4346E04723684946DE
:102780000139CF1939B200965E68201C2A1C4346D5
:10279000B04703B00CBC90469946F0BD30B583B04D
:1027A0000C1C06A90D880168013B9B181BB2009305
:1027B00001950D68211C231CA84703B030BDC046FD
:1027C00030B583B006AC25880468013B5B181BB2AA
:1027D000009201952468A04703B030BDF0B505AC68
:1027E0000025645F06AD2D88CE43F6170E40CB184A
:1027F000602B00DD6023D743FF1717401419402CCE
:1028000000DD40249E4215DA7A00D2195201B21836
:102810000A325200801808E00D800132C031A24215
:10282000FAD101360230B34204DDA742F9DA011CC5
:102830003A1CF1E7F0BDC04630B583B0026804240D
:10284000035F0625445F0094019114690021002272
:10285000A04703B030BDC0467047C046094B08339F
:102860000360602383804023C3800023437403817B
:1028700043810123037401225242C2818281837405
:102880007047C046988D00000278D20892014378C4
:102890009B101A4352018378DB10101C18437047B9
:1028A000F0B55F4656464D464446F0B489B00490B4
:1028B00012A8008805909CB20120001B80B2E5039D
:1028C0002D1B6D00ADB2069595B203958EB20296A2
:1028D0005F2E00D993E16519ADB23F2D00D975E1A6
:1028E0002DB26E0075196D016D1808356D00049FCD
:1028F0007D19059EAE8069E12DB26E0075196D01DE
:10290000691808314900049F7918059D8D8076E18A
:10291000039E3F2E25D82DB251008918490149192F
:1029200008314900049F7918059D8D80029E341B53
:10293000A4B25F2C15D8A4B208E0029F3C1BA4B23D
:102940005F2C0ED803993F290BD8A4B224B25100B2
:102950008A185201121908325200049DAA18059EC5
:102960009680002B00DC67E1039A013A92B293460D
:10297000039E0136B6B2029C0134A4B2029A013A17
:1029800092B20025009301B200290ADB009B013BB3
:1029900019B200910699023189B28BB206930818D8
:1029A00080B20135ADB269000131401880B2A7B2E2
:1029B000B946009B99B2039FCB199BB29FB2BC460C
:1029C0005F2C20D83BB2002B00DA06E13BB23F2B54
:1029D00000DD05E14F463BB267463FB2B8467F0097
:1029E000BA46D04447467F01B8461F1C47440837C3
:1029F0007B00049FFB18059F9F8093B298465F2A37
:102A000000D90AE106E097B2B8465F2A4CD83F2BBE
:102A100000D9FBE047463BB267463FB2BC467F0069
:102A2000BA46D44467467F01BC461F1C674408373A
:102A30007B00049FFB18059F9F80039F7B1A9BB21E
:102A40009C469BB207935F2C19D867463F2F2BD823
:102A50004B461BB29946079F3FB2BC467F00BA4621
:102A6000D44463465B019C464F46674408377B006D
:102A7000049FFB18059F9F805F2A15D804E05F2AFA
:102A800012D863463F2B0FD847463FB2B846079F40
:102A90003BB25F00BC4663445F01474408377B009C
:102AA000049FFB18059F9F80029FCB199BB29C46F9
:102AB0009BB29946B7B2B84663465F2B22D83BB269
:102AC000002B00DA8FE03BB23F2B00DD91E04B465C
:102AD0001BB201933FB2BA467B009A4453465B0156
:102AE0009A46019F574408377B00049FFB18059FB7
:102AF0009F80029B591A89B28FB2BA465F2900D9CA
:102B000096E009E0029B591A89B28FB2BA465F2952
:102B10004CD83F2E00D987E053461BB2019347465D
:102B20003FB2B8467B00984443465B019846019FFC
:102B3000474408377B00049FFB18059F9F805B4636
:102B40009BB2079367465F2F1CD85B463F2B2DD85F
:102B50004F463FB2B946079B1BB29C465B00984666
:102B6000C44467467F01BC46CC4408239C44674666
:102B70007F00BC46049FBC44059F63469F805F293D
:102B800014D804E05F2911D859463F290ED853467E
:102B900019B2079B1FB27B009C4667447F017918DE
:102BA00008314900049F7918059B8B8059460139EB
:102BB00089B28B460136B6B20134A4B2013A92B260
:102BC00029B2009B8B4200DDDDE635E0039E351B1C
:102BD000ADB23F2D00D88FE611E097B2B8461CE0A9
:102BE00093B2984619E0029F791A89B28BB29A463D
:102BF0001EE0029F791A89B28BB29A4618E0029EB3
:102C0000A519ADB25F2D00D997E681E6039B5F1A47
:102C1000BFB2BC46BFB2079733E7039B5F1ABFB290
:102C2000BC46BFB2079710E7594689B20791ABE798
:102C30005B469BB2079388E709B03CBC9046994637
:102C4000A246AB46F0BDC046F0B55F4656464D467F
:102C50004446F0B48BB008900D1C14A9097815A84F
:102C6000008809909CB20120001B80B2E603341B4F
:102C70006400A4B2A046002B00DC11E1ADB2AC466A
:102C8000013DADB292B29346171C013FBFB2161C74
:102C90000136B6B264460134A4B200229246042240
:102CA0000A40049202220A40059208220A40069233
:102CB00001220A4007920196524601B2002908DB20
:102CC000013B1BB2414602318EB2B1B28846301888
:102CD00080B2013292B251000131401880B2049E9C
:102CE000002E2ED099B289465F2C13D85E464E44F2
:102CF000B6B23F2E0ED831B28A464E00B244564686
:102D00007601B24621B2514408314E0008998E191D
:102D10000999B1804E466644B6B25F2E11D801992A
:102D20003F290ED831B2894601990EB271008A4608
:102D300056447101494408314E0008998E19099989
:102D4000B180059E002E2CD099B289465F2C13D8F5
:102D50005E46761AB1B23F290ED80EB2B246710065
:102D60008A44514649018A4621B2514408314900FA
:102D7000089E7118099E8E804946614489B25F2978
:102D80000FD83F2F0DD80EB2B14639B24E00B24621
:102D900051444901494408314900089E7118099E6F
:102DA0008E800699002935D09EB202966146891B15
:102DB0008EB25F2E16D801993F2913D836B2B2468B
:102DC00009B2894649008944494649018946D144A6
:102DD0000826B144494649008946089EB144099EE7
:102DE00049468E805F2D15D8029E311C594489B208
:102DF0003F290FD80EB2B1467600B246D1444946BB
:102E00004901894629B2494408314900089E711890
:102E1000099E8E800799002934D09EB202966146A1
:102E2000891B8EB25F2E15D83F2F13D831B28A4638
:102E30003EB2B14671008944494649018946D144B0
:102E40000826B144494649008946089EB144099E76
:102E500049468E805F2D15D85946029E891B89B23E
:102E60003F290FD80EB2B1467600B246D14449464A
:102E70004901894629B2494408314900089E711820
:102E8000099E8E80013DADB2013FBFB2019E013669
:102E9000B6B201960134A4B211B28B4200DD0CE748
:102EA0000BB03CBC90469946A246AB46F0BDC0462E
:102EB000F0B55F4656464D464446F0B48BB080466A
:102EC00009921F1C14AB1A7815AB00201D5E16ABBF
:102ED0001B880593BBB20124E41AA4B2D803C31A19
:102EE0005B009BB20493002F00DC83E0ADB2AB46E5
:102EF0002E1C0336B6B2012501231340079389B275
:102F0000069102231340089323B2002B08DB013FF4
:102F10003FB2049B02339BB299B204911C19A4B234
:102F2000AAB291465846331AE418A4B20799002968
:102F30002AD0099B9AB2BBB20698411908B20290F6
:102F400003929A46D21A12B25946013158000B1810
:102F50001BB2059900914046016848688446404686
:102F60000299E047069A111C514409B2039B5A1B6F
:102F700012B233B203930598009043461868436831
:102F80009C464046039BE047089900292AD0099BAC
:102F90009AB2BBB20698411B08B2029003929A46BD
:102FA000D21A12B25946013158000B181BB20599BA
:102FB0000091404601684868844640460299E047CF
:102FC000069A5346D11A09B20398421B12B233B281
:102FD0000393059800904346186843689C46404612
:102FE000039BE0470135ADB20236B6B249460BB29B
:102FF0009F4289DC0BB03CBC90469946A246AB464A
:10300000F0BDC046F0B5474680B484B0041C0F1C28
:10301000161C1D1C0AAB1B889846ABB20168D21A5D
:1030200012B25B0001331BB24046009048688446F0
:10303000201C391CE04703230093002301934346DF
:103040000293201C391C321C2B1C034CA04704B0DB
:1030500004BC9046F0BDC046B12E0000F0B55F46FE
:1030600056464D464446F0B489B0041C8946924603
:1030700012AA0021505E834613AA0026975F14AA65
:103080001588484686B2B9B2029171180298C203F7
:10309000121A520092B204929BB20593D21823687E
:1030A00008B2804611B2079100959A689446201C98
:1030B00041465246079BE04753469BB29A465846C4
:1030C00080B283465B44013B9BB20693236806981B
:1030D00002B2009599688C46201C4146079BE04748
:1030E000029A111C5144049B1A1C5A44236808B2CA
:1030F000824611B28B4600955A689446201C494678
:1031000052465B46E047059833189BB299462368C0
:103110004946013909B200955A689446201C524626
:103120005B46E047012300930195201C414652462F
:103130003B1C154EB346B047029EF3434B4418B2B6
:103140008146022300930195201C494652463B1CB0
:10315000D8470699029A8E1A36B204230093019535
:10316000201C4946321C3B1CD8470823009301957C
:10317000201C4146321C3B1CD84709B03CBC904641
:103180009946A246AB46F0BD492C0000F0B55F461B
:1031900056464D464446F0B487B0051C934610AAE7
:1031A0000024105F824611AA0020165E12AA17881A
:1031B00089B20491B4B20919E203121B520092B20F
:1031C00091469BB205932A680BB298460598031C5A
:1031D0004B441BB251460091019710698446281C4C
:1031E00041465A46E047594662185346013B4B4414
:1031F00005990139049841180C1B21B214B2A34659
:103200000122009218B2814601900297281C221CCC
:10321000331C094CA04702230093494601910297B1
:10322000281C41465A46331CA04707B03CBC904678
:103230009946A246AB46F0BDB12E0000F0B55F4600
:1032400056464D464446F0B483B0041C0E1C9146CD
:103250009B460CAB0022995E8A460DAB0022995E1C
:1032600088460EAB00215F5E0FAB1D880368524697
:103270000092019519688C46311C4A465B46E0472E
:103280002368009701951A689446201C59465246B7
:103290004346E04723684946009101951D68201C7C
:1032A00041463A1C331CA84703B03CBC90469946A3
:1032B000A246AB46F0BDC046F0B55F4656464D4609
:1032C0004446F0B48FB0051C039218AA0024105F86
:1032D000834619AA0026925F1AA80026845F0694E6
:1032E0001BA800880590039C5C4506DD201C5C46FD
:1032F00003948346081C191C031C069EB34505DD78
:103300005846B3460690181C131C021C039E5E45CB
:1033100006DD301C5E4603968346081C191C031C00
:10332000039C069EB4421BD1994205DC181C8B42BB
:1033300000DA081C0B1C01B29A4205DB081C914202
:1033400000DA101C01B21A1C28684B1C9B1A1BB215
:10335000059C00948468281C111C039AA047A4E0D3
:103360009BB2079389B28A465B1A9BB208935E466A
:10337000B3B2039CA0B21E1AB6B292B2511A89B26D
:103380000491069CA1B2081A80B20B90079C121BF4
:1033900092B20C92C91A89B20D91069CA34503D032
:1033A000013B1CB2029401E05C460294039C02982B
:1033B000844236DC0021002732B209923E4B994606
:1033C0000B9E36B20A962B1C0D1C9846381C099988
:1033D000C84751460E18B6B2281C0A99C84752462B
:1033E00013189BB2089802B2BF1804990AB2AD181C
:1033F00031B21AB2914202DC1A1C331C161C404630
:10340000026819B20136F31A1BB2059E009696683F
:10341000221CB047013424B2029EA642D6DA4546A9
:1034200000E0039C0C9E36B202965846271A77435A
:10343000049E36B2B346039EA31B584658438046AB
:10344000069EA64231DB0D9E36B203961A4881468F
:103450000B9E36B204962B1C45469846381C0399A1
:10346000C84707990E18B6B2281C0499C847524697
:1034700013189BB202983F185D4431B21AB29142C0
:1034800002DC1A1C331C161C41460A6819B20136AC
:10349000F31A1BB2059E009696684046221CB04760
:1034A000013424B2069EA642D8DA0FB03CBC904646
:1034B0009946A246AB46F0BD156E0000F0B55F46DA
:1034C00056464D464446F0B48DB08046089116A944
:1034D00009880691007C824640460421415E089896
:1034E000814277DD40460621415E914272DD5046C1
:1034F000039041005144490008984118012969D4BA
:103500005046C1005118012964D49900CB180621F6
:103510000591002081463349CB180B93574692B250
:103520000992131C08339BB29B4604974846052812
:103530003DD043B20B99CB1828331D7838E0EA0709
:1035400023D5039B012B10D150465F281DD83F2C5B
:103550001BD823B25A00D3185B010A995B180833B1
:103560005B004344069A9A800FE0079B19B232B27F
:103570000292049803B20093069A019240460268B0
:10358000106984464046029AE0476D08F619B6B2C3
:103590000134A4B25C45D2D14B460133DBB299462B
:1035A000059B013BDBB20593002BBFD112E0002548
:1035B0004B465AB292B2089883B2049951435918B3
:1035C00089B20791099E341CD3189BB29A4619B24E
:1035D0000A91B4E70DB03CBC90469946A246AB4672
:1035E000F0BDC046988D000030B583B0041C0B1EA2
:1035F0000A2B07D1037CDB0042899B1843810023FF
:10360000038126E00D2924D00820215E0A20225EB5
:10361000A0890090E0890190201C0F4DA847237CD1
:103620005A009A1852002189521892B22281A17C24
:1036300000290ED012B20421605E9900591A490087
:1036400041188A4205DDDB0062899B1863810023F3
:10365000238103B030BDC046BD3400000B1E00D135
:10366000012303747047C0460423C05E7047C04600
:103670000623C05E7047C046074B084A5A60084A96
:10368000106A0002000AC0210906014311620022EB
:103690009A6007221A60704710E000E03F1F0000A8
:1036A00000ED00E0014B18687047C046940400200C
:1036B000024B1A6801321A607047C0469404002019
:1036C00080B586B000AF264B1A683B1C1A60254BAC
:1036D0001A683B1C5A60244B1A683B1C9A60234BA7
:1036E0001A683B1CDA603B1C163300221A80002348
:1036F0003B611BE03B1C3A699200D35899B23B1CDA
:1037000016333A1C163212884A401A803B1C3A691A
:103710009200D3581B0C99B23B1C16333A1C16323C
:1037200012884A401A803B6901333B613B69032B95
:10373000E0DD3B1C16331B88002B05D03B1C1633E9
:103740001A880B4B9A4203D13B1C163301221A8074
:103750003B1C16331B88181CBD4606B080BDC046F6
:103760000CA0800040A0800044A0800048A0800001
:10377000FFFF000080B500AF0F4A104B111C1A1C50
:103780002423081C111C1A1C0D4B98470A4B1A883D
:103790000C4B9A4203D0084B1B88002B06D10A4BD6
:1037A0009847031C1A1C094B1A8003E0024B1A8825
:1037B000064B1A80BD4680BD0000002000FF0100BE
:1037C000AD8B0000FFFF0000C13600002400002088
:1037D00080B500AF024B1B88181CBD4680BDC0469B
:1037E0002400002080B582B000AF021CBB1D1A80EF
:1037F0000A4BBA1D12881A80094BBA1D12881A800A
:10380000084B181C084B9847064A054B101C191CFE
:103810002422064B9847BD4602B080BD24000020FC
:103820000000002000FF010059400000B93F0000E7
:1038300080B582B000AF021CFB1D1A70FB1D1B7807
:103840001F2B05D8FB1D1B78044AD3181B7900E0F9
:103850000023181CBD4602B080BDC04600000020F9
:1038600080B500AF024B5B88181CBD4680BDC046CA
:10387000000000200160FF23037143718371C37155
:10388000037243728372C372037343738373C3738C
:1038900000238322D2008352034A8352034A835275
:1038A0000122034BC25470471A0400001C0400009C
:1038B0001E040000F0B557464E464546E0B4041CD1
:1038C0000F1C234B98478323DB00E15A89B27A7897
:1038D0000023022A01D9D31EDBB2CB181D4A934222
:1038E0002BDC002300211C48FF2290468322D200BB
:1038F00094461AE0255AADB2A94646461E40F51C2C
:10390000AA460D1C924502D87A689619B5784E469B
:10391000A2191576225A01329205920D225265465D
:10392000625B013292B2625301337A780D1C022A33
:1039300001D9D51EEDB2AB42DCDB0022074BE254CD
:10394000074B98471CBC90469946A246F0BDC0461E
:103950009D4B0000FF0300001A0400001E0400003D
:10396000DD4B000038B5041C8323DB00C35A9BB237
:103970000020002B13D00A4B98470A4BE25AA2189A
:10398000157E8322D200A15A013989B2A152E25A8E
:1039900001329205920DE252034B9847281C38BD24
:1039A0009D4B00001C040000DD4B0000F0B55F469D
:1039B00056464D464446F0B489B0041C8323DB00D0
:1039C000C35A9BB2002B00D151E2E44B98470C281C
:1039D00000D943E28000E24B1B589F4620680368F1
:1039E0005B6900219847FF2323716371A371E37121
:1039F00023726372A372E37223736373A373E3731B
:103A000020680121D74B984700232361636125E299
:103A10002068D54B9847071C2068D44B9847061C54
:103A200025681435201CCD4B9847FFB2F1B2431ED8
:103A30009841C3B2381C2A1CCD4DA8470EE222681B
:103A4000914613685E69B24606AB00221A705A703E
:103A50009A70DA7000250026C04FB8461F1C201C43
:103A6000C047B85501352E1E042EF8D106AB1B7881
:103A70006A46557E6A46917E1A320132127807A84C
:103A800003706B465D776B4699776B46DA77B94B77
:103A90009847011C4846D047E0E106AB00221A7067
:103AA0005A709A70DA7000250026AC4A90461F1CA6
:103AB000201CC047B85501352E1E042EF8D106AB88
:103AC00018786B46597E6B469A7E1A3301331B7801
:103AD00020716171A271E371C0E106AB00221A701E
:103AE0005A709A70DA70002500269C4B984606AFF3
:103AF000201CC047B85501352E1E042EF8D106AB48
:103B000018786B46597E6B469A7E1A3301331B78C0
:103B100020726172A272E372A0E106AB00221A70F9
:103B20005A709A70DA70002500268C4FB8461F1C18
:103B3000201CC047B85501352E1E042EF8D106AB07
:103B400018786B46597E6B469A7E1A3301331B7880
:103B500020736173A273E37380E1E379002B00D1DA
:103B60007CE1266833681A689346201C7B4DA84781
:103B70008246201CA8478146201CA8478046201C5E
:103B8000A847051C201D7B4B9847534619B24F464A
:103B90003AB247463BB22DB200950190301CD8474F
:103BA0005CE1201C6D4DA847C0B28146201CA8478F
:103BB000C0B28046201CA847071C201CA84783468B
:103BC000201CA847051CE37A002B35D000281AD00A
:103BD00022689246201C0830664B98474B4659B2E3
:103BE00009B2464672B212B23EB25B461BB20093B5
:103BF0002BB2019302905046331C5F4EB047E379DD
:103C0000002B1FD12AE125682B681A699246201CD7
:103C10000830584B98474B4659B209B2464672B2E3
:103C200012B23BB25E4636B200960190281CD047D5
:103C3000E379002B1CD111E1E379002B00D10DE1D8
:103C4000002815D0201C04C892464A4B98474B4682
:103C500059B209B2464672B212B23BB25F463EB2A8
:103C600000962DB2019502905046444DA847F5E0CC
:103C7000201C20C82A68D3689A463E4B98474E4677
:103C800071B209B243465AB212B23BB25F463EB27B
:103C900000960190281CD047E0E0201C2F4DA8473B
:103CA0008046201CA847071C201CA847061CE57A54
:103CB000002D0CD02568201C08302E4B984742461A
:103CC00011B23AB233B20090281C2D4DA847E579C5
:103CD000002D00D1C2E0201C20C8264B9847434647
:103CE00019B23AB233B20090281C264DA847B5E06D
:103CF000201C1A4B9847051E00D1AFE0174E0A2D25
:103D000002D00D2D25D008E025682B7CDB006769EB
:103D1000FB186361002323611BE02768228A934616
:103D2000A38A9A46201C0C30124A90475B4619B26F
:103D300053461AB2009000230193381C2B1C124DDD
:103D4000A84727683B7C5A00D3185B002269D31828
:103D50002361201CB047051ED1D17FE065390000EA
:103D6000C09200005D360000693600007136000028
:103D7000AD400000892800008D3100005D3000005A
:103D800005300000A1280000BD340000201C3B4D80
:103D9000A847C0B28246201CA847C0B28146201C5A
:103DA000A847C0B28046201CA847C7B2201CA8471D
:103DB000C6B2201CA847C0B20590E37A002B1DD0E4
:103DC00023689B46201C08302D4B9847554669B206
:103DD00009B24B465AB212B243465DB22DB27BB223
:103DE0001BB2009373B21BB20193059B5BB21BB273
:103DF0000293039058462B1C224DA847E379002BD1
:103E00002CD0201C04C893461D4B9847534659B2EA
:103E100009B24D466AB212B245466BB21BB27FB2CE
:103E20003FB2009776B236B20196059E75B22DB2BA
:103E3000029503905846144DA8470FE0201C0F4DE3
:103E4000A8472061201CA847606107E02568201C66
:103E50000A4B9847011C281C0C4B98478323DB0016
:103E6000E25A92B253425A41D2B2094BE25409B0DB
:103E70003CBC90469946A246AB46F0BD6539000071
:103E800089280000B93200003D3200005D36000094
:103E90001E040000014BC05CC0B270471E0400004D
:103EA0008323DB00C35A8020C000C01A80B2704751
:103EB00010B5021C1C4BD86904210143D9611B4B6E
:103EC000188B2021FF31014319831B7D0520D90761
:103ED00028D511780902C0239B0019405378DB01D3
:103EE000FF2003401943D3789B04194393785B0068
:103EF0001E200340194310790004C0239B02034095
:103F000019430A4B596098684003400F0849082438
:103F100084400C809868488052780A71188BC005DC
:103F2000C00F000110BDC046000400400040004129
:103F3000A004002030B51D4B5A881B885A43182313
:103F40008A4231D31A4B5C688022D20222435A60E3
:103F50001D8B2022FF322A431A831A7D0523D507A1
:103F600022D545281FD88300124AD3589F46104BAC
:103F70001A8B1023D50517D4890849000C4BD96139
:103F800003E0890849000A4BD961A5231B021843A5
:103F9000074B1880191C01220B7D1342FCD0044BE7
:103FA0005C60002300E01723181C30BDA004002033
:103FB00000400041F4920000F8B5051C224B1C881B
:103FC0005B8863431820AB423DD3631E2B423AD13A
:103FD0001720944237D31D4B1B7D0520DC0732D5BB
:103FE0001B481A4B18801C1C0120237D0342FCD067
:103FF000164B1C8B2020FF30204318836808002AB2
:104000001CD040000023561ECC5CB34203DACF180C
:104010007F783F023C43048002339BB202309A42D5
:10402000F2D8094B1B790020002B0CD13F2A0AD86B
:104030000420291C0022074B984704E0024B1B79FF
:1040400000208342F4D0F8BDA004002000400041CD
:1040500044A5FFFF353F0000114B1A885988514392
:104060001823814219D39200013A104215D10D4B09
:104070001A7D0523D10710D50A4B198B2022FF3258
:104080000A431A8380084000D861074A1A80191C25
:1040900001220B7D1342FCD00023181C7047C04640
:1040A000A00400200040004102A5FFFFF0B54F46EC
:1040B0004646C0B49C46684C8027FF006761674E47
:1040C00066611523A3618025AD00A56166610023AB
:1040D0009946A361A5616661431EDBB2A361A56138
:1040E00066617523A361A56166614B46A361A56105
:1040F00066614B1EDBB2A361A561A7616346002B1D
:1041000053D04843400080460F2800DC9FE0102138
:104110000027231C351C8024A400D61970785D610B
:1041200098619C61D75D5D619F619C61F7785D617D
:104130009F619C61B7785D619F619C6177795D61EA
:104140009F619C6137795D619F619C61F7795D61D9
:104150009F619C61B7795D619F619C61777A5D61C8
:104160009F619C61377A5D619F619C61F77A5D61B7
:104170009F619C61B77A5D619F619C61777B5D61A6
:104180009F619C61377B5D619F619C61F77B5D6195
:104190009F619C61B67B5D619E619C610E1C1036C7
:1041A000464554DC0F1C311CB7E748430838400033
:1041B0004DD41118151C103D4519000900012D1A88
:1041C000254B264880229200CC7B58619C619A61E5
:1041D0008C7B58619C619A614C7B58619C619A61AF
:1041E0000C7B58619C619A61CC7A58619C619A61A0
:1041F0008C7A58619C619A614C7A58619C619A6191
:104200000C7A58619C619A61CC7958619C619A6181
:104210008C7958619C619A614C7958619C619A6172
:104220000C7958619C619A61CC7858619C619A6163
:104230008C7858619C619A614C7858619C619A6154
:104240000C7858619C619A611039A942BCD10CBCB0
:1042500090469946F0BDC04600440041FF42000030
:10426000F0B55F4656464D464446F0B483B001AEC5
:104270000122904672700027B77032701820311CEE
:104280007F4CA0470920311CA0470A20311CA047C1
:104290000B20311CA0470E20311CA0471120311CDF
:1042A000A0471020311CA047764C80231B0163617E
:1042B00080225204A2618025AD00A5618022920275
:1042C000A26180225202A261A36142463270201C88
:1042D000FF21321C6C4B98478023DB0063616B4BE2
:1042E0006361AE22A261A5616361A022A261A561A2
:1042F00063617222A261A5616361A122A261A561CD
:104300006361A761A5616361A222A261A561636186
:10431000A761A5616361A422A261A5616361A8226E
:10432000A261A56163613F22A261A5616361AD22C3
:10433000A261A56163618E22A261A5616361B02261
:10434000A261A56163610B21A161A5616361B322D3
:10435000A261A5616361F022A261A5616361B122DE
:10436000A261A56163613122A261A5616361BB2283
:10437000A261A56163613022A261A56163618A22A5
:10438000A261A56163618022A261A56163618B2046
:10439000A061A5616361A261A56163618C20A061D8
:1043A000A5616361A261A5616361BE22A261A5618D
:1043B00063613E22A261A56163618722A261A5615A
:1043C0006361A161A56163618122A261A5616361ED
:1043D000FF22A261A56163618222A261A56163617E
:1043E0008D22A261A56163618322A261A5616361DF
:1043F000ED22A261A5616361B823A361A5610023D9
:104400009846234CA246194F174E4046D047214AA2
:104410009346174A174BD847174A184B1E4CA047CC
:10442000184A1A4B141C5361321C3B1CD8471B4BB7
:104430009847C0B2A06180239B00A36101229044F1
:104440004346202BE1D1114A6261AF22A261802252
:104450009200A26103B03CBC90469946A246AB468E
:10446000F0BDC046C046C0460000000000C05F402E
:10447000000000000000A03F000000000000F83F26
:104480000D4C000000440041314C0000FF42000090
:10449000A18A0000B17E0000195A0000596F000087
:1044A000002804D08022D200074B9A6103E08022CA
:1044B000D200054B5A61044B044A5A61996180222B
:1044C00092009A617047C04600440041FF420000DC
:1044D0000F280DD8074B8022D2005A610649596136
:1044E00087229A61802292009A61596198619A614B
:1044F0007047C04600440041FF42000030B50E4BFB
:104500008024E4005C610D4D5D6181249C61802408
:10451000A4009C615D619A619C615D6182229A61E7
:104520009C615D6199619C615D6183229A619C617E
:104530005D6198619C6130BD00440041FF42000014
:10454000F8B54F464646C0B4041C43681A78072A9B
:104550004FD892002B498A58974601204EE02A48AE
:10456000211C2A4B9847012048E043780020022B69
:1045700001D9D81EC0B243425841C0B23EE0437890
:104580000020042B3AD901250026FF229046204B1B
:10459000994611E06268907800E0301C421E90411C
:1045A000C0B242462A40D71C311C9F4202D86368E1
:1045B0009A189178C84701356378022B1BD9DA1E07
:1045C000D2B29542E6DB012018E042780020042AAE
:1045D00014D198780F4B984701200FE042780020C3
:1045E000062A0BD19878D9781A790B4B9847012075
:1045F00004E0002002E0002DCFDB01200CBC90463F
:104600009946F8BD0C940000A8040020B5380000BD
:10461000A1440000D1440000FD44000030B583B047
:104620000C1C02282AD002D8012805D04EE004280C
:1046300013D0052833D049E02648274B9847051C5E
:104640002378591C227A013A012091423FD26268B4
:10465000D55423780133237039E01E481E4B984708
:10466000051C2378591C227A013A012091422ED24E
:104670006268D55423780133237028E02023174A39
:10468000D35CDDB20B78591C227A013A01209142A9
:104690001DD26268D55423780133237017E00D488A
:1046A0000F4B98476B46D8802078821C237A013BB9
:1046B0009A4209D263681818694606310222094BEA
:1046C0009847237802332370012000E0002003B0D4
:1046D00030BDC046A8040020953E0000A808002078
:1046E000A13E0000AD8B000021230B4AD35C002BC0
:1046F00004D12223D25C0023002A0AD000230370B5
:10470000054B2122985C22229A5C030213430B8002
:104710000123181C7047C046A808002010B50A4B9A
:1047200021229A5CD4B222229B5CDBB2002809D100
:1047300024022343994205D1034B002221215A54DC
:1047400022215A5410BDC046A8080020F0B55F468B
:1047500056464D464446F0B487B0434B9847434BCA
:1047600098470126424B1E70BFF35F8F62B6414BE4
:104770001A7802218A431A7004A8002505703E4B5E
:104780005B68DB061B0F8370C570057145703B4B82
:10479000984703AC25706670A5701B20211C384D0E
:1047A000A8471320211CA8471220211CA8472670C7
:1047B0001920211CA847334E80239B04B3610F208E
:1047C000211CA84780231B02B3612F4B98472F4B16
:1047D00098472F4B984701202E4B98472E488346E9
:1047E0002E4A92462E4B9846D8475046C047254AF7
:1047F000116A106A126A920C01231D1C9543AD00C8
:10480000C20C1C1C944362001543CA0E5340012283
:1048100013401D4300230127224E202122208146E0
:1048200021229446381C9840C2B2745C6C401442F9
:1048300016D0154209D01B4C605C10436054604692
:10484000205C0243604622540AE0164C645C8443B8
:10485000201C144C60544846205C024348462254B5
:104860000133032BDED1BFE74D590000614B00003F
:104870003C0000200010004000400041B13E00001C
:104880000D4C0000004400416142000079360000F8
:104890007537000091210000C5210000A804002008
:1048A000AD390000A808002010B5054C2434201CA8
:1048B000044B98470448211C044B984710BDC04640
:1048C000A80800205D280000A8040020753800001A
:1048D00070B582B001A80023037043708370FF237A
:1048E000C3700D4B9847011C0C4D2C1C2434201C0C
:1048F0000B4B9847201C0B4B9847061C201C0A4B5F
:104900009847F6B2C1B22A1C3832301C0023074C3B
:10491000A04702B070BDC04689280000A80800204A
:10492000392800006936000071360000AD400000F3
:10493000002804D080221202034B9A6103E08022F7
:104940001202014B5A617047004400417047C04653
:1049500010B5124B00221A80114A5A6001680C7E71
:10496000640820215454525CD2B21B7A934207D07F
:1049700020230B4AD35CDBB2084A527A9A4204D114
:104980002123074AD35C002B03D10449054B9847E8
:1049900003E02022014B1A80F7E710BD2800002019
:1049A000E8380020ED4D000010B50F492023C85C09
:1049B000C0B224314A780332D2B20C4CA04700284E
:1049C0000ADD0023084A111C2431595C9954013333
:1049D000834201D0202BF6D1C317181AC00F212310
:1049E000014AD05410BDC046E83800201122000012
:1049F00038B50F4B20221A800E490C1C24345C6001
:104A000005682C7E64088C54C0468A5CD2B21B7A3E
:104A1000934209D02023CB5CDBB2054A527A9A42FA
:104A200002D00022024B1A800149034B984738BD3F
:104A300028000020E8380020C54D0000F0B54746AA
:104A400080B488B0324B18720022002369460A7085
:104A5000802189030191012149426C4621816281B3
:104A600022746374A374E37423776A46A081FF23DE
:104A7000E381284B0593284B0693284D281C44308E
:104A80002749284B98476C6C201C274B98471F23BD
:104A9000184001238340181C244B18606A6C138A49
:104AA0001BB2002BFBDB2368022188460A1C0B4348
:104AB00023601A4F3E1C4436301C1D491D4DA8472B
:104AC0003C1C6934227804231343237041467B6CD9
:104AD0005973301C18490122A84722780223134336
:104AE0002370301C15490322A8472278082313435A
:104AF00023707B6C42465A73301C11490022A84730
:104B0000227801231343237008B004BC9046F0BD03
:104B1000280000200200160002001700E8380020DC
:104B200000140042554C00008953000000E100E0F1
:104B300051490000A94D0000A9490000F1490000B9
:104B40004D490000014B58727047C04628000020B4
:104B5000014B587A7047C046280000207047C04675
:104B600010B50020084B9847084CFA218900A0474F
:104B7000074B1860FA218900A047064B18600522F0
:104B8000054B1A6010BDC046F1560000796D00005B
:104B9000380000203400002010E000E00C4B1B68BF
:104BA000002B10D1EFF31083002B09D172B6BFF3A5
:104BB0005F8F0022074B1A700122074B1A7002E028
:104BC0000022054B1A70024B1A6801321A607047B6
:104BD000683900203C0000206C390020084B1A681E
:104BE000013A1A601B68002B09D1064B1B78002B79
:104BF00005D00122044B1A70BFF35F8F62B6704775
:104C0000683900206C3900203C00002000B583B0DA
:104C100001AB80221A700A785A704A789A708A78A2
:104C2000DA70191C014B984703B000BDE55800002D
:104C300010B582B001AB80241C7014785C7054787D
:104C40009C709278DA701A1C014B984702B010BD24
:104C500011590000F0B54F464646C0B483B0051C5C
:104C60000C1C161C29600B681C20990700D57FE0DE
:104C700023680520DA077BD4201C404B98469847D0
:104C80003F4B196A8946821C0127391C91400A1C36
:104C900049460A431A6201A9B37C0B700D30C0B2B9
:104CA0008146384B98474846374B9847B07C00219F
:104CB000364B98472868C04780463549354B98475A
:104CC00043469A00344BD55000232422AB5425226E
:104CD000AB54EB84737C2B72102323602C683389D4
:104CE000EB80802369460B7000234B708F70CB7074
:104CF0007069B569002803D1201C0021274B984713
:104D00006A46107002235370000CC0B26946244BEF
:104D10009847002D04D1201C0121204B9847051CE9
:104D20006B461D70022369464B702D0CE8B21C4B7C
:104D30009847F27C8023002A04D11A4B9B789B076A
:104D4000DB0FDB01226871680A43317F89070A4360
:104D500013432360728980235B0013436360B2892D
:104D60005200F3895B041343327C134363610020D8
:104D700003B00CBC90469946F0BDC04601530000FC
:104D800000040040095800007D570000A9510000B0
:104D9000154E0000495300009C390020F9510000D5
:104DA000E55800000020004110B5931C9B00C3187B
:104DB00059602423C15C01249440221C0A43D2B2CE
:104DC000C25410BD031C028D0520002A0CD14A6874
:104DD000DA620A881A850A88DA8405213122995410
:104DE0001B6807225A7300207047C046031C028DBF
:104DF0000520002A0CD14A68DA620A881A850A88D6
:104E0000DA840521312299541B6807225A73002045
:104E10007047C046F8B58000C24BC45825682523AA
:104E2000E35C2422A65C1E40AB7B990700D4F6E02D
:104E3000E28C92B2238D9A420ED03022A25C002ADC
:104E40000AD100233122A354E3842385B20715D568
:104E50002369201C984711E0E28C92B293420DD056
:104E60003023E35C012B09D100233122A354E384D6
:104E70002385F30702D5E368201C98472A8A432339
:104E80001A4207D010223123E254B10602D5236A18
:104E9000201C9847237A002B19D025686E68A24BF6
:104EA0009B691B051B0F032B05D06A688023DB025F
:104EB00013436B6089E09D4B984700232B826B6006
:104EC0008023DB021E436E60994B98477DE02B8A5E
:104ED0001A073DD501223023E254730702D56369D6
:104EE000201C9847E38C9BB2002B19D125686E6873
:104EF0008D4B9B691B051B0F032B05D06A68802314
:104F0000DB0213436B6060E0884B984700232B82E1
:104F10006B608023DB021E436E60854B984754E034
:104F200025686E68804B9B691B051B0F032B04D003
:104F30006A68804B13406B6047E07C4B98470023C6
:104F40002B826B607B4B1E406E60794B98473CE038
:104F500000223023E254310702D5A369201C984770
:104F6000E38C9BB2002B19D125686E686E4B9B6950
:104F70001B051B0F032B05D06A688023DB0213433C
:104F80006B6022E0694B984700232B826B60802383
:104F9000DB021E436E60664B984716E025686E681C
:104FA000614B9B691B051B0F032B04D06A68614B87
:104FB00013406B6009E05D4B984700232B826B60C8
:104FC0005C4B1E406E605A4B98472368564A926964
:104FD0001205120F032A03D0C02292025A6006E083
:104FE0009A7BD10701D501229A7302229A73246811
:104FF00065684D4B9B691B051B0F032B04D0626832
:105000004C4B13406360C9E0484B98470023238210
:105010006360484B1D406560454B9847BEE0AB7BE5
:10502000DA0732D50123AB7305232B732523E35C09
:10503000590705D42523E35C082B01D002232B73E9
:105040003123E35C1E2B00D1A8E03123E35C102B5D
:1050500000D1A3E000233122A354E3842385B207C7
:1050600007D53023E35C002B03D12369201C98472C
:1050700094E0F30700D491E03023E35C012B00D0EF
:105080008CE0E368201C984788E0AB7B590700D48C
:1050900084E0238D002B0BD03022A25C012A00D0AB
:1050A00078E0E28C92B2934274D22B8A5A0771D57F
:1050B00000232385E3843023E35C002B25D16F6834
:1050C000194B9B691B051B0F032B05D06A688023B6
:1050D000DB0213436B600AE0144B984700232B82DA
:1050E0006B608023DB021F436F60114B98476A6837
:1050F00080239B0213436B601E223123E254F3068C
:105100004CD5E369201C984748E06E68064B9B69C4
:105110001B051B0F032B0FD06A688023DB02134390
:105120006B6014E09C390020002000419D4B000082
:10513000DD4B0000FFFFFBFF194B984700232B823C
:105140006B608023DB021E436E60164B98476A68D3
:1051500080239B0213436B6000223123E25404231B
:105160002B731BE03023E35C002B09D1E36A5A1C4C
:10517000E2622A7ED2B21A70238D013B23850DE0B4
:10518000E36A5A1CE2621B78DBB22B76238D013B6B
:10519000238503E0E38C9BB2002BE3D1F8BDC0462E
:1051A0009D4B0000DD4B000010B582B0041C0F4B7E
:1051B0001B78002B01D000290DD001A90C700C2008
:1051C0000B4B98470C200B4B9847084B5C70012207
:1051D0001A70002007E0054B5A781D20141B621E30
:1051E00094416442204002B010BDC0467039002096
:1051F000095800007D5700002E4B98421CD003D860
:105200002D4B984207D04AE02C4B984225D02C4B8E
:10521000984233D043E0012943D0002904D0022929
:1052200006D0032906D001E0264841E000203FE0F7
:1052300025483DE025483BE0012934D0002904D031
:10524000022906D0032906D001E0032030E0002027
:105250002EE01F482CE01F482AE0012925D0002914
:1052600004D0022906D0032906D001E01A481FE025
:1052700000201DE019481BE0194819E0012916D04B
:10528000002904D0022906D0032906D001E01548E0
:105290000EE000200CE014480AE0144808E000206A
:1052A00006E0134804E0134802E0134800E0134806
:1052B0007047C046000C0042000800420010004247
:1052C000001400420300040003000600030007006E
:1052D00003001E0003001F000300080003000A0073
:1052E00003000B0003001000030012000300130072
:1052F0000300050003000100030009000300110082
:1053000070B584B00E4A694670CA70C112680A60EE
:10531000031C009A82420FD0019C844208D0029D57
:10532000854207D00020039E9E4207D1032004E05F
:10533000012002E0022000E00020C0B204B070BDF5
:105340002C9400007047C04630B50B4B1B78002BE7
:105350000ED10A4C0A4D25600A4B00221A60656086
:105360005A60A5609A60E560DA600122024B1A700B
:105370008000024BC15030BD7439002078390020C4
:10538000455300009C39002030B583B0051C01ACAA
:10539000201C05490422054B9847281C044B9847BC
:1053A000205603B030BDC0463C940000AD8B0000D9
:1053B0000153000008B5024B1B680020984708BD48
:1053C0007839002008B5024B5B680120984708BD7A
:1053D0007839002008B5024B9B680220984708BD29
:1053E0007839002008B5024BDB680320984708BDD8
:1053F0007839002008B507282BD88000174B1B5898
:105400009F468020000227E0154BD86824E0154B0A
:10541000186A8005800F144BC340181C1CE0104B09
:10542000186919E00E4B1B680220184014D00D4972
:105430001022CB681A42FCD0094B1B685A070AD5C8
:1054400000200A4B9847064B9B681B041B0C5843D3
:1054500002E0002000E0064808BDC046409400007D
:10546000883900200008004000127A00255800000A
:10547000006CDC0270B50C4B1C6A017885784078B2
:105480000122104080014026B44304432A40D00149
:1054900080229443221C0243032001400902034856
:1054A00002400A431A6270BD00080040FFFCFFFF83
:1054B00007283BD880001E4B1B589F46002036E033
:1054C0001C4B196A02220A431A6200202FE0194B72
:1054D000996902220A439A61002028E0154B198A33
:1054E00002220A431A82002021E0124B998A0222EA
:1054F0000A439A8200201AE00F4B196802220A43DD
:105500001A601A680D4B1A400A4B9A84191C102213
:10551000CB681A42FCD0084A9168064BD9625168A0
:105520009962126892B29A84002000E017207047B6
:105530006094000000080040883900207FFF0000D0
:1055400030B585B0C222D200194B9A60194B5A6807
:105550001E218A435A6001236A4613700024164DA7
:10556000E0B26946A84701341C2CF9D103A80024F5
:105570004470012585700470104B98470620104B2D
:105580009847104B9847104B1C725C729C720195A7
:105590006B465C7006236A461370147254720020C6
:1055A00069460A4B98470020094B984705B030BD23
:1055B00000080040004000410958000075540000F8
:1055C000B1540000D555000000040040F95500001A
:1055D000AD560000064B996908220A439A610122E0
:1055E000044B1A70191C0B781342FCD17047C0464B
:1055F00000040040000C0040F8B5061C071C0D78A4
:105600002D0205434B78002B02D08023DB021D4383
:105610004B7A002B02D080231B031D434C68012CC6
:1056200017D9631E1C420FD1022C06D90223002277
:1056300001325B009C42FBD800E000221702374396
:1056400080235B031D4304E02702374380239B0232
:105650001D430B7A002B02D080239B031D430F4A6E
:1056600053785BB2002BFBDB0D4B98470D4B1E7044
:105670000A4A53785BB2002BFBDB084B9F601A1C75
:1056800053785BB2002BFBDB044B5968802252023B
:105690000A4015435D60044B9847F8BD000C00407C
:1056A0009D4B0000080C0040DD4B000010B5041CB1
:1056B0000B4A53785BB2002BFBDB0A4B98470A4B33
:1056C0001C70074A53785BB2002BFBDB044B596814
:1056D000802252020A435A60044B984710BDC046CC
:1056E000000C00409D4B0000040C0040DD4B00000E
:1056F00070B5041C1A4A53785BB2002BFBDB194BC4
:105700009847194B1C70164A53785BB2002BFBDB91
:10571000134E7068C004C00E144B9847051C124B02
:105720001C707668F602F60F114B1C700C4A537809
:105730005BB2002BFBDB0A4B9C68240AA4B20D4B26
:105740009847002E07D1012C07D9281C211C0A4B91
:105750009847051C01E00134E540281C70BDC04697
:10576000000C00409D4B0000040C0040F55300006D
:10577000080C0040DD4B0000796D000010B5041CE2
:10578000064B9847064B1C70064B59888022D20165
:105790000A435A80044B984710BDC0469D4B0000F9
:1057A000020C0040000C0040DD4B000010B5041C52
:1057B0000F4B98470F4B1C700F4B58880005000F7C
:1057C00059880E4A0A405A8059880D4A0A405A8020
:1057D000191C8022D2014B881342FCD1064B0102D6
:1057E0005888064A02400A435A80064B984710BD23
:1057F0009D4B0000020C0040000C0040FFF0FFFF3A
:10580000FFBFFFFFDD4B000010B50C7824020443FE
:10581000024B9847A4B2024B5C8010BDAD5700000C
:10582000000C004010B5041C064B9847064B1C703A
:10583000064B5C882405240F054B9847201C054B1C
:10584000984710BD9D4B0000020C0040000C00402A
:10585000DD4B0000F156000030B5D378002B1ED18F
:105860001378802B04D01B0680246402234300E0BD
:10587000002354780225AC430AD19478002C03D13C
:105880008024A402234302E0C024E40223434160B5
:105890005478013C012C04D8114C234001E04160B4
:1058A00000230D042D0CA024E4052C431C4384622A
:1058B0000D0CD02424062C431C438462D478002C85
:1058C0000CD15C0305D59378012B01D1816100E0F7
:1058D00041615378013B012B00D8816030BDC04647
:1058E000FFFFFBFF08B5031C0A1CC10900200029AB
:1058F00003D15809C001044940181F210B40012160
:105900009940024B984708BD004400415958000097
:10591000F8B54F464646C0B481460E1C904600245A
:105920000125084F331CE3401D4204D04846291C82
:10593000A1404246B8470134202CF3D10CBC90461C
:105940009946F8BD595800007047C04608B5044B49
:105950009847044B9847044B9847044B984708BD19
:10596000415500005D4B00004959000049590000B5
:10597000FEE7C04610B51C4B1C4A9A4203D01C4B94
:10598000194A9A4204D31B4B1B4A9A4210D31BE07C
:105990001A4B17480330C01A8008013080000023DA
:1059A0001149124AD458CC5004338342FAD1EAE761
:1059B000114B1A1D0F490331891A890889005218A1
:1059C000002102C39342FCD10D4B7F210D4A8A4333
:1059D0009A600D4B596880220A435A600B4B9847D6
:1059E0000B4B9847FEE7C046000000208095000062
:1059F0006C040020AC3900206C040020040000205E
:105A000000ED00E00020000000400041658B000038
:105A10004D47000000000000F0B546464F46C0B4B8
:105A20008FB0161C1F1C0090019100F0ADF9BC4A0C
:105A30000023D356041C0D1C904602940395013399
:105A400005D0301C391C01F021F8002806D102983D
:105A500003990FB00CBC90469946F0BD009801998F
:105A600001F014F88146002831D1301C391CA14BBB
:105A70009F4A01F041FA0028E9D001230493A94B81
:105A800004AC63604B462362009A019BA260E36012
:105A9000994A9A4BA261E36142460023D35626619C
:105AA00067615A1C0ED0022B0CD0201C01F01EF88E
:105AB000002800D17BE0236A002B03D003F04CF8D0
:105AC000236A0360A269E36902920393BFE7009827
:105AD0000199884B864A01F00FFA002822D0301C29
:105AE000391C844B824A01F007FA051E2CD0012391
:105AF00004938C4B04AC636000232362009A019BE7
:105B0000A260E3607B4B7A4AA261E36142460023D4
:105B1000D35626616761002BC7D0774A774BA261C5
:105B2000E361CFE7201C291C00F0A8FF8146002874
:105B300042D0201C291C6F4B6D4A01F0DDF9002872
:105B40006CD10294039582E7301C391C00F096FF5B
:105B5000002800D17BE7301C391C664B644A01F0F9
:105B6000D1F9002800D172E7012304936D4B04ACF6
:105B70006360009A019BA260E36043461978256246
:105B800026616761002900D17AE05D4A5D4BA26120
:105B9000E36102293CD102F0DFFF21230360236A85
:105BA000002B8FD002F0D8FF226A02608AE702F051
:105BB000D3FF212303607EE70098019900F05EFF88
:105BC0000028B6D0301C391C00F058FF0028B0D097
:105BD000201C291C00F05AFF04AC002855D10123D9
:105BE0000493504B20626360009A019BA260E360C3
:105BF00043461D7826616761002D41D03D493C48F0
:105C0000021C0B1C01F0EAFCA061E161022DC2D074
:105C1000201C00F06BFF0028C1D1BCE7009801995F
:105C200000F02CFF02940395002800D10FE7301CF0
:105C3000391C00F023FF02940395002800D106E7E9
:105C400004AC0423049326616761364B6360002330
:105C50002362009A019BA260E360264B244AA26162
:105C6000E36142460023D356022B04D0201C00F0EF
:105C70003DFF002893D102F06FFF222303608EE7DF
:105C80001C4B1B4AA261E361C2E703230493254B2B
:105C90002661676163604B462362009A019BA260A4
:105CA000E36042460023D356002B3DD1164A174BE2
:105CB00000980199A261E3610E4B0D4A01F022F9AF
:105CC0000028CED0124A134B301C391C02F0F0F8D9
:105CD000061C0F1C00F014FF321C3B1C01F00CF9D9
:105CE0000028BED10C4A0D4BA261E361B9E7C04662
:105CF0000000000000000000000000000000F03F75
:105D0000000000000000F0FF000000E0FFFFEF4790
:105D1000000000000000E03F000000E0FFFFEFC7D0
:105D20003D00002080940000104B0F4A009801991C
:105D3000A261E3610E4A0F4B01F0E4F8002890D015
:105D40000D4A0E4B301C391C02F0B2F8061C0F1C19
:105D500000F0D6FE321C3B1C01F0CEF8002800D02B
:105D60007FE7074A074B7AE7000000000000F07F5A
:105D70000000000000000000000000000000E03F04
:105D8000000000000000F0FFF0B55F4656464D46AB
:105D90004446F0B499464B465C00934664088FB085
:105DA0000D1C0F1C5A46211C0090061C82460293B3
:105DB0005846114337D06900490888466849049518
:105DC00088452BDC28D066498C4227DC00D180E056
:105DD000002108910499002900DA7EE0002833D1DF
:105DE0005F4B9C4200D196E05E4B9C426AD0029889
:105DF0008023DB05984201D100F0E1FB5A4B029968
:105E0000994221D1049A002A1EDB291C009800F037
:105E10004BFD061C0D1C08E0002ED4D0534A131C69
:105E2000434433430AD14F4D0026301C291C0FB088
:105E30003CBC90469946A246AB46F0BD4C4800F0AB
:105E400057FE061C0D1CF0E70098291C00F012FEFE
:105E5000534606908C46002B20D0FB0F013B049349
:105E6000049E089B33436AD0424B9C4200DC8DE089
:105E7000414B9C4201DC00F035FC404B984500DC76
:105E800089E3029E002E00DC89E334493248021C7B
:105E90000B1C02F00DF8061C0D1CC6E7404600283E
:105EA00004D0304BBA0092089A42D6D1029C002C02
:105EB00001DA00F0C4FB049E002E00DA73E3069EB4
:105EC0006546B2E7029C002C01DA00F076FC009EE9
:105ED000ABE7002800D17BE7A0E729498C422BDC07
:105EE00026498C4200DC79E721158C4625498C45F2
:105EF00001DC00F086FC244B61465B1A111CD94082
:105F00000A1C9A40824200D068E701220A4002231C
:105F10009B1A089362E7154A131C4344334300D18C
:105F200081E7164B984500DC7FE3029C002C00DAE9
:105F300035E35E464D4678E7022108914EE700982A
:105F4000009A291C2B1C02F043FA021C0B1C01F0C6
:105F500045FB061C0D1C68E79C7500883CE4377EF9
:105F60000000F07F0000F03F0000E03F000010C0A4
:105F7000B89400000000E0410000F043FFFFEF3F55
:105F8000FFFF3F431304000033040000E24A0023F4
:105F9000904509DC0698C54BC34A614601F088FF6D
:105FA0003523069088465B424046DC49021552186C
:105FB000D21892460303DA4DDA4A1B0B1D43934273
:105FC00001DC00F0F6FBD84A934201DC00F036FC1D
:105FD000D64B01229244ED1800240021069A2B1C76
:105FE00006920793C900D24B884643441868596803
:105FF0000A900B910A9A0B9B0698079902F0E8F910
:106000000A9A0B9B061C0F1C0698079900F0C4FF08
:10601000021C0B1CA648A74901F0E0FA0C900D9158
:106020000C9A0D9B301C391C01F042FF0290039129
:106030000B1C802189056D10802000220D43000378
:10604000009201939C4A9D4B29180B1900980199C5
:10605000141C1D1C01F02CFF021C0B1C301C391CD5
:1060600002F0B6F90A9A0B9B061C0F1C201C291C77
:1060700002F0AEF9021C0B1C0698079902F0A8F971
:10608000021C0B1C0098019901F012FF021C0B1C52
:10609000301C391C02F09CF90C9A0D9B01F008FF92
:1060A0000690079102980399021C0B1C01F000FF57
:1060B000041C0D1C221C2B1C01F0FAFE804A814B93
:1060C000061C0F1C201C291C01F0F2FE7E4A7F4B8F
:1060D00000F062FF221C2B1C01F0EAFE7C4A7D4B83
:1060E00000F05AFF221C2B1C01F0E2FE7A4A7B4B87
:1060F00000F052FF221C2B1C01F0DAFE784A794B8B
:1061000000F04AFF221C2B1C01F0D2FE764A774B8E
:1061100000F042FF021C0B1C301C391C01F0C8FEB1
:10612000029A039B041C0D1C0098019900F034FF97
:10613000069A079B01F0BCFE221C2B1C00F02CFFD2
:10614000061C0F1C00980199021C0B1C01F0B0FEEC
:10615000674A684B0A900B9100F01EFF321C3B1CF3
:1061600000F01AFF00240D1C221C009801992B1C22
:1061700001F09EFE221C2B1C0090019106980799AD
:1061800001F096FE5A4A5B4B06900791201C291C91
:1061900002F01EF90A9A0B9B02F01AF9021C0B1C62
:1061A000301C391C02F014F9029A039B01F080FEA6
:1061B000021C0B1C0698079900F0EEFE061C0F1C33
:1061C000321C3B1C0098019900F0E6FE4A4A4B4BFA
:1061D0000024201C0D1C01F06BFE494A494B06901F
:1061E0000791201C291C01F063FE009A019B02907C
:1061F0000391201C291C02F0EBF8021C0B1C301C24
:10620000391C02F0E5F8404A404B01F051FE021CF7
:106210000B1C0298039900F0BFFE464B43441A68DA
:106220005B6800F0B9FE061C50460F1C02F038FCFB
:106230000D1C4149041C41440A684B6806980799A3
:1062400002920393321C3B1C00F0A6FE029A039BB1
:1062500000F0A2FE221C2B1C00F09EFE00220B1C54
:1062600000920193101C2B1C221C02F0B1F8029A20
:10627000039B02F0ADF8069A079B02F0A9F8021CF6
:106280000B1C301C391C02F0A3F802900391089BF0
:10629000049C013B234300D0C2E11D481D490490EA
:1062A00005914BE0C046C04600000000000040439E
:1062B000000000000000F03F0000000000000000AF
:1062C000EF4E454A287ECA3F65DBC9934A86CD3FDB
:1062D00001411DA96074D13F4D268F515555D53FC1
:1062E000FFAB6FDBB66DDB3F033333333333E33F59
:1062F0000000000000000840000000E009C7EE3F79
:10630000F5015B14E02F3EBEFD033ADC09C7EE3F0A
:10631000000000000000F0BFFFFF0F0001FCFFFFC6
:106320000000F03F8E98030079B60B000000F0FFEC
:10633000A894000098940000889400000026321C65
:106340004B465846494602F043F8009A019B01F03B
:10635000AFFD029A039B041C0D1C5846494601F0F0
:10636000A7FD021C0B1C201C291C00F015FE009A26
:10637000019B02900391301C494601F099FD009069
:106380000191009A019B0298039900F005FECC4B05
:10639000041C0D1C0F1C8846994200DC19E1C94AF7
:1063A0008B18034300D012E2AC4BAB4A029803991E
:1063B00000F0F2FD009A019B08900991201C291C15
:1063C00002F006F8021C0B1C0898099900F0AEFDBB
:1063D000A946002800D0FAE14A46BB4B802411159B
:1063E0006403C918201C0841C11948009C4A9D4BF0
:1063F0000B1C0903B54E090B400D0C43B44985191C
:10640000B44E081A04412E414046B343A146002829
:1064100000DA1EE20098019901F0DAFF0090019184
:10642000009A019B0298039900F0B6FD4A461205B6
:1064300090460024201C8C4A8C4B0D1C0F1C01F034
:1064400037FD009A019B08900991201C291C01F03E
:10645000BFFF021C0B1C0298039901F0B9FF844A8C
:10646000844B01F025FD844A844B261C0D1C041C22
:10647000391C301C01F01CFD021C0B1C201C291CAB
:1064800000F08AFD041C0D1C221C2B1C0898099985
:1064900000F082FD089A099B061C0F1C01F098FF72
:1064A000021C0B1C201C291C01F092FF321C0090C6
:1064B00001913B1C301C391C01F0FAFC704A714BF5
:1064C000041C0D1C01F0F4FC6F4A704B01F080FFBE
:1064D000221C2B1C01F0ECFC6D4A6E4B00F05CFDA5
:1064E000221C2B1C01F0E4FC6B4A6C4B01F070FF8A
:1064F000221C2B1C01F0DCFC694A6A4B00F04CFDAD
:10650000221C2B1C01F0D4FC021C0B1C301C391C5F
:1065100001F05EFF041C0D1C221C2B1C301C391CBE
:1065200001F0C6FC604A614B02900391201C291CBB
:1065300001F04EFF021C0B1C0298039901F04EF86B
:10654000009A019B041C0D1C301C391C01F0B0FC8E
:10655000009A019B00F020FD021C0B1C201C291C32
:1065600001F036FF321C3B1C01F032FF0B1C021CF9
:106570004F48504901F02CFF464673181C15002C5B
:1065800000DC60E1021C0498059901F091FC061CF6
:106590000D1CFFF74AFC029C002C00DA75E4002673
:1065A0000025FFF742FC4C48089C031C434423434E
:1065B00000D01AE106986146069A6346C3E4291C96
:1065C0002B1C0098009A01F073FC061C0D1CFFF7B1
:1065D0002CFC4B005B089946404B994500DC25E1BB
:1065E0003F480B1823430DD1009A019B201C01F05A
:1065F000EFFE021C0B1C0298039900F08DFC002892
:1066000000D1E9E62C4A2D4B0498059901F050FC85
:10661000294A2A4B01F04CFC061C0D1CFFF705FC17
:106620002349244A0491059288E6029E002EB6DA98
:1066300080200006051C5E464D44FFF7F6FB069AD7
:1066400063461B481B4900F0C9FF06908C46FFF7C4
:1066500032FCC046C046C046FE822B654715973CBB
:10666000000000000000000000000000432EE63F94
:10667000EF39FAFE422EE63F396CA80C615C20BE71
:10668000D0A4BE726937663EF16BD2C541BDBB3E38
:106690002CDE25AF6A56113F93BDBE166CC1663F16
:1066A0003E5555555555C53F0000000000000040BF
:1066B000000000000000F03F59F3F8C21F6EA50172
:1066C000FFFF8F40000070BF02FCFFFF01FCFFFFD7
:1066D00013040000FFFF0F00000010C0FFCB90402C
:1066E00000346F3F6C4B984500DC54E76B4B98458A
:1066F00001DDFFF7C6FB6146584B574A069801F08B
:1067000067FE574A574B041C0D1C01F0D1FB564A3B
:10671000564B061C0F1C201C291C01F0C9FB221C17
:10672000009001912B1C201C291C01F0C1FB504A38
:10673000504B02900391201C291C01F0B9FB021C54
:106740000B1C4D484D4901F043FE221C2B1C01F04F
:10675000AFFB021C0B1C4A484A4901F039FE021CDF
:106760000B1C0298039901F0A3FB474A474B01F029
:106770009FFB021C0B1C0098019901F029FE041CD0
:106780000D1C221C2B1C301C391C00F005FC0022A7
:106790000B1C00920193101C3B1C321C01F018FED4
:1067A000021C0B1C201C291C01F012FE02900391FC
:1067B0006DE500240021FFF711FC2B1C274926481A
:1067C000009A00F00BFF061C0D1CFFF72EFB304A51
:1067D000304B0498059901F06BFB2D4A2D4B01F0CD
:1067E00067FB061C0D1CFFF720FB089E012E01D045
:1067F000FFF765FB80200006051C069E6544FFF739
:1068000014FB002801D0FFF71FFB6346C91A221CA6
:106810000A41101C8840A04201D0FFF7E5FA01238D
:106820001A4002239B1A0893FFF7DEFA1C4B994586
:1068300000DDD1E5002398469946FAE58024E4027C
:106840000121FFF7CBFB4A4600F006FA021C0B1CA5
:1068500099E66442A146DDE5000000000000F03F3B
:10686000000000604715F73F44DF5DF80BAE543E73
:10687000000000000000D03F555555555555D53FF7
:10688000000000000000E03FFE822B654715F73F47
:106890009C7500883CE4377EFEFFEF3F0000F03F30
:1068A0000000E03FC046C046F0B55F4656464D4644
:1068B0004446F0B46C4E0D1C371C83B0041C021C03
:1068C0000B1C2F40B74200D1ADE0002900DC8BE06B
:1068D0002F1500D194E0654D09038023090B5B035C
:1068E0007F190B43FE0700D570E07F10C20FB8463A
:1068F0005B00002780219B1816244200009700208F
:10690000890345189D4204DC68185B1B009D6D18C7
:106910000095D50F5B00013C5B1952004908002C23
:10692000EFD180210026090620250196B44689462C
:1069300009E0834246D0D40F5B00013D1B19520091
:106940004908002D1CD066468C198342F1DD67187A
:10695000E60FBC46F60782464E452CD01B1AA242D3
:1069600080414042019F1B1A121B7F18D40F5B000D
:10697000013D019750461B1952004908002DE2D1F4
:10698000134328D101984308009D394E6A1092198B
:10699000ED0702D5802109060B4340460705B918CB
:1069A0001C1C0D1C201C291C03B03CBC90469946A5
:1069B000A246AB46F0BDFF0FFF077E427E41B246C6
:1069C0008244CBE79442C2D9181CB4E7C20F5B00E3
:1069D0009B18400089E7019901312FD0019C0123C8
:1069E00023401B195B08CFE76B005B081A43D9D023
:1069F000002700292BD1C10A153F40050029FAD0F4
:106A00008022520311421ED100234900013311425A
:106A1000FBD001242022E41AD21A3F19041CD440CE
:106A20002143984057E7201C291C01F041FA221C01
:106A30002B1C00F0B1FA041C0D1CB3E7009A0023D4
:106A400001320092A0E7202201240023E5E7221C66
:106A50002B1C201C291C01F0BBFC021C0B1C00F091
:106A6000BDFD041C0D1C9DE70000F07F01FCFFFF35
:106A70000000E03F4B0059087047C0464800024BF9
:106A80004008C018C00F7047000010800B1C011C8C
:106A9000021C30B519430220002900D130BD8021ED
:106AA00009068B4216D00D4904205C180C498C4213
:106AB000F4D90C4D5C198C42F0D90B4C59004908A3
:106AC0000320A142EAD9074C0020A142E6D150425E
:106AD0005041E3E7002AE1D0EFE7C0460000F0FFB5
:106AE000FFFFDF7F0000F07FFFFF0F0000207047F7
:106AF000024901487047C046000000000000F87FCE
:106B0000F0B546464F46C0B4CA0F90464B004D4ABA
:106B10005B0D9E1883B0041C0D1C8C46071C132EA5
:106B20003BDC002E5CDB484F021C37413B1C0B401A
:106B30000343994648460B1C002827D07B081A1CA3
:106B40000A4022430027002A0AD0132E00D176E003
:106B5000291C80229943D2020B1C324113439C46CC
:106B60004046C1003948634641180C684D683A1CDC
:106B7000201C291C00F010FA009001910098019946
:106B8000221C2B1C01F024FC021C0B1C101C191CC9
:106B900003B00CBC90469946F0BD332E0BDD0B1CA8
:106BA0008021021CC9008E42F0D1291C00F0F4F9AA
:106BB000021C0B1CEAE7264A0126D2187642D64070
:106BC00091460B1C021C0642E0D076080642C7D054
:106BD0008023B443DB0548460341271C1F43BFE71E
:106BE0004E0076080643021C0B1C002ECED0090373
:106BF000090B01434842014380200003090B014077
:106C0000680C40040B1C03434046C1000F48411868
:106C10000C684D68291C201C00F0BEF90090019101
:106C2000009801992B1C221C01F0D2FB0D1C41463F
:106C3000021CC80769004908031C0B43A6E780270C
:106C40003F0685E701FCFFFFFFFF0F00C094000037
:106C5000EDFBFFFF00000000F8B53D4E171C331C94
:106C60000B40041C0D1C0A1C1B1525D14B005B0896
:106C700018431ED0201C291C2E4B2D4A01F018F958
:106C8000344B041C0D1C9F4231DB0E4033150A1C93
:106C9000363B3149DB198B4215DD221C2B1C264863
:106CA000264900F061F8244A244B01F001F9041C44
:106CB0000D1C291C201CF8BD28498B421ED02649DA
:106CC000DB198B42E9DC002B05DD25491B050A4059
:106CD0001D1C1543EDE7191C353118DA214B9F4275
:106CE000DBDC17481749221C2B1C00F03DF8144A26
:106CF000144B01F0DDF8041C0D1CDAE7201C291CE4
:106D0000221C2B1C00F048F9041C0D1CD1E714496F
:106D100036331B050A401D1C1543201C291C0A4A3A
:106D20000A4B01F0C5F8041C0D1CC2E7C046C04662
:106D300000000000000050439C7500883CE4377E52
:106D400059F3F8C21F6EA501000000000000903C3E
:106D50000000F07FB03CFFFFFE070000FF070000CF
:106D6000FFFF0F8050C3000030B5DA0FD2074B0091
:106D70005B08111C194330BD002934D001230022C7
:106D800010B488422CD301242407A14204D28142AA
:106D900002D209011B01F8E7E400A14204D28142BA
:106DA00002D249005B00F8E7884201D3401A1A4337
:106DB0004C08A04202D3001B5C0822438C08A0426E
:106DC00002D3001B9C082243CC08A04202D3001B24
:106DD000DC082243002803D01B0901D00909E3E79E
:106DE000101C10BC7047002801D00020C04307B41D
:106DF000024802A14018029003BDC046D90000001D
:106E00000029F0D003B5FFF7B9FF0EBC4243891A41
:106E10001847C046002941D010B4041C4C40A44679
:106E200001230022002900D54942002800D5404214
:106E300088422CD301242407A14204D2814202D2E9
:106E400009011B01F8E7E400A14204D2814202D209
:106E500049005B00F8E7884201D3401A1A434C0806
:106E6000A04202D3001B5C0822438C08A04202D33C
:106E7000001B9C082243CC08A04202D3001BDC0864
:106E80002243002803D01B0901D00909E3E7101CA5
:106E90006446002C00D5404210BC7047002806D044
:106EA00003DB0020C043400801E08020000607B457
:106EB000024802A14018029003BDC046190000001C
:106EC0000029EBD003B5FFF7A7FF0EBC4243891A98
:106ED0001847C0467047C0468446101C62468C4620
:106EE000191C634600E0C0461FB500F063FF002890
:106EF00001D40021C8421FBD10B500F093FE4042EE
:106F0000013010BD10B500F055FF002801DB002056
:106F100010BD012010BDC04610B500F04BFF002889
:106F200001DD002010BD012010BDC04610B500F0ED
:106F3000C3FE002801DC002010BD012010BDC046AA
:106F400010B500F0B9FE002801DA002010BD0120C4
:106F500010BDC0460000000038B50E4B0C4A041CA2
:106F60000D1CFFF7EDFF002804D1201C291C01F0A7
:106F700063FD38BD074B064A201C291C01F028FA86
:106F800001F05AFD80231B06C018F2E7C046C04638
:106F9000000000000000E041F8B55F465646444658
:106FA0004D46F0B40C034D00CE0F610A440F21434F
:106FB000C400180380465800400D8246D80F84460E
:106FC0004046400A530F0343D0006D0D371C8346E3
:106FD0005246664500D1A4E0AF1A002F00DC09E15B
:106FE000002A3BD1184300D0EAE0630700D187E0D4
:106FF0000F232340042B00D182E0221DA242A44192
:107000006442802309191B040B40371C141C002BFD
:1070100000D17CE0CE4B01359D4200D105E1CD4B46
:10702000E40819404807490204430B0B00200021E3
:107030001B031A0B0B0D6D051B0513436A08C64D88
:10704000FF071D4015436D006D08291C3943201CA6
:107050003CBC90469946A246AB46F8BDBC4885422A
:10706000C3D0802000040343382F00DDF0E01F2F41
:1070700000DD24E12020C01B1A1C814682405846B6
:10708000F8400243944658464A469040421E90417A
:10709000FB40624602431F1CA21A9442A441644270
:1070A000C91B091B141C0B029FD549024F0A002F54
:1070B00000D1C8E0381C01F031FD021C083A1F2A3B
:1070C00000DDB5E02821091A201C9740C84007437D
:1070D0009440954200DDB2E0551B691C1F2900DD7C
:1070E000DCE01F22551B3B1C221CAB40CA40AC40BD
:1070F000651EAC411343CF401C43391C002574E787
:1071000080231B040B40371C002B00D082E7904BE0
:107110004807E4080443C9089D4248D009030B0B03
:1071200084E7AA1A9446002A00DC98E0504600281A
:1071300052D08748854200D157E78020000403439E
:107140006246382A00DDFCE01F2A00DD4AE12022E9
:107150006046101A1A1C8240824691465846624682
:10716000D0404A4602439046584652469040421EFE
:107170009041424602436046C3401219A242A441D4
:10718000644259180919141C080200D42DE7704BE9
:1071900001359D4200D122E16E4B60081940012368
:1071A00023401C1C0443CB071C4349081DE7231C38
:1071B0000B433AD080231B030B431B031B0B35E708
:1071C000013F002F65D15846221A9442A4416442DF
:1071D000C91A091B141C66E75846184300D104E776
:1071E0000122524294446046002800D0C5E058462F
:1071F0000219C3E7002F73D1681C4005400D012818
:1072000000DCDEE05A46A21A9442BF41C81A7F420F
:10721000C71B380200D489E05A46141BA34592418B
:10722000591A52428F1A664641E700230024FDE6B0
:10723000271C283887400024954200DC4CE745494C
:10724000AD1A3940D1E6201C01F068FC203034E74B
:107250005A461A43531E9A41D2B200271CE7002A0D
:1072600000D0DCE0681C4205520D012A00DC8DE0F4
:10727000374DA84200D1F3E05D462A19A242A4414D
:10728000644259180919CC07520814434908051CCF
:10729000ABE62F48854200D0E6E6A6E62B1C1F3B56
:1072A0003A1CDA40131C20296CD03F22551BAF40FA
:1072B0003C43601E84411C430021002595E6381C98
:1072C00020381A1CC240101C202F5DD04022D71B32
:1072D000BB405A461A43531E9A4102430027DBE63D
:1072E000002D3BD01A4DAA4500D193E080252D04F6
:1072F0007F422943382F00DDACE01F2F00DD29E15C
:107300002025ED1B081C261CA840FE40AC4006436F
:10731000651EAC413443F9405D462C1BA3459241A8
:107320005B1A5242991A55466646BCE6131C3B430B
:10733000141C002B00D0BAE60027002100250024F1
:10734000E5E65A461A43531E9A41D2B2002314E787
:10735000FF070000FFFF7FFFFFFF0F800D1C25438D
:1073600058D0FF43002F51D1041BA3459241591A15
:107370005242891A5546664695E69648854200D09F
:10738000DEE632E6002793E70023A2E7081C20434D
:10739000002D00D0C4E0002800D1F7E05846184383
:1073A00000D122E658460219A242A441644259186B
:1073B0000919141C0A0200D417E6874B012519404D
:1073C00013E6081C2043002D39D1002871D15946FD
:1073D000194303D0191C5C46664606E600270021C7
:1073E000002494E6604620381A1CC240604691464C
:1073F000202800D1ACE04022121A93405A461A438A
:10740000531E9A414B461A430023B6E6714DAA45D6
:1074100000D06FE7191C5C4655466646E5E5002D31
:1074200022D10D1C254377D0D543002D71D15C446A
:107430005C4592415918524289185546A4E60028E5
:107440004DD15946194300D194E0191C5C4666465B
:10745000604DCAE50C43611E8C41E4B200215BE73C
:10746000051C0021002452E65A4DAA4554D055422D
:10747000802210040143382D00DD81E01F2D00DD46
:1074800092E02022501B0A1C84468240201CE840C7
:107490000243904662469440601E84414246144333
:1074A000E9405C445C459241CB18524299185546DC
:1074B0006AE65846184300D197E55846271ABC4259
:1074C0009241C81A5242801A020266D55846041BDD
:1074D000A3459241591A5242891A664685E5584693
:1074E000184333D04807E40804438020C908000348
:1074F000014208D0DD08054205D15946CA085C079B
:107500001443291C6646630FC9001943E400314D3A
:107510006BE5304A9245AED1191C5C46554664E590
:10752000002836D05846184310D080254807E40874
:10753000C9082D0304432942E5D0D8082842E2D1E6
:107540005D46EA085C071443011CDCE7214D4CE56D
:10755000002353E73D1C203D0A1CEA40151C202F48
:1075600034D04026F71BB9400C43611E8C412C439C
:107570000021D1E680210027C903164D0024C6E56D
:107580000C43611E8C41E4B200218AE7191C5C4661
:107590002BE5191C5C460F4D27E5031C3B4300D12E
:1075A0001CE7011C3C1C20E52020404240190A1C1D
:1075B000C2409046202D0BD04020451BA9400C43D3
:1075C000611E8C4145462C4300216AE70021CBE730
:1075D0000021F4E7FF070000FFFF7FFFF0B55646EC
:1075E00044465F464D46F0B41F1C0B031B0B9846E8
:1075F0004B0087B0041C81465B0DC80F161C9A46D1
:107600000090002B51D06A4B9A4531D080224146E0
:1076100052030A43630FD2001A43664B904600257B
:10762000E20091469A44002402953B031B0B9B46C3
:10763000FD0F7B00311C5B0D019560D05C4A9342CD
:1076400054D08021584649030143720FC9001143A9
:10765000584A8B469B18F1000020009A04436A4068
:1076600003920F2C00D9ADE0534EA4003459A74625
:10767000404604436ED100210225082488468946ED
:107680000295D2E7009C0298C3464946019402281D
:1076900064D0032800D1ABE2012800D038E2019A7F
:1076A000002402400025A14660E0434623434AD01F
:1076B0004046002800D1C0E101F030FA031E272B1C
:1076C00000DDB3E128210D1A211C083B4246E940A8
:1076D0009A400D1C1543221C9A40A8469146374BF0
:1076E00000251B1A9A46002402959EE75A46164327
:1076F0000320002EB1D1B34600210220ADE75A4647
:1077000032431BD05B46002B00D18AE1584601F082
:1077100005FA272800DD7DE12822171A011C321CFA
:1077200008395B46FA408B40171C1F43331C8B40C3
:10773000BB46191C214B1B1A00208EE70027BB46B5
:107740000021012089E7002001250424804681468C
:1077500002956AE703250C24029566E7019C0394D1
:10776000039D01222A400024114DA1460020002142
:107770002403260B0C0D2405114B34432D05234007
:107780002B435B005B08D207191C4846114307B026
:107790003CBC90469946A246AB46F0BD00228024F0
:1077A00024039146024DE1E700240025A146DDE7D0
:1077B000FF07000001FCFFFFD09400000DFCFFFF5D
:1077C000FFFF0F805546ED1A0495D84500D953E1C7
:1077D00000D14EE1049C0025013C4E4604944746EE
:1077E000A946584603020C0E1C430902250C23042B
:1077F0001B0C0091381C291C0193FFF7BDFA01995D
:1078000083464143381C8A46291CFFF7F9FA330C9A
:10781000090419438A450CD95B460919013B8C427E
:1078200000D947E18A4500D844E1022252429344FC
:1078300009195346CB1A181C291C9846FFF79CFAC5
:10784000071C0198291C784382464046FFF7D8FA66
:1078500036040B04360C33439A4509D91B197A1E9A
:107860009C4200D924E19A4500D821E1023F1B192E
:107870005E4632041743380CBB46009E009F5146BB
:107880003F0C32045B1A5946BA46120C0F043F0CE7
:10789000904651467A434F434146414356467043D2
:1078A000CF19160CBE19B14202D980277F02C01928
:1078B000310C12043604120C4018B618834200D260
:1078C000C4E000D1BEE0191A4846861BB145BF414D
:1078D0007F42CF1BA74200D113E1291C381CFFF7C0
:1078E0004BFA019902904143381C8946291CFFF745
:1078F00087FA330C0904194389450CD9029B0919ED
:10790000013B8C4200D9FFE0894500D8FCE0029F92
:107910000919023F02974F46CF1B381C291C0597B7
:10792000FFF72AFA071C0198291C7843814605981D
:10793000FFF766FA36040904360C0E43B14509D93F
:1079400036197B1EB44200D9E0E0B14500D8DDE035
:10795000023F3619029D4946761A290439430B0421
:1079600057460A0C1B0C40464546584355437B433B
:107970007A43EB18070CDB199D4202D980256D0272
:1079800052191D0C00041B04000C52191B189642BE
:1079900035D300D1FCE001231943049E994FF5191A
:1079A000002D00DCA1E0480709D00F230B40042B79
:1079B00005D00B1D8B42894149428B44191C5A4604
:1079C000D20107D5904B5C46049E80271C40FF00E7
:1079D000A346F5198D4B9D427ADD039C012222407E
:1079E00000248B4DA146C1E680242403474627424C
:1079F0004CD13C432403240B009A854DB6E636193E
:107A0000481EB4425ED9011C9642C4D1009E9E42DB
:107A1000C1D1C2E7031C283B311C99408B46002191
:107A200088E6301C01F07AF8203072E6283B211CF1
:107A3000994000228846914651E6201C01F06EF8DC
:107A400020303BE60021B14500D33DE7009F5A4678
:107A5000B944B945BF417F423F19FB18013A9C42E6
:107A60001ED2984200D97EE000D1B5E0191A9346A3
:107A70002AE7894500D8ADE648464646424677089B
:107A8000D3074608C0071E438146AAE6584620424F
:107A900012D1044324032A1C240B89465C4D65E65D
:107AA000A342E3D1009F4F45DBD9211A93460BE750
:107AB000171CDDE69B46BCE63C432403240B009ADE
:107AC000534D53E6B24259D800D18AE0011C62E717
:107AD0005F46C9087B07039E0B437C026D050122AC
