:100000002FC053C052C051C0DCC44FC04EC04DC001
:100010004CC04BC04AC09DC248C047C046C045C046
:1000200044C07CC442C041C040C03FC03EC03DC08F
:100030003CC03BC03AC039C038C017C61FC12BC135
:1000400027C137C140C13FC13EC151C158C145C19F
:1000500060C13EC64BC655C657C676C647C67CC6A7
:10006000E6E6F2E085EC92E001C08193EF3FF9070C
:10007000E0F3D9F311241FBECFEFD2E0DEBFCDBF36
:1000800011E0A0E0B1E0ECEBFFE002C005900D92C2
:10009000A630B107D9F722E0A6E0B1E001C01D9279
:1000A000A636B207E1F7B4D687C7AACFEF92FF9280
:1000B0000F931F93CF93DF93EC01E22E2983688384
:1000C0005C834B8380E039D08A8300E010E0F12C20
:1000D0000F5F1F4F0E151F0554F4EB81FC81E00FDD
:1000E000F11F319760818A8128D08A83F1CFDF9117
:1000F000CF911F910F91FF90EF900895CF93DF93D1
:10010000FC01C381D4812181822F90E0DE01A80F00
:10011000B91F11975C914281541709F000002330F8
:1001200040F00397298130E08217930711F481E0B2
:10013000541380E0DF91CF910895682788E027E08D
:10014000962F990F67FF03C0692F622701C0692F9F
:100150008150B1F7862F0895682F89E0C3D480E0DD
:10016000D3D42ED21FD61092060108958091060195
:10017000813031F018F0823029F0089580E00AC013
:1001800081E008C0DCD124EF31E040E050E0A8D6A7
:10019000822F81706DC4CF93DF93FC01208130E00A
:1001A000A9014E5F5F4F848190E00197481759077E
:1001B00070F4A281B381A20FB31FEB0188819981F2
:1001C0008D939C9380818E5F808381E001C080E06D
:1001D000DF91CF910895CF93DF93FC01208130E030
:1001E000A9014F5F5F4F848190E00197481759073D
:1001F00060F4A281B381A20FB31FEB0188818C93BD
:1002000080818F5F808381E001C080E0DF91CF91AA
:100210000895BF92CF92DF92EF92FF920F931F93B8
:10022000CF93DF93CDB7DEB728970FB6F894DEBF34
:100230000FBECDBFC82E7B01B22EFB01D080242F74
:10024000AB01682FCE01019631DFCE01019656DF5A
:10025000882309F46BC010920A018981893009F062
:1002600062C0EC81FD81008110E00B30110508F0C7
:100270005DC0025E1F4F0F931F9308958A818430E3
:1002800008F054C080E040D4109206018BD54EC0D7
:1002900041D481114BC08A81853009F047C0EC817F
:1002A000FD81028113818CD18017910708F0C9C0AC
:1002B0003DC08A818630D1F50281138181D1081732
:1002C0001907A1F5B4C08A81853081F502811381B7
:1002D00077D10817190751F5B4C08A81863031F5F6
:1002E000028113816DD10817190701F5AEC067E0CF
:1002F00071E089E091E059D58823C1F0A2C08A81DC
:100300008830A1F4038114815BD10817190771F4B7
:10031000A7C08A81873051F40281138151D1081717
:10032000190721F4B0C0CE010196C2D4CA821E8240
:100330001982FC82EB82BD82F9E0CF1251C080911C
:100340000A01882309F470C084E0D81629F18D15BC
:1003500050F08FEF8D0D823008F066C031D19827B4
:100360008927982734C0E6E0DE1681F1DE16E8F032
:10037000F7E0DF1259C069E071E0CE0101962BDF92
:100380001FD198878F83BE01695F7F4FCE01019691
:1003900002DF67E071E020C0BDD38F83BE01695FDB
:1003A0007F4FCE01019617DF22C010E0812F43D18D
:1003B000082F8F83BE01695F7F4FCE0101960BDF4F
:1003C0000023A9F01F5F103289F711C031D198873F
:1003D0008F83BE01695F7F4FCE010196DCDE07C0CF
:1003E000BE016F5F7F4F8D2D34D58823E9F06C2DD2
:1003F00080E0A3DE00E010E0298130E0021713075F
:100400004CF4EB81FC81E00FF11F608196DE0F5F01
:100410001F4FF2CF8F83BE01695F7F4FCE010196E0
:10042000DADE898190E03BC080E090E038C08A81CC
:10043000853020F0EC81FD81848101C080E064D3AF
:1004400075CF81E080930A0171CF8A81853020F0D9
:10045000EC81FD81848101C080E08093060166CF3C
:100460008A81873028F0EC81FD816581768104C026
:1004700060E070E0833020F0EC81FD81828101C07A
:1004800080E0A3D453CF8A81863028F0EC81FD81AF
:100490008481958102C080E090E0BFD047CF28964C
:1004A0000FB6F894DEBF0FBECDBFDF91CF911F9185
:1004B0000F91FF90EF90DF90CF90BF90089589B794
:1004C000816089BF83B7836083BF78940895CF929A
:1004D000DF92EF92FF922FB7F89482B7C82ED12CFB
:1004E000E12CF12C08B600FE06C080E8C816D10445
:1004F000E104F104B0F040910B0150910C016091C6
:100500000D0170910E012FBF962F852F742F662736
:100510006C0D7D1D8E1D9F1DFF90EF90DF90CF9085
:1005200008958FEFD81AE80AF80AE5CFD0DF23E064
:10053000660F771F881F991F2A95D1F70895F6DF58
:1005400028EE33E040E050E0CBD4CA01B901089571
:1005500008951F920F920FB60F9211242F933F937D
:100560004F935F936F937F938F939F93AF93BF93BB
:10057000EF93FF9380910B0190910C01A0910D01DD
:10058000B0910E010196A11DB11D80930B019093B6
:100590000C01A0930D01B0930E01BFD2D9DFFF91E2
:1005A000EF91BF91AF919F918F917F916F915F91EB
:1005B0004F913F912F910F900FBE0F901F90189564
:1005C0000F931F9380910001909101010196F1F426
:1005D0008CED91E0CBD49093010180930001809148
:1005E000000190910101019689F4C1D18C0122276B
:1005F0003327602771277093010160930001609198
:100600000001709101018CED91E0B5D48091000161
:10061000909101011F910F91089590930101809392
:10062000000160910001709101018CED91E0A3C483
:100630008EED91E09BC4803238F490E080529E4F62
:100640008DD48F3F09F0089580E00895CF92DF9216
:10065000EF92FF92CF93DF93CDB7DEB728970FB617
:10066000F894DEBF0FBECDBFF894109273011092C4
:1006700072011092740182EA8093CA0089E180932A
:10068000C9008FE891E0A0E0B0E08D839E83AF8346
:10069000B8878D819E81AF81B8859093C10080938A
:1006A000C00082E081BB789482EA8FBD89E18EBD73
:1006B00081ED90E0A0E0B0E089839A83AB83BC83B6
:1006C00089819A81AB81BC8195BD84BD69817A8124
:1006D0008B819C8124E0C22ED12CE12CF12CA7012E
:1006E000960120D43BBD2ABD69817A818B819C8192
:1006F000A701960117D439BD28BD8AB38E688ABB7D
:10070000BA9AE7E6F0E0808185618083E8E6F0E070
:1007100080818065808328960FB6F894DEBF0FBE77
:10072000CDBFDF91CF91FF90EF90DF90CF900895F4
:1007300080911001811110C08091740181110CC051
:10074000409172015091730181E020910301309139
:1007500004014217530708F480E00895613608F059
:1007600060E66093100110920201FC01A2E1B1E089
:100770008091100190E09D012251314028173907E6
:100780001CF481918D93F4CF089580910F01089509
:100790009093040180930301089590911101903684
:1007A00051F0E091110191E09E0F90931101F0E062
:1007B000EE5EFE4F808308958091720190917301E7
:1007C000892B31F481E090E0909373018093720162
:1007D00080917201909173018F3F910568F080E0E4
:1007E000DCDF8091720190917301D7DF80917201FB
:1007F00090917301892F04C08091720190917301CF
:10080000CCDF1092730110927201089539B33170E8
:1008100021E0232720930F018091720190917301B1
:10082000019649F080917201909173010196909325
:1008300073018093720180917401813079F018F016
:10084000823089F00895222349F1B6DF81E0809358
:100850007401109273011092720108953323F1F024
:10086000ABDF82E004C0222329F0A6DF81E0809381
:1008700074010895209172013091730180910301F8
:10088000909104018217930748F46091110182E16D
:1008900091E0A6D2109211011092740108959091E6
:1008A000020180911001981740F4E0910201F0E0FC
:1008B000EE5EFE4F8081882359F190910201809174
:1008C0001001981758F01092020110921001109226
:1008D0007301109272011092110115C0E091020192
:1008E000F0E0EE5EFE4F80818150808380910201B6
:1008F00080FF08C0000087EC8093660081E0809351
:100900000F01089500001092660010920F010895E3
:10091000809102018F5F80930201C1CF1F920F92DD
:100920000FB60F9211242F933F934F935F936F93C2
:100930007F938F939F93AF93BF93EF93FF93809198
:100940001001882311F0ABDF01C060DFFF91EF9150
:10095000BF91AF919F918F917F916F915F914F91D7
:100960003F912F910F900FBE0F901F9018951092EE
:10097000760110927701109278011092790188E047
:10098000809375018EB581608EBDF89414BE81B5DB
:10099000806481BD7894809175011816E4F3F89411
:1009A00014BE81B58F7B81BD78948EB58E7F8EBD50
:1009B0006091760170917701809178019091790131
:1009C00008951F920F920FB60F9211242F934F93F9
:1009D0005F936F937F938F939F93AF93BF93809118
:1009E0007501815080937501409176015091770196
:1009F00060917801709179018091760190917701F1
:100A0000A0917801B09179018B2F9927AA27BB2754
:100A1000762F652F542F4427842B952BA62BB72B8D
:100A20008093760190937701A0937801B093790138
:100A30008091760190917701A0917801B091790130
:100A40002CB582278093760190937701A09378014B
:100A5000B0937901BF91AF919F918F917F916F91E9
:100A60005F914F912F910F900FBE0F901F9018958F
:100A70009AB321E030E0A9010090050102C0440FC3
:100A8000551F0A94E2F7942B9ABB90910501882395
:100A900049F08BB3092E01C0220F0A94EAF7822B8A
:100AA0008BBB08958BB3092E01C0220F0A94EAF77D
:100AB000209528232BBB0895882321F08091A40042
:100AC0008B7F03C08091A40084608093A4009091E8
:100AD000A400662311F082E001C083E0892B80939B
:100AE000A40008959CE09093A500662329F09091BE
:100AF000A50090639093A50098E09093A400880FC0
:100B000081608093A10008958093A001880F809355
:100B1000A20008958091A0010895CE990AC0809105
:100B20007A0190917B01019690937B0180937A01E9
:100B300004C010927B0110927A0180917A01909109
:100B40007B01843F914051F48091A500877F809381
:100B5000A5008091A50088608093A5000895CF929C
:100B6000DF92FF920F931F93CF93DF931F92CDB726
:100B7000DEB71091A30011FB002700F916FF37C064
:100B8000812F8170F82E8091A000C82ED12CD59491
:100B9000C79440917F0181E0411102C001118F256E
:100BA00061E06F25498388DF80917C014981823033
:100BB00061F4442351F020E260E871E080917D010E
:100BC00028DB80937F0110927E01F11003C0109208
:100BD0007C010BC0002321F081E080937C0105C0E3
:100BE00082E080937C0110927F01C0927D0117FF0B
:100BF00033C0002301F1E0917E0180917F01E8176D
:100C000068F481E08E0F80937E01F0E0E058FE4FA3
:100C100080818093A00060E081E004C01092A00079
:100C200061E080E00F90DF91CF911F910F91FF90D5
:100C3000DF90CF9041CF1091A00060E081E03CDFD9
:100C4000E0917F01E03240F481E08E0F80937F01DC
:100C5000F0E0E058FE4F10830F90DF91CF911F918D
:100C60000F91FF90DF90CF9008951F920F920FB6D3
:100C70000F9211242F933F934F935F936F937F9322
:100C80008F939F93AF93BF93EF93FF9368DFFF9191
:100C9000EF91BF91AF919F918F917F916F915F91F4
:100CA0004F913F912F910F900FBE0F901F9018956D
:100CB000CF93DF93FC01A381B4814C9150E0473086
:100CC000510508F056C0475D5F4F4F935F930895FD
:100CD0008181853009F04BC012968C9112978093D8
:100CE000A30113968C918093A20141C0918193300E
:100CF00010F0935001C090E081E0992309F44FC0B7
:100D000038C01092050233C08181853090F112966F
:100D10004C9180E090E050E0BA016B557E4F9C0111
:100D20002F5F3F4FA181A33018F0CDEFCA0F01C054
:100D3000C0E0D0E02C173D07D4F4EC01C40FD51F60
:100D4000C036D105C4F013C08181843091F412966D
:100D50008C918093A4010BC08181843028F012967D
:100D60008D919C91139702C080E090E011DD81E0AD
:100D700016C080E014C0B0E0EC012496AC17BD07AB
:100D800038F0A381B481A80FB91F1396AC9101C0AC
:100D9000A0E0EB01C80FD91FA883C901C0CFDF9124
:100DA000CF91089580E092E0F3CC2091A10122231D
:100DB00051F0FC0110828091050290E0FB019183CB
:100DC000808381E0089580E00895811108C08091BA
:100DD000050290E06817790711F41092A1010895B7
:100DE00020910502211113C06093050221E0209398
:100DF000A101FC0180E090E070E0861797073CF4C9
:100E00002191DC01AA5FBD4F2C930196F6CF089586
:100E100056DB80E0A1D91ADCA2DE8091A4018823F0
:100E200061F0F89485DC882339F06091A40185EAAB
:100E300091E094DC1092A40178947ADC882311F07C
:100E400095D9EACFA2DC882311F0DD9AE5CFDD98B1
:100E5000E3CFEF92FF920F931F93CF93DF931F92F5
:100E6000CDB7DEB78B01813001F118F0853001F18B
:100E70002EC0E12CF12C8091A20190E0E816F90639
:100E800024F5E091A30181E08E0F8093A301F0E0AF
:100E9000EA5FFD4F80818983BE016F5F7F4FC8018C
:100EA0009AD98FEFE81AF80AE6CF8091050207C0B9
:100EB0008091A401811102C03BDC01C080E08983E4
:100EC000BE016F5F7F4FC80186D981E001C080E01D
:100ED0000F90DF91CF911F910F91FF90EF900895A8
:100EE000A1E21A2EAA1BBB1BFD010DC0AA1FBB1F2E
:100EF000EE1FFF1FA217B307E407F50720F0A21BA0
:100F0000B30BE40BF50B661F771F881F991F1A940C
:100F100069F760957095809590959B01AC01BD0136
:100F2000CF010895052E97FB16F400940FD057FDBE
:100F300005D0D6DF07FC02D046F408C05095409596
:100F4000309521953F4F4F4F5F4F08959095809575
:100F5000709561957F4F8F4F9F4F0895E199FECF18
:100F60009FBB8EBBE09A99278DB30895A8E1B0E0AE
:100F700042E050E005C012D0272F11C0DC01CB01A8
:100F8000FC01E199FECF06C0FFBBEEBBE09A3196B3
:100F90000DB20D9241505040B8F70895262FE199B7
:100FA000FECF1CBA9FBB8EBB2DBB0FB6F894E29A46
:0C0FB000E19A0FBE01960895F894FFCF5F
:060FBC00FFFF0600020524
:00000001FF
