:1000000000CC41C040C03FC035C33DC03CC03BC038
:100010003AC039C038C092C236C035C034C033C0CF
:1000200032C031C030C02FC02EC02DC02CC02BC05C
:100030002AC029C028C027C026C070C40DC119C15C
:1000400015C124C12DC12CC12BC13EC145C132C136
:1000500011241FBECFEFD2E0DEBFCDBF11E0A0E084
:10006000B1E0EEE8FBE002C005900D92A430B107CC
:10007000D9F721E0A4E0B1E001C01D92AF33B2078F
:10008000E1F7B2D482C5BCCFEF92FF920F931F93DA
:10009000CF93DF93EC01E22E298368835C834B834B
:1000A00080E039D08A8300E010E0F12C0F5F1F4F11
:1000B0000E151F0554F4EB81FC81E00FF11F319701
:1000C00060818A8128D08A83F1CFDF91CF911F91FF
:1000D0000F91FF90EF900895CF93DF93FC01C381C0
:1000E000D4812181822F90E0DE01A80FB91F1197E2
:1000F0005C914281541709F00000233040F00397CF
:10010000298130E08217930711F481E0541380E0D5
:10011000DF91CF910895682788E027E0962F990F07
:1001200067FF03C0692F622701C0692F8150B1F7B3
:10013000862F0895682F89E02ED380E03ED335D2F4
:1001400023D410920401089580910401813031F08C
:1001500018F0823029F0089580E00AC081E008C0DC
:10016000E3D124EF31E040E050E0BFD4822F817032
:10017000D8C2CF93DF93FC01208130E0A9014E5F0C
:100180005F4F848190E001974817590770F4A2816E
:10019000B381A20FB31FEB01888199818D939C934A
:1001A00080818E5F808381E001C080E0DF91CF910C
:1001B0000895CF93DF93FC01208130E0A9014F5FC8
:1001C0005F4F848190E001974817590760F4A2813E
:1001D000B381A20FB31FEB0188818C9380818F5F65
:1001E000808381E001C080E0DF91CF910895BF92CC
:1001F000CF92DF92EF92FF920F931F93CF93DF93F3
:10020000CDB7DEB728970FB6F894DEBF0FBECDBFCF
:10021000C82E7B01B22EFB01D080242FAB01682FAA
:10022000CE01019631DFCE01019656DF882309F415
:1002300060C0109208018981893009F057C0EC81B3
:10024000FD81008110E00A30110508F052C0025E05
:100250001F4F0F931F9308958A81843008F049C07F
:1002600080E0ABD2109204018FD343C0ACD2811195
:1002700040C08A818530E9F5EC81FD8102811381DE
:1002800094D18017910708F0BFC033C08A818630AF
:1002900081F50281138189D10817190751F5AAC088
:1002A0008A81853031F5028113817FD108171907C2
:1002B00001F5AAC08A818630E1F40281138175D1EB
:1002C00008171907B1F4A4C065E071E087E091E078
:1002D0005CD3882371F098C08A81883051F40381FF
:1002E000148163D10817190721F49DC0CE0101962E
:1002F00038D3CA821E821982FC82EB82BD82F9E069
:10030000CF1251C080910801882309F470C084E0A5
:10031000D81629F18D1550F08FEF8D0D823008F031
:1003200066C043D198278927982734C0E6E0DE16B7
:1003300081F1DE16E8F0F7E0DF1259C067E071E006
:10034000CE01019636DF31D198878F83BE01695F78
:100350007F4FCE0101960DDF65E071E020C033D202
:100360008F83BE01695F7F4FCE01019622DF22C0DD
:1003700010E0812F4AD1082F8F83BE01695F7F4F24
:10038000CE01019616DF0023A9F01F5F103289F716
:1003900011C038D198878F83BE01695F7F4FCE012E
:1003A0000196E7DE07C0BE016F5F7F4F8D2D75D3CD
:1003B0008823E9F06C2D80E0AEDE00E010E02981BA
:1003C00030E0021713074CF4EB81FC81E00FF11FC2
:1003D0006081A1DE0F5F1F4FF2CF8F83BE01695F87
:1003E0007F4FCE010196E5DE898190E02FC080E04D
:1003F00090E02CC08A81853020F0EC81FD818481E1
:1004000001C080E0DAD175CF81E08093080171CF1F
:100410008A81853020F0EC81FD81848101C080E0FB
:100420008093040166CF8A81873028F0EC81FD81BA
:100430006581768104C060E070E0833020F0EC815B
:10044000FD81828101C080E0C3D253CF28960FB6D0
:10045000F894DEBF0FBECDBFDF91CF911F910F91FA
:10046000FF90EF90DF90CF90BF900895CF93DF93F0
:1004700000D0CDB7DEB789B96295660F607E68B9E6
:1004800085B1876085B92F9A2E9A2E99FECF86B1B5
:100490008A8387B1898329818A8190E0922B0F908A
:1004A0000F90DF91CF91089589B7816089BF83B79D
:1004B000836083BF78940895CF92DF92EF92FF928A
:1004C0002FB7F89482B7C82ED12CE12CF12C08B6A6
:1004D00000FE06C080E8C816D104E104F104B0F0C3
:1004E0004091090150910A0160910B0170910C013A
:1004F0002FBF962F852F742F66276C0D7D1D8E1DA7
:100500009F1DFF90EF90DF90CF9008958FEFD81A46
:10051000E80AF80AE5CFD0DF23E0660F771F881FCF
:10052000991F2A95D1F70895F6DF28EE33E040E0D1
:1005300050E0DBD2CA01B901089508951F920F92CD
:100540000FB60F9211242F933F934F935F936F93A6
:100550007F938F939F93AF93BF93EF93FF9380917C
:10056000090190910A01A0910B01B0910C01019633
:10057000A11DB11D8093090190930A01A0930B0165
:10058000B0930C0123D1D9DFFF91EF91BF91AF91CF
:100590009F918F917F916F915F914F913F912F919B
:1005A0000F900FBE0F901F9018950F931F9380917F
:1005B0000001909101010196F1F48CED91E0BFD220
:1005C00090930101809300018091000190910101BD
:1005D000019689F425D08C012227332760277127C3
:1005E000709301016093000160910001709101011D
:1005F0008CED91E0A9D280910001909101011F91B1
:100600000F9108958EED91E09AC2803238F490E017
:1006100080529E4F8CD28F3F09F0089580E008955C
:1006200010920E0110920F01109210011092110100
:1006300088E080930D018EB581608EBDF89414BE64
:1006400081B5806481BD789480910D011816E4F322
:10065000F89414BE81B58F7B81BD78948EB58E7F62
:100660008EBD60910E0170910F01809110019091EB
:10067000110108951F920F920FB60F9211242F931C
:100680004F935F936F937F938F939F93AF93BF939A
:1006900080910D01815080930D0140910E01509188
:1006A0000F01609110017091110180910E019091E4
:1006B0000F01A0911001B09111018B2F9927AA274A
:1006C000BB27762F652F542F4427842B952BA62BE1
:1006D000B72B80930E0190930F01A0931001B0935C
:1006E000110180910E0190910F01A0911001B09124
:1006F00011012CB5822780930E0190930F01A093D6
:100700001001B0931101BF91AF919F918F917F9193
:100710006F915F914F912F910F900FBE0F901F908F
:1007200018959AB321E030E0A9010090020102C0BF
:10073000440F551F0A94E2F7942B9ABB9091020143
:10074000882349F08BB3092E01C0220F0A94EAF7DF
:10075000822B8BBB08958BB3092E01C0220F0A9404
:10076000EAF7209528232BBB0895882321F0809158
:10077000A4008B7F03C08091A40084608093A400B8
:100780009091A400662311F082E001C083E0892BE0
:100790008093A40008959CE09093A500662329F01F
:1007A0009091A50090639093A50098E09093A40089
:1007B000880F81608093A100089580933801880F8D
:1007C0008093A2000895809138010895CE990AC0BF
:1007D00080911201909113010196909313018093DF
:1007E000120104C0109213011092120180911201A3
:1007F00090911301843F914051F48091A500877F2F
:100800008093A5008091A50088608093A50008953D
:10081000CF92DF92FF920F931F93CF93DF931F929C
:10082000CDB7DEB71091A30011FB002700F916FF2A
:1008300037C0812F8170F82E8091A000C82ED12C56
:10084000D594C7944091170181E0411102C0011174
:100850008F2561E06F25498388DF809114014981EC
:10086000823061F4442351F020E268E171E080912C
:100870001501BDDC8093170110921601F11003C021
:10088000109214010BC0002321F081E08093140129
:1008900005C082E08093140110921701C0921501E7
:1008A00017FF33C0002301F1E09116018091170179
:1008B000E81768F481E08E0F80931601F0E0E85E9F
:1008C000FE4F80818093A00060E081E004C0109220
:1008D000A00061E080E00F90DF91CF911F910F9118
:1008E000FF90DF90CF9041CF1091A00060E081E0B9
:1008F0003CDFE0911701E03240F481E08E0F8093FD
:100900001701F0E0E85EFE4F10830F90DF91CF916A
:100910001F910F91FF90DF90CF9008951F920F923B
:100920000FB60F9211242F933F934F935F936F93C2
:100930007F938F939F93AF93BF93EF93FF9368DF62
:10094000FF91EF91BF91AF919F918F917F916F91A7
:100950005F914F913F912F910F900FBE0F901F907D
:100960001895DC011396ED91FC91149720812230AB
:1009700048F411969C91933010F0935001C090E090
:1009800081E0911180E00895089520913D012111A9
:1009900012C020913C0121110EC020913B01222365
:1009A00041F021E0FC01208320913A01809139013E
:1009B00008C080E00895FC01108220913D018091E3
:1009C0003C0190E0922BFB019183808381E00895AC
:1009D000811105C010923D0110923C0108958130B3
:1009E00011F410923B010895CF93DF9300D01F9232
:1009F000CDB7DEB759DD81E09DDB80916200846078
:100A00008093620011E060E08BE030DD9695879581
:100A1000969587958B8360E08AE028DD969587958B
:100A2000969587958A8386B382FB882780F98127EC
:100A30008983F8948981882321F080913E0188235D
:100A400019F180913E01882319F089818823F9F0FA
:100A50009B8180913A0198131DC09A818091390140
:100A6000981318C08B8180933A018A818093390151
:100A7000898180933E0178948FE097E20197F1F7A6
:100A800000C0000061DBBFCF10933D01DACF1093AF
:100A90003C01DECF10933B01E5CF0F931F93CF9323
:100AA000DF931F92CDB7DEB78B01882369F08130C9
:100AB000A9F480913A018983BE016F5F7F4FC8011D
:100AC00078DB8091390102C080913E018983BE01AB
:100AD0006F5F7F4FC8016DDB81E001C080E00F9048
:100AE000DF91CF911F910F910895A1E21A2EAA1BB9
:100AF000BB1BFD010DC0AA1FBB1FEE1FFF1FA217CE
:100B0000B307E407F50720F0A21BB30BE40BF50BCA
:100B1000661F771F881F991F1A9469F76095709553
:100B2000809590959B01AC01BD01CF010895E1999D
:100B3000FECF9FBB8EBBE09A99278DB30895A8E1A5
:100B4000B0E042E050E005C012D0272F11C0DC0118
:100B5000CB01FC01E199FECF06C0FFBBEEBBE09AE2
:100B600031960DB20D9241505040B8F70895262F9E
:100B7000E199FECF1CBA9FBB8EBB2DBB0FB6F8947C
:100B8000E29AE19A0FBE01960895F894FFCFFFFF15
:100B90000500FFFFFFFFFFFFFFFFFFFFFFFFFFFF5E
:100BA000FFFFFFFFFFFFFFFFFFFFFFFFFFFFFFFF55
:100BB000FFFFFFFFFFFFFFFFFFFFFFFFFFFFFFFF45
:100BC000FFFFFFFFFFFFFFFFFFFFFFFFFFFFFFFF35
:100BD000FFFFFFFFFFFFFFFFFFFFFFFFFFFFFFFF25
:1017F000FFFFFFFFFFFFFFFFFFFFFFFFFFFF28C40B
:10180000540F11241FBECFEFD2E0DEBFCDBF11E0D9
:10181000A0E0B1E0ECE4FFE102C005900D92A2303F
:10182000B107D9F721E0A2E0B1E001C01D92A932D1
:10183000B207E1F718E1C2E0D8E103C02297FE0148
:1018400038D3C030D107D1F702D07EC3D9C31CD35F
:10185000D6DF80E090E00895FC011182108221E043
:1018600022830895FC0162830895FC0180819181A7
:101870000895CF93DF93EC018CED91E02ED38F3F51
:101880002FEF920711F481E090E099838883DF9134
:10189000CF910895FC01718360838CED91E043C387
:1018A000E0E0F0E021E220935700249131E2309310
:1018B0005700349161E2609357006491862F90E065
:1018C000A0E0B0E077276627732B622B0895CA014A
:1018D000422F50E0F2C2CA01422F50E003C3D59A12
:1018E000662311F0DD9A0895DD9808950F931F93F4
:1018F000407F66277727D90110E0421B530BCD01AB
:10190000821B930B8017910734F4FA01EA0FFB1F37
:10191000E491ED93F4CF80E190E01F910F91089551
:10192000CF92DF92EF92FF920F931F93CF936A01B2
:101930007B01AFE0CA22DD24EE24FF24CD28CE288F
:10194000CF2809F058C0DC011296EC91EE2359F033
:10195000411551056105710531F4EFEFD901EC93A3
:10196000EBEC1196EC93FC018281882339F0411550
:10197000F8E15F076105710508F03DC0DB01CA01B0
:101980008F739927AA27BB27892B8A2B8B2B51F47E
:1019900007B600FCFDCFE199FECF83E0FA0180930A
:1019A0005700E89580E090E010E0C1E080179107D3
:1019B000C4F4F901E80FF91FA181B0E0BA2FAA27FA
:1019C000E081AE2B07B600FCFDCFE199FECFFC0114
:1019D000E40FF51F0D01C0935700E89511240296FE
:1019E000E5CF07B600FCFDCFE199FECF85E0FA0117
:1019F00080935700E895CF911F910F91FF90EF9042
:101A0000DF90CF9008950F93CF93DF93CDB7DEB7DC
:101A100060970FB6F894DEBF0FBECDBF407C66273F
:101A20007727FC012281222331F04115F8E15F077D
:101A30006105710518F507B600FCFDCFE199FECFF1
:101A400033E0FA0130935700E8952223A1F0452BAB
:101A5000462B472B81F4FE013196AE014F5E5F4F5E
:101A60009F016FEF6193E417F507E1F700E140E0B4
:101A700050E0BA0155DF07B600FCFDCF60960FB607
:101A8000F894DEBF0FBECDBFDF91CF910F910895C7
:101A9000882321F08091A4008B7F03C08091A40053
:101AA00084608093A4009091A400662311F082E0EA
:101AB00001C083E0892B8093A40008959CE090935B
:101AC000A500882329F08091A50080638093A5005C
:101AD00088E08093A40083E18093A10008950F9390
:101AE0001F93CF93DF931F92CDB7DEB78091A300F2
:101AF00081FB112710F986FF36C0082F0170409135
:101B0000050181E0411102C01111802761E06027C9
:101B10004983BEDF809102014981823061F4442310
:101B200051F020E266E071E080910301ABD0809338
:101B3000050110920401011103C0109202010BC0B3
:101B4000112321F081E08093020105C082E080939F
:101B50000201109205018091A00090E09595879573
:101B60008093030132C087FF30C01123E9F0E09178
:101B7000040180910501E81768F481E08E0F8093DD
:101B80000401F0E0EA5FFE4F80818093A00060E0F6
:101B900081E004C01092A00061E080E00F90DF912E
:101BA000CF911F910F9174CF1091A00060E081E060
:101BB0006FDFE0910501E03240F481E08E0F809309
:101BC0000501F0E0EA5FFE4F10830F90DF91CF91A7
:101BD0001F910F9108951F920F920FB60F9211242B
:101BE0002F933F934F935F936F937F938F939F9325
:101BF000AF93BF93EF93FF9372DFFF91EF91BF918C
:101C0000AF919F918F917F916F915F914F913F9194
:101C10002F910F900FBE0F901F9018950F931F9349
:101C2000FC0123816281862F90E0A0E0B0E077275D
:101C30006627922B018110E0102F00272081022BB4
:101C4000222717FD2095322F602B712B822B932B8F
:101C50001F910F910895CF93DF93FC01C181D0E0D4
:101C6000DC2FCC278081C82B86E291E0FEDD21E0CD
:101C700030E0C817D90711F020E030E0C901DF914A
:101C8000CF9108950F931F93CF93DF93EB01042F10
:101C9000433008F4F2C08881883609F458C068F4EB
:101CA000853611F128F48823E1F08436D1F0E5C0BF
:101CB000863639F18736C1F1E0C08B3609F48EC023
:101CC00038F4893609F464C08A3609F475C0D5C081
:101CD0008D3609F4ACC008F497C08E3609F4BAC04A
:101CE000CCC010920001C9C0453009F0C6C0CB017C
:101CF0000296B1DF892B09F4C0C081E08883198284
:101D0000B1C0453009F0B9C00B8110E0102F002799
:101D10008A81082B86E291E0A8DD0817190708F0F0
:101D2000ACC0888399839EC0473009F0A6C0CB0120
:101D3000029691DF892B09F4A0C06D8170E0762FA7
:101D400066278C81682B86E291E0A4DD96C0453041
:101D500009F093C0CB0102967EDF892B09F48DC078
:101D600086E291E09DDD40E050E08B019C01042E75
:101D700004C036952795179507950A94D2F70993CD
:101D8000485F5F4F4032510581F784E090E077C0B3
:101D90004A3009F072C0CB0102965DDF892B09F44D
:101DA0006CC0CE0104963ADFAB01BC0108859E01F0
:101DB00086E291E09BDD63C0493009F05EC0CB0153
:101DC000029649DF892B09F458C0CE01049626DF1C
:101DD000AB01BC0186E291E016DE4FC0493008F449
:101DE0004CC0CB01029637DF892B09F446C0CE01E7
:101DF000049614DFAB01BC0109509E01285F3F4FE0
:101E000086E291E08DDD39C04A30B9F5CB0102960A
:101E100022DF892B91F1CE01049600DF1885212F56
:101E2000AE0186E291E053DD812F90E028C0493079
:101E300020F1CB0102960FDF892BF9F0CE01049639
:101E4000EDDE27EF200FAE01485F5F4F86E291E0A5
:101E500042DD13C0443089F4CB010196FCDE892BAE
:101E600021F40BC082E090E00AC061E08B81811117
:101E700001C060E086E291E0F5DC80E090E0DF9177
:101E8000CF911F910F91089586E291E0F2DC80E0FE
:101E900015DE61E086E291E022DD80910001882379
:101EA00011F01DDEFACF089586E291E0D5CCEE0F59
:101EB000FF1F0590F491E02D0994DC01CB01FC019A
:101EC000E199FECF06C0FFBBEEBBE09A31960DB2A2
:101ED0000D9241505040B8F70895A8E1B0E042E0BB
:101EE00050E0EDCFDC01A40FB51F4150504040F051
:101EF000CB01840F951F2E9105D041505040D8F74B
:101F00000895262FE199FECF9FBB8EBBE09A0197E3
:101F10000DB2021639F01CBA2DBB0FB6F894E29A36
:101F2000E19A0FBE089502D0272F01C0262FE19914
:101F3000FECF1CBA9FBB8EBB2DBB0FB6F894E29AA6
:101F4000E19A0FBE01960895F894FFCF0100FFFFBC
:101F5000FFFFFFFFFFFFFFFFFFFFFFFFFFFFFFFF91
:101F6000FFFFFFFFFFFFFFFFFFFFFFFFFFFFFFFF81
:101F7000FFFFFFFFFFFFFFFFFFFFFFFFFFFFFFFF71
:101F8000FFFFFFFFFFFFFFFFFFFFFFFFFFFFFFFF61
:101F9000FFFFFFFFFFFFFFFFFFFFFFFFFFFFFFFF51
:101FA000FFFFFFFFFFFFFFFFFFFFFFFFFFFFFFFF41
:101FB000FFFFFFFFFFFFFFFFFFFFFFFFFFFFFFFF31
:101FC000FFFFFFFFFFFFFFFFFFFFFFFFFFFFFFFF21
:101FD000FFFFFFFFFFFFFFFFFFFFFFFFFFFFFFFF11
:101FE000FFFFFFFFFFFFFFFFFFFFFFFFFFFFFFFF01
:101FF000FFFFFFFFFFFFFFFFFFFFFFFFFFFFFFFFF1
:00000001FF
