:1000000028C042C041C040C058C33EC03DC03CC0F3
:100010003BC03AC039C0AAC237C036C035C034C0B0
:1000200033C032C031C030C02FC02EC02DC02CC054
:100030002BC02AC029C028C027C093C40EC11AC132
:1000400016C126C12FC12EC12DC140C147C134C127
:100050004FC111241FBECFEFD2E0DEBFCDBF11E0F4
:10006000A0E0B1E0E4EDFBE002C005900D92A43009
:10007000B107D9F721E0A4E0B1E001C01D92AF3390
:10008000B207E1F7D4D4A4C5BBCFEF92FF920F9390
:100090001F93CF93DF93EC01E22E298368835C8367
:1000A0004B8380E039D08A8300E010E0F12C0F5FB1
:1000B0001F4F0E151F0554F4EB81FC81E00FF11F5B
:1000C000319760818A8128D08A83F1CFDF91CF91E7
:1000D0001F910F91FF90EF900895CF93DF93FC0154
:1000E000C381D4812181822F90E0DE01A80FB91F46
:1000F00011975C914281541709F00000233040F0C1
:100100000397298130E08217930711F481E054139B
:1001100080E0DF91CF910895682788E027E0962F4F
:10012000990F67FF03C0692F622701C0692F8150B3
:10013000B1F7862F0895682F89E050D380E060D30F
:100140004CD245D41092040108958091040181306D
:1001500031F018F0823029F0089580E00AC081E083
:1001600008C0FAD124EF31E040E050E0E1D4822F22
:100170008170FAC2CF93DF93FC01208130E0A901A6
:100180004E5F5F4F848190E001974817590770F4E4
:10019000A281B381A20FB31FEB01888199818D9356
:1001A0009C9380818E5F808381E001C080E0DF913D
:1001B000CF910895CF93DF93FC01208130E0A90116
:1001C0004F5F5F4F848190E001974817590760F4B3
:1001D000A281B381A20FB31FEB0188818C93808130
:1001E0008F5F808381E001C080E0DF91CF9108952F
:1001F000BF92CF92DF92EF92FF920F931F93CF9314
:10020000DF93CDB7DEB728970FB6F894DEBF0FBEE9
:10021000CDBFC82E7B01B22EFB01D080242FAB01B5
:10022000682FCE01019631DFCE01019656DF88237B
:1002300009F46BC0109208018981893009F062C00D
:10024000EC81FD81008110E00B30110508F05DC0EC
:10025000025E1F4F0F931F9308958A81843008F028
:1002600054C080E0CDD210920401B1D34EC0CED2A2
:1002700081114BC08A81853009F047C0EC81FD8136
:1002800002811381AAD18017910708F0C9C03DC02F
:100290008A818630D1F5028113819FD10817190711
:1002A000A1F5B4C08A81853081F50281138195D191
:1002B0000817190751F5B4C08A81863031F50281DB
:1002C00013818BD10817190701F5AEC065E071E005
:1002D00087E091E07DD38823C1F0A2C08A81883075
:1002E000A1F40381148179D10817190771F4A7C00B
:1002F0008A81873051F4028113816FD10817190761
:1003000021F4B0C0CE0101964FD3CA821E82198259
:10031000FC82EB82BD82F9E0CF1251C080910801CE
:10032000882309F470C084E0D81629F18D1550F0A7
:100330008FEF8D0D823008F066C04FD19827892746
:10034000982734C0E6E0DE1681F1DE16E8F0F7E02B
:10035000DF1259C067E071E0CE0101962BDF3DD17D
:1003600098878F83BE01695F7F4FCE01019602DFC0
:1003700065E071E020C04AD28F83BE01695F7F4F84
:10038000CE01019617DF22C010E0812F61D1082F26
:100390008F83BE01695F7F4FCE0101960BDF002383
:1003A000A9F01F5F103289F711C04FD198878F8352
:1003B000BE01695F7F4FCE010196DCDE07C0BE0142
:1003C0006F5F7F4F8D2D8CD38823E9F06C2D80E0FB
:1003D000A3DE00E010E0298130E0021713074CF49F
:1003E000EB81FC81E00FF11F608196DE0F5F1F4FF4
:1003F000F2CF8F83BE01695F7F4FCE010196DADEB7
:10040000898190E03BC080E090E038C08A818530EF
:1004100020F0EC81FD81848101C080E0F1D175CFB5
:1004200081E08093080171CF8A81853020F0EC81D2
:10043000FD81848101C080E08093040166CF8A81C0
:10044000873028F0EC81FD816581768104C060E011
:1004500070E0833020F0EC81FD81828101C080E07A
:10046000DAD253CF8A81863028F0EC81FD818481F5
:10047000958102C080E090E0DDD047CF28960FB68E
:10048000F894DEBF0FBECDBFDF91CF911F910F91CA
:10049000FF90EF90DF90CF90BF900895CF93DF93C0
:1004A00000D0CDB7DEB789B96295660F607E68B9B6
:1004B00085B1876085B92F9A2E9A2E99FECF86B185
:1004C0008A8387B1898329818A8190E0922B0F905A
:1004D0000F90DF91CF91089589B7816089BF83B76D
:1004E000836083BF78940895CF92DF92EF92FF925A
:1004F0002FB7F89482B7C82ED12CE12CF12C08B676
:1005000000FE06C080E8C816D104E104F104B0F092
:100510004091090150910A0160910B0170910C0109
:100520002FBF962F852F742F66276C0D7D1D8E1D76
:100530009F1DFF90EF90DF90CF9008958FEFD81A16
:10054000E80AF80AE5CFD0DF23E0660F771F881F9F
:10055000991F2A95D1F70895F6DF28EE33E040E0A1
:1005600050E0E6D2CA01B901089508951F920F9292
:100570000FB60F9211242F933F934F935F936F9376
:100580007F938F939F93AF93BF93EF93FF9380914C
:10059000090190910A01A0910B01B0910C01019603
:1005A000A11DB11D8093090190930A01A0930B0135
:1005B000B0930C012ED1D9DFFF91EF91BF91AF9194
:1005C0009F918F917F916F915F914F913F912F916B
:1005D0000F900FBE0F901F9018950F931F9380914F
:1005E0000001909101010196F1F48CED91E0CAD2E5
:1005F000909301018093000180910001909101018D
:10060000019689F430D08C01222733276027712787
:1006100070930101609300016091000170910101EC
:100620008CED91E0B4D280910001909101011F9175
:100630000F91089590930101809300016091000152
:10064000709101018CED91E0A2C28EED91E09AC211
:10065000803238F490E080529E4F8CD28F3F09F068
:10066000089580E0089510920E0110920F011092EB
:1006700010011092110188E080930D018EB5816008
:100680008EBDF89414BE81B5806481BD789480914C
:100690000D011816E4F3F89414BE81B58F7B81BD6B
:1006A00078948EB58E7F8EBD60910E0170910F0192
:1006B000809110019091110108951F920F920FB631
:1006C0000F9211242F934F935F936F937F938F9388
:1006D0009F93AF93BF9380910D01815080930D0143
:1006E00040910E0150910F01609110017091110124
:1006F00080910E0190910F01A0911001B091110114
:100700008B2F9927AA27BB27762F652F542F442795
:10071000842B952BA62BB72B80930E0190930F0162
:10072000A0931001B093110180910E0190910F01DF
:10073000A0911001B09111012CB5822780930E0178
:1007400090930F01A0931001B0931101BF91AF914D
:100750009F918F917F916F915F914F912F910F900A
:100760000FBE0F901F9018959AB321E030E0A901B9
:100770000090020102C0440F551F0A94E2F7942B27
:100780009ABB90910201882349F08BB3092E01C0D6
:10079000220F0A94EAF7822B8BBB08958BB3092EA4
:1007A00001C0220F0A94EAF7209528232BBB089555
:1007B000882321F08091A4008B7F03C08091A40046
:1007C00084608093A4009091A400662311F082E0DD
:1007D00001C083E0892B8093A40008959CE090934E
:1007E000A500662329F09091A50090639093A50041
:1007F00098E09093A400880F81608093A1000895F1
:1008000080933801880F8093A20008958091380169
:100810000895CE990AC0809112019091130101961A
:10082000909313018093120104C01092130110924F
:1008300012018091120190911301843F914051F473
:100840008091A500877F8093A5008091A500886096
:100850008093A5000895CF92DF92FF920F931F938C
:10086000CF93DF931F92CDB7DEB71091A30011FB9A
:10087000002700F916FF37C0812F8170F82E809174
:10088000A000C82ED12CD594C7944091170181E0C7
:10089000411102C001118F2561E06F25498388DF76
:1008A000809114014981823061F4442351F020E2A7
:1008B00068E171E0809115019BDC80931701109233
:1008C0001601F11003C0109214010BC0002321F097
:1008D00081E08093140105C082E08093140110929E
:1008E0001701C092150117FF33C0002301F1E091F9
:1008F000160180911701E81768F481E08E0F80934C
:100900001601F0E0E85EFE4F80818093A00060E079
:1009100081E004C01092A00061E080E00F90DF91C0
:10092000CF911F910F91FF90DF90CF9041CF109109
:10093000A00060E081E03CDFE0911701E03240F48C
:1009400081E08E0F80931701F0E0E85EFE4F108388
:100950000F90DF91CF911F910F91FF90DF90CF907B
:1009600008951F920F920FB60F9211242F933F9369
:100970004F935F936F937F938F939F93AF93BF93A7
:10098000EF93FF9368DFFF91EF91BF91AF919F913C
:100990008F917F916F915F914F913F912F910F9028
:1009A0000FBE0F901F901895DC011396ED91FC91EE
:1009B00014972081223048F411969C91933010F0C6
:1009C000935001C090E081E0911180E00895089576
:1009D00020913D01211112C020913C0121110EC036
:1009E00020913B01222341F021E0FC012083209152
:1009F0003A018091390108C080E00895FC0110821D
:100A000020913D0180913C0190E0922BFB0191836C
:100A1000808381E00895811105C010923D011092FC
:100A20003C010895813011F410923B010895CF9359
:100A3000DF9300D01F92CDB7DEB74EDD81E07BDBC8
:100A40008091620084608093620011E060E08BE03E
:100A500025DD96958795969587958B8360E08AE04E
:100A60001DDD96958795969587958A8386B382FB3B
:100A7000882780F981278983F8948981882321F048
:100A800080913E01882319F180913E01882319F05D
:100A900089818823F9F09B8180913A0198131DC0C8
:100AA0009A8180913901981318C08B8180933A0103
:100AB0008A8180933901898180933E0178948FE007
:100AC00097E20197F1F700C000003FDBBFCF109322
:100AD0003D01DACF10933C01DECF10933B01E5CF0F
:100AE0000F931F93CF93DF931F92CDB7DEB78B0188
:100AF000882369F08130A9F480913A018983BE018D
:100B00006F5F7F4FC80156DB8091390102C0809131
:100B10003E018983BE016F5F7F4FC8014BDB81E0DF
:100B200001C080E00F90DF91CF911F910F91089548
:100B3000A1E21A2EAA1BBB1BFD010DC0AA1FBB1FE1
:100B4000EE1FFF1FA217B307E407F50720F0A21B53
:100B5000B30BE40BF50B661F771F881F991F1A94C0
:100B600069F760957095809590959B01AC01BD01EA
:100B7000CF010895E199FECF9FBB8EBBE09A9927E4
:100B80008DB30895A8E1B0E042E050E005C012D076
:100B9000272F11C0DC01CB01FC01E199FECF06C07B
:100BA000FFBBEEBBE09A31960DB20D924150504022
:100BB000B8F70895262FE199FECF1CBA9FBB8EBBD4
:100BC0002DBB0FB6F894E29AE19A0FBE01960895F4
:040BD000F894FFCFC7
:040BD400FFFF05001A
:00000001FF
