:1000000030C054C053C052C098C450C04FC04EC03E
:100010004DC04CC04BC087C249C048C047C046C055
:1000200045C044C043C042C041C040C03FC03EC0C4
:100030003DC03CC03BC03AC039C0D3C520C12CC173
:1000400028C137C140C13FC13EC151C158C145C19E
:10005000EAC3F2C3FCC306C415C41DC427C431C41B
:10006000C60711241FBECFEFD2E0DEBFCDBF11E027
:10007000A0E0B1E0E0EAF1E102C005900D92A43009
:10008000B107D9F721E0A4E0B1E001C01D92AE3480
:10009000B207E1F710E0C2E6D0E003C02297FE010C
:1000A0001DD8C036D107D1F796D678C8A9CFEF9220
:1000B000FF920F931F93CF93DF93EC01E22E2983DE
:1000C00068835C834B8380E039D08A8300E010E052
:1000D000F12C0F5F1F4F0E151F0554F4EB81FC81AF
:1000E000E00FF11F319760818A8128D08A83F1CF98
:1000F000DF91CF911F910F91FF90EF900895CF93D3
:10010000DF93FC01C381D4812181822F90E0DE0145
:10011000A80FB91F11975C914281541709F0000094
:10012000233040F00397298130E08217930711F4C0
:1001300081E0541380E0DF91CF910895682788E033
:1001400027E0962F990F67FF03C0692F622701C030
:10015000692F8150B1F7862F0895682F89E07ED4EA
:1001600080E08ED417D2F7D51092040108958091C3
:100170000401813031F018F0823029F0089580E0D8
:100180000AC081E008C0C5D124EF31E040E050E072
:1001900024D7822F817028C4CF93DF93FC01208164
:1001A00030E0A9014E5F5F4F848190E001974817CE
:1001B000590770F4A281B381A20FB31FEB018881AC
:1001C00099818D939C9380818E5F808381E001C0B3
:1001D00080E0DF91CF910895CF93DF93FC012081E0
:1001E00030E0A9014F5F5F4F848190E0019748178D
:1001F000590760F4A281B381A20FB31FEB0188817C
:100200008C9380818F5F808381E001C080E0DF91EB
:10021000CF910895BF92CF92DF92EF92FF920F930A
:100220001F93CF93DF93CDB7DEB728970FB6F8941F
:10023000DEBF0FBECDBFC82E7B01B22EFB01D0802A
:10024000242FAB01682FCE01019631DFCE0101963C
:1002500056DF882309F460C0109208018981893033
:1002600009F057C0EC81FD81008110E00A301105D2
:1002700008F052C0025E1F4F0F931F9308958A81AA
:10028000843008F049C080E0FBD31092040163D5AC
:1002900043C0FCD3811140C08A818530E9F5EC81EF
:1002A000FD810281138176D18017910708F0BFC0CC
:1002B00033C08A81863081F5028113816BD10817A2
:1002C000190751F5AAC08A81853031F50281138161
:1002D00061D10817190701F5AAC08A818630E1F4B7
:1002E0000281138157D108171907B1F4A4C065E042
:1002F00071E087E091E040D5882371F098C08A8151
:10030000883051F40381148145D10817190721F46D
:100310009DC0CE010196ADD4CA821E821982FC8294
:10032000EB82BD82F9E0CF1251C080910801882391
:1003300009F470C084E0D81629F18D1550F08FEFC4
:100340008D0D823008F066C025D19827892798271F
:1003500034C0E6E0DE1681F1DE16E8F0F7E0DF12E9
:1003600059C067E071E0CE01019636DF13D198875E
:100370008F83BE01695F7F4FCE0101960DDF65E07F
:1003800071E020C083D38F83BE01695F7F4FCE01B0
:10039000019622DF22C010E0812F2CD1082F8F83FD
:1003A000BE01695F7F4FCE01019616DF0023A9F0E1
:1003B0001F5F103289F711C01AD198878F83BE0151
:1003C000695F7F4FCE010196E7DE07C0BE016F5F18
:1003D0007F4F8D2D84D48823E9F06C2D80E0AEDE34
:1003E00000E010E0298130E0021713074CF4EB81A4
:1003F000FC81E00FF11F6081A1DE0F5F1F4FF2CF84
:100400008F83BE01695F7F4FCE010196E5DE898152
:1004100090E02FC080E090E02CC08A81853020F0F1
:10042000EC81FD81848101C080E02AD375CF81E019
:100430008093080171CF8A81853020F0EC81FD81A5
:10044000848101C080E08093040166CF8A81873077
:1004500028F0EC81FD816581768104C060E070E068
:10046000833020F0EC81FD81828101C080E0A7D43F
:1004700053CF28960FB6F894DEBF0FBECDBFDF91E5
:10048000CF911F910F91FF90EF90DF90CF90BF9091
:10049000089589B7816089BF83B7836083BF7894EB
:1004A0000895CF92DF92EF92FF922FB7F89482B720
:1004B000C82ED12CE12CF12C08B600FE06C080E835
:1004C000C816D104E104F104B0F040910901509143
:1004D0000A0160910B0170910C012FBF962F852F9F
:1004E000742F66276C0D7D1D8E1D9F1DFF90EF9054
:1004F000DF90CF9008958FEFD81AE80AF80AE5CF79
:10050000D0DF23E0660F771F881F991F2A95D1F748
:100510000895F6DF28EE33E040E050E05ED5CA01F2
:10052000B901089508951F920F920FB60F921124EA
:100530002F933F934F935F936F937F938F939F93EB
:10054000AF93BF93EF93FF938091090190910A01BC
:10055000A0910B01B0910C010196A11DB11D8093DA
:10056000090190930A01A0930B01B0930C0191D261
:10057000D9DFFF91EF91BF91AF919F918F917F91C3
:100580006F915F914F913F912F910F900FBE0F9000
:100590001F9018950F931F93809100019091010176
:1005A0000196F1F48CED91E0D3D590930101809305
:1005B00000018091000190910101019689F493D18D
:1005C0008C012227332760277127709301016093E4
:1005D000000160910001709101018CED91E0BDD5A9
:1005E00080910001909101011F910F9108958EED6E
:1005F00091E0AEC5803238F490E080529E4FA0D595
:100600008F3F09F0089580E00895FC0180818130DA
:1006100019F08230D9F008952295207F862F8370BB
:10062000282B4295440F440F407C422B4FBD8EB582
:1006300070E0759567957595679543E0660F771F30
:100640004A95E1F7877E862B8EBD08952295207FFF
:10065000862F8370282B4295440F440F407C422BF9
:100660004093CA008091C90070E0759567957595B3
:10067000679523E0660F771F2A95E1F7877E862B23
:100680008093C9000895FC018081813019F0823087
:1006900031F008958EB5887F862B8EBD08958091A8
:1006A000C900887F862B8093C9000895FC013181A1
:1006B0002091660081E090E0032E01C0880F0A942B
:1006C000EAF7662321F0282B209366000895809591
:1006D0008223809366000895FC018081813019F0A7
:1006E000823021F0089575BD64BD08957093C100F6
:1006F0006093C0000895CF93DF93EC0180E090E019
:100700002A813B8140E050E08CD4B901CA012FEF2F
:100710003FEF40E050E061D4898181709881913051
:1007200019F0923049F013C0882319F03BBD2ABD5F
:100730000EC039BD28BD0BC0882329F03093C500F9
:100740002093C40004C03093C3002093C200DF9103
:10075000CF9108951F93CF93DF93EC019A01AB01E2
:10076000220F331F441F551F60E072E18AE790E0BB
:1007700034D4CA01B9012230310541055105A0F137
:100780006130710521E08207910580F068307105C4
:1007900028E08207910570F06034710520E482073B
:1007A000910560F020E031E014E00BC021E030E082
:1007B00011E007C028E030E012E003C020E430E0A0
:1007C00013E0442737FD4095542F07D421503109B9
:1007D0003B832A83612FCE0156DF6A817B81CE0164
:1007E000DF91CF911F9178CFDF91CF911F91089525
:1007F000CF93DF93EC01688349831B821A8222E046
:1008000042E068E002DF42E350E060E070E0CE01E9
:10081000A1DF498150E04830510508F061C0FA017C
:10082000E85DFF4F0994809167008C7F809367009B
:1008300080916700988122C080916700837F8093B8
:100840006700909167008881880F880F17C080919A
:1008500067008F7C80936700909167008881829504
:10086000807F0CC0809167008F73809367009091A8
:10087000670088818295880F880F807C892B809300
:1008800067002EC0809168008C7F80936800809103
:100890006800988122C080916800837F80936800FF
:1008A000909168008881880F880F17C08091680038
:1008B0008F7C809368009091680088818295807F0A
:1008C0000CC0809168008F738093680090916800DD
:1008D00088818295880F880F807C892B809368009F
:1008E000DF91CF91089510920E0110920F01109296
:1008F00010011092110188E080930D018EB5816086
:100900008EBDF89414BE81B5806481BD78948091C9
:100910000D011816E4F3F89414BE81B58F7B81BDE8
:1009200078948EB58E7F8EBD60910E0170910F010F
:10093000809110019091110108951F920F920FB6AE
:100940000F9211242F934F935F936F937F938F9305
:100950009F93AF93BF9380910D01815080930D01C0
:1009600040910E0150910F016091100170911101A1
:1009700080910E0190910F01A0911001B091110191
:100980008B2F9927AA27BB27762F652F542F442713
:10099000842B952BA62BB72B80930E0190930F01E0
:1009A000A0931001B093110180910E0190910F015D
:1009B000A0911001B09111012CB5822780930E01F6
:1009C00090930F01A0931001B0931101BF91AF91CB
:1009D0009F918F917F916F915F914F912F910F9088
:1009E0000FBE0F901F9018959AB321E030E0A90137
:1009F0000090020102C0440F551F0A94E2F7942BA5
:100A00009ABB90910201882349F08BB3092E01C053
:100A1000220F0A94EAF7822B8BBB08958BB3092E21
:100A200001C0220F0A94EAF7209528232BBB0895D2
:100A3000882321F08091A4008B7F03C08091A400C3
:100A400084608093A4009091A400662311F082E05A
:100A500001C083E0892B8093A40008959CE09093CB
:100A6000A500662329F09091A50090639093A500BE
:100A700098E09093A400880F81608093A10008956E
:100A800080933801880F8093A200089580913801E7
:100A90000895CE990AC08091120190911301019698
:100AA000909313018093120104C0109213011092CD
:100AB00012018091120190911301843F914051F4F1
:100AC0008091A500877F8093A5008091A500886014
:100AD0008093A5000895CF92DF92FF920F931F930A
:100AE000CF93DF931F92CDB7DEB71091A30011FB18
:100AF000002700F916FF37C0812F8170F82E8091F2
:100B0000A000C82ED12CD594C7944091170181E044
:100B1000411102C001118F2561E06F25498388DFF3
:100B2000809114014981823061F4442351F020E224
:100B300068E171E0809115016DDB809317011092DF
:100B40001601F11003C0109214010BC0002321F014
:100B500081E08093140105C082E08093140110921B
:100B60001701C092150117FF33C0002301F1E09176
:100B7000160180911701E81768F481E08E0F8093C9
:100B80001601F0E0E85EFE4F80818093A00060E0F7
:100B900081E004C01092A00061E080E00F90DF913E
:100BA000CF911F910F91FF90DF90CF9041CF109187
:100BB000A00060E081E03CDFE0911701E03240F40A
:100BC00081E08E0F80931701F0E0E85EFE4F108306
:100BD0000F90DF91CF911F910F91FF90DF90CF90F9
:100BE00008951F920F920FB60F9211242F933F93E7
:100BF0004F935F936F937F938F939F93AF93BF9325
:100C0000EF93FF9368DFFF91EF91BF91AF919F91B9
:100C10008F917F916F915F914F913F912F910F90A5
:100C20000FBE0F901F9018950F931F93CF93DF93D4
:100C30009C01EB018A01B901BFD1BC01609570959F
:100C40008AE491E058DDCE01BE01B6D1BC016095C9
:100C5000709586E491E04FDDC801B801ADD1BC01CB
:100C60006095709582E491E0DF91CF911F910F9193
:100C700042CDDC011396ED91FC9114979081923056
:100C800071F09330E9F0911128C011968C91833066
:100C900010F09DEF980F81E0992301F11EC011968D
:100CA0008C918530D1F480913A0190913B01228161
:100CB0003381820F931F90933B0180933A010BC0C5
:100CC00011968C91863049F4448150E0638170E044
:100CD000828190E0A9DF81E0089580E00895FB0122
:100CE0006091410140913D0150913E01882319F0EE
:100CF0008130C1F02CC0208130E0A9014F5F5F4FEF
:100D0000848190E001974817590718F5A281B381B3
:100D1000A20FB31F81E0611101C080E08C9380813C
:100D20008F5F13C0208130E0B9016E5F7F4F8481F7
:100D300090E001976817790760F4A281B381A20F50
:100D4000B31F4D935C9380818E5F808302C080E0EF
:100D5000089581E00895EAE3F1E020813181808106
:100D60009181821B930B9183808340E050E060E08F
:100D700070E080E090E058CF20914001211112C036
:100D800020913F0121110EC020913C01222341F00E
:100D900021E0FC01208380913D0190913E010AC039
:100DA00080E00895FC0110822091400180913F0174
:100DB00090E0922BFB019183808381E00895811163
:100DC00005C01092400110923F010895813011F446
:100DD00010923C010895CF93DF93CDB7DEB72897EB
:100DE0000FB6F894DEBF0FBECDBF53DB81E0B5D99F
:100DF00040E050E060E070E080E090E015DF42E12C
:100E00005AE760E070E08AE491E0A4DC42E15AE74E
:100E100060E070E086E491E09DDC42E15AE760E04A
:100E200070E082E491E096DC61E08AE491E03EDCEF
:100E300061E086E491E03ADC61E082E491E036DC56
:100E400080916200836080936200D19AD79ABA9AA7
:100E5000212C312C412C512C612C712C812C912C6A
:100E60001E8286B326B3217081FD08C080913901AE
:100E7000222309F476C0882309F46DC02093390138
:100E800089B382FB882780F989832E81821307C06A
:100E900037DB1B012C01612C712C430132C030DB8C
:100EA0005B016C019101A201B301C401205F384DC7
:100EB0004F4F5F4F6F4F7F4F8F4F9F4FE22FB32F9B
:100EC000A42F5F83F62F7B838C839D839501A601DE
:100ED00060E070E080E090E0AE2EBB2ECA2EDF8096
:100EE000EF2EFB800C811D81EED059F050F08981EE
:100EF0008E83212C312C412C512C612C712C812C76
:100F0000912CF89480913A0190913B0191958195B3
:100F1000910920913D0130913E012817390739F0A0
:100F2000E1E0E0933C0190933E0180933D0180918C
:100F30004101811103C0FE81F11120C08091410166
:100F4000882319F02E812223E9F08E8180934101BC
:100F500078940DD986CF80913A0190913B0101960A
:100F600008C0882309F48ACF80913A0190913B010F
:100F7000019790933B0180933A0180CF91E0909349
:100F80004001DCCFE1E0E0933F01DFCF40E061E0F2
:100F90008AE491E02DDC46E062E086E491E028DC22
:100FA00047E062E082E491E023DC10923901109284
:100FB0003B0110923A0108950024552704C0080E01
:100FC000591F880F991F009729F076956795B8F3F8
:100FD0007105B9F7802D952F0895A1E21A2EAA1B4D
:100FE000BB1BFD010DC0AA1FBB1FEE1FFF1FA217D9
:100FF000B307E407F50720F0A21BB30BE40BF50BD6
:10100000661F771F881F991F1A9469F7609570955E
:10101000809590959B01AC01BD01CF010895689426
:101020000013E894A0E0B0E0E7E1F8E01DC0EFEFC6
:10103000E7F959016A015E23550FEE08FE2C87017E
:101040009B01AC019E23990F660B762FCB014AD0F2
:10105000CDB7DEB7EAE024C02F923F924F925F9265
:101060006F927F928F929F92AF92BF92CF92DF92B8
:10107000EF92FF920F931F93CF93DF93CDB7DEB71D
:10108000CA1BDB0B0FB6F894DEBF0FBECDBF0994B1
:101090002A88398848885F846E847D848C849B8408
:1010A000AA84B984C884DF80EE80FD800C811B8116
:1010B000AA81B981CE0FD11D0FB6F894DEBF0FBE45
:1010C000CDBFED0108952A153B054C055D056E0564
:1010D0007F05800791070895EE0FFF1F0590F4919B
:1010E000E02D0994DF93CF939F92A0E49A2E0024E1
:1010F000D001E001F00116950795F794E794D79495
:10110000C794B794A79448F41068A20FB31FC41FE4
:10111000D51FE61FF71F081E191E220F331F441F7D
:10112000551F661F771F881F991F9A9421F79D01ED
:10113000AE01BF01C00111249F90CF91DF910895AE
:10114000E199FECF9FBB8EBBE09A99278DB308959E
:10115000A8E1B0E042E050E005C012D0272F11C056
:10116000DC01CB01FC01E199FECF06C0FFBBEEBB69
:10117000E09A31960DB20D9241505040B8F7089563
:10118000262FE199FECF1CBA9FBB8EBB2DBB0FB69D
:10119000F894E29AE19A0FBE01960895F894FFCF71
:0411A000FFFF050048
:00000001FF
