:1000000038C05CC05BC05AC005C558C057C056C098
:1000100055C054C053C08FC251C050C04FC04EC015
:100020004DC04CC04BC04AC049C048C047C046C084
:1000300045C044C043C042C041C082C828C134C189
:1000400030C13FC148C147C146C159C160C14DC15E
:1000500057C45FC469C473C482C48AC494C49EC4B0
:10006000B1C8CAC8CFC8E1C8E6C8F0C8F9C80DC948
:10007000470A11241FBECFEFD2E0DEBFCDBF11E093
:10008000A0E0B1E0E8EAF6E102C005900D92A031EF
:10009000B107D9F722E0A0E1B1E001C01D92AF366F
:1000A000B207E1F710E0C2E7D0E003C02297FE01FB
:1000B00099DAC037D107D1F7ADD9F4CAA1CFEF9201
:1000C000FF920F931F93CF93DF93EC01E22E2983CE
:1000D00068835C834B8380E039D08A8300E010E042
:1000E000F12C0F5F1F4F0E151F0554F4EB81FC819F
:1000F000E00FF11F319760818A8128D08A83F1CF88
:10010000DF91CF911F910F91FF90EF900895CF93C2
:10011000DF93FC01C381D4812181822F90E0DE0135
:10012000A80FB91F11975C914281541709F0000084
:10013000233040F00397298130E08217930711F4B0
:1001400081E0541380E0DF91CF910895682788E023
:1001500027E0962F990F67FF03C0692F622701C020
:10016000692F8150B1F7862F0895682F89E025D730
:1001700080E035D717D2FFD81092100108958091F2
:100180001001813031F018F0823029F0089580E0BC
:100190000AC081E008C0C5D124EF31E040E050E062
:1001A0008DD9822F81708DC4CF93DF93FC01208184
:1001B00030E0A9014E5F5F4F848190E001974817BE
:1001C000590770F4A281B381A20FB31FEB0188819C
:1001D00099818D939C9380818E5F808381E001C0A3
:1001E00080E0DF91CF910895CF93DF93FC012081D0
:1001F00030E0A9014F5F5F4F848190E0019748177D
:10020000590760F4A281B381A20FB31FEB0188816B
:100210008C9380818F5F808381E001C080E0DF91DB
:10022000CF910895BF92CF92DF92EF92FF920F93FA
:100230001F93CF93DF93CDB7DEB728970FB6F8940F
:10024000DEBF0FBECDBFC82E7B01B22EFB01D0801A
:10025000242FAB01682FCE01019631DFCE0101962C
:1002600056DF882309F460C0109214018981893017
:1002700009F057C0EC81FD81008110E00A301105C2
:1002800008F052C0025E1F4F0F931F9308958A819A
:10029000843008F049C080E0A2D6109210016BD8DB
:1002A00043C0A3D6811140C08A818530E9F5EC8135
:1002B000FD810281138176D18017910708F0BFC0BC
:1002C00033C08A81863081F5028113816BD1081792
:1002D000190751F5AAC08A81853031F50281138151
:1002E00061D10817190701F5AAC08A818630E1F4A7
:1002F0000281138157D108171907B1F4A4C061E135
:1003000071E083E191E0FCD7882371F098C08A8185
:10031000883051F40381148145D10817190721F45D
:100320009DC0CE01019638D7CA821E821982FC82F6
:10033000EB82BD82F9E0CF1251C080911401882375
:1003400009F470C084E0D81629F18D1550F08FEFB4
:100350008D0D823008F066C025D19827892798270F
:1003600034C0E6E0DE1681F1DE16E8F0F7E0DF12D9
:1003700059C063E171E0CE01019636DF13D1988751
:100380008F83BE01695F7F4FCE0101960DDF61E172
:1003900071E020C02AD68F83BE01695F7F4FCE01F6
:1003A000019622DF22C010E0812F2CD1082F8F83ED
:1003B000BE01695F7F4FCE01019616DF0023A9F0D1
:1003C0001F5F103289F711C01AD198878F83BE0141
:1003D000695F7F4FCE010196E7DE07C0BE016F5F08
:1003E0007F4F8D2D68D78823E9F06C2D80E0AEDE3D
:1003F00000E010E0298130E0021713074CF4EB8194
:10040000FC81E00FF11F6081A1DE0F5F1F4FF2CF73
:100410008F83BE01695F7F4FCE010196E5DE898142
:1004200090E02FC080E090E02CC08A81853020F0E1
:10043000EC81FD81848101C080E0D1D575CF81E060
:100440008093140171CF8A81853020F0EC81FD8189
:10045000848101C080E08093100166CF8A8187305B
:1004600028F0EC81FD816581768104C060E070E058
:10047000833020F0EC81FD81828101C080E064D76F
:1004800053CF28960FB6F894DEBF0FBECDBFDF91D5
:10049000CF911F910F91FF90EF90DF90CF90BF9081
:1004A000089589B7816089BF83B7836083BF7894DB
:1004B0000895CF92DF92EF92FF922FB7F89482B710
:1004C000C82ED12CE12CF12C08B600FE06C080E825
:1004D000C816D104E104F104B0F040911501509127
:1004E000160160911701709118012FBF962F852F6B
:1004F000742F66276C0D7D1D8E1D9F1DFF90EF9044
:10050000DF90CF9008958FEFD81AE80AF80AE5CF68
:10051000D0DF23E0660F771F881F991F2A95D1F738
:100520000895F6DF28EE33E040E050E0C7D7CA0177
:10053000B901089508951F920F920FB60F921124DA
:100540002F933F934F935F936F937F938F939F93DB
:10055000AF93BF93EF93FF93809115019091160194
:10056000A0911701B09118010196A11DB11D8093B2
:10057000150190931601A0931701B093180138D577
:10058000D9DFFF91EF91BF91AF919F918F917F91B3
:100590006F915F914F913F912F910F900FBE0F90F0
:1005A0001F9018950F931F93809100019091010166
:1005B0000196F1F48CED91E04FD890930101809376
:1005C00000018091000190910101019689F4F8D118
:1005D0008C012227332760277127709301016093D4
:1005E000000160910001709101018CED91E039D81A
:1005F00080910001909101011F910F9108958EED5E
:1006000091E02AC8803238F490E080529E4F1CD886
:100610008F3F09F0089580E0089520911901821B11
:100620009109181619062CF5D89A22E02A95F1F7A7
:1006300000C0DB9842E04A95F1F700C020E030E0CE
:10064000409119014F33F0F5D89842E04A95F1F7FF
:1006500000C0D89A42E04A95F1F700C040911901D4
:100660004F5F409319012F5F3F4F2817390741F71C
:1006700029C0009769F1919581959109D89822E058
:100680002A95F1F700C0DB9842E04A95F1F700C0E7
:1006900020E030E0409119014423A1F0D89A42E0D3
:1006A0004A95F1F700C0D89842E04A95F1F700C0AA
:1006B000409119014150409319012F5F3F4F281776
:1006C000390744F3DB9A82E08A95F1F700C0089578
:1006D0000895DB9ADB9AD39AD09A109219018FE38E
:1006E00090E09BCFFC018081813019F08230D9F0FD
:1006F00008952295207F862F8370282B4295440FE2
:10070000440F407C422B4FBD8EB570E075956795C8
:100710007595679543E0660F771F4A95E1F7877EE9
:10072000862B8EBD08952295207F862F8370282BDF
:100730004295440F440F407C422B4093CA00809165
:10074000C90070E0759567957595679523E0660F0C
:10075000771F2A95E1F7877E862B8093C90008953D
:10076000FC018081813019F0823031F008958EB51E
:10077000887F862B8EBD08958091C900887F862B47
:100780008093C9000895FC0131812091660081E0C9
:1007900090E0032E01C0880F0A94EAF7662321F047
:1007A000282B20936600089580958223809366000D
:1007B0000895FC018081813019F0823021F0089584
:1007C00075BD64BD08957093C1006093C000089525
:1007D000CF93DF93EC0180E090E02A813B8140E001
:1007E00050E0ACD6B901CA012FEF3FEF40E050E036
:1007F00065D6898181709881913019F0923049F0E5
:1008000013C0882319F03BBD2ABD0EC039BD28BDD9
:100810000BC0882329F03093C5002093C40004C086
:100820003093C3002093C200DF91CF9108951F93AE
:10083000CF93DF93EC019A01AB01220F331F441FCA
:10084000551F60E072E18AE790E038D6CA01B9012D
:100850002230310541055105A0F16130710521E0DB
:100860008207910580F06830710528E082079105C4
:1008700070F06034710520E48207910560F020E09B
:1008800031E014E00BC021E030E011E007C028E0C7
:1008900030E012E003C020E430E013E0442737FDED
:1008A0004095542F0BD6215031093B832A83612F69
:1008B000CE0156DF6A817B81CE01DF91CF911F91FE
:1008C00078CFDF91CF911F910895CF93DF93EC0103
:1008D000688349831B821A8222E042E068E002DFDB
:1008E00042E350E060E070E0CE01A1DF498150E0DA
:1008F0004830510508F061C0FA01E85DFF4F0994E6
:10090000809167008C7F8093670080916700988159
:1009100022C080916700837F809367009091670079
:100920008881880F880F17C0809167008F7C809323
:1009300067009091670088818295807F0CC08091CC
:1009400067008F738093670090916700888182951C
:10095000880F880F807C892B809367002EC0809140
:1009600068008C7F8093680080916800988122C025
:1009700080916800837F80936800909168008881EF
:10098000880F880F17C0809168008F7C8093680063
:100990009091680088818295807F0CC0809168006A
:1009A0008F73809368009091680088818295880F8A
:1009B000880F807C892B80936800DF91CF91089508
:1009C00010921B0110921C0110921D0110921E0129
:1009D00088E080931A018EB581608EBDF89414BEB4
:1009E00081B5806481BD789480911A011816E4F372
:1009F000F89414BE81B58F7B81BD78948EB58E7FBF
:100A00008EBD60911B0170911C0180911D01909120
:100A10001E0108951F920F920FB60F9211242F936B
:100A20004F935F936F937F938F939F93AF93BF93F6
:100A300080911A01815080931A0140911B015091BD
:100A40001C0160911D0170911E0180911B0190910C
:100A50001C01A0911D01B0911E018B2F9927AA277F
:100A6000BB27762F652F542F4427842B952BA62B3D
:100A7000B72B80931B0190931C01A0931D01B09391
:100A80001E0180911B0190911C01A0911D01B0914C
:100A90001E012CB5822780931B0190931C01A0930B
:100AA0001D01B0931E01BF91AF919F918F917F91D6
:100AB0006F915F914F912F910F900FBE0F901F90EC
:100AC00018959AB321E030E0A9010090020102C01C
:100AD000440F551F0A94E2F7942B9ABB90910201A0
:100AE000882349F08BB3092E01C0220F0A94EAF73C
:100AF000822B8BBB08958BB3092E01C0220F0A9461
:100B0000EAF7209528232BBB08956170813019F0F6
:100B1000823049F00895662319F05BBD4ABD0895FF
:100B200059BD48BD0895662329F05093C5004093F0
:100B3000C40008955093C3004093C2000895FC017F
:100B400014821582168217821086118612861386E9
:100B500084E190E09587848780E890E09787868796
:100B600040E85FEF6FEF7FEF408B518B628B738BB1
:100B70000895FC01648175818681978108950F93A2
:100B80001F93FC010481158126813781040F151FF5
:100B9000261F371F04831583268337831F910F91E8
:100BA00008958F929F92AF92BF92EF92FF920F9310
:100BB0001F93CF93DF93EC017901CB01BA0120E0C1
:100BC00034E040E050E09CD497FF03C07C5F8F4F3F
:100BD0009F4F88889988AA88BB8886229722A82256
:100BE000B922BB27B7FCBA95AB2D9A2D892DB5013B
:100BF000A401552766277727242F382F3D7F3130D2
:100C000009F42095C20FD11D2C8930E0F701318302
:100C10002083815091E0823008F090E0F8019083C9
:100C2000DF91CF911F910F91FF90EF90BF90AF9008
:100C30009F908F900895FC015587448740E051E0D4
:100C400002C0559547952A95E2F75787468766274C
:100C500057FD6095762F70956095509541955F4F43
:100C60006F4F7F4F408B518B628B738B0895FC01CC
:100C7000408751876287738708954F925F926F9282
:100C80007F928F929F92AF92BF92CF92DF92EF921C
:100C9000FF920F931F93CF93DF93CDB7DEB72E97BD
:100CA0000FB6F894DEBF0FBECDBF6C017B01DB0138
:100CB00012968D909C901397A12CB12CFC0144802E
:100CC000558066807780F0E84F0E511C611C711CC6
:100CD0008E010A5F1F4F9E012D5F3F4FB301A2019E
:100CE00060DF8E81811126C04FEF5FEFD701119633
:100CF0006C9111978C9109DF2B813C8140E050E091
:100D0000C501B4011BD42F83388749875A876B8765
:100D10007C878D879E878F819885A985BA85492F85
:100D20005A2F6B2F7727D70115966C91159714962C
:100D30008C9122C02B813C8140E050E0C501B40180
:100D4000FDD32F83388749875A876B877C878D87A8
:100D50009E878F819885A985BA85492F5A2F6B2F39
:100D60007727D70111966C9111978C91CEDE4FEFBA
:100D70005FEFF70165818481C8DEB301A2015150A4
:100D8000610971098E010B5F1F4F9E012F5F3F4F5D
:100D9000C60107DF8D81811117C04FEF5FEFD701CB
:100DA00019966C91199718968C91AFDE29813A812A
:100DB00040E050E0C501B401C1D339014A017727B1
:100DC000692D582D472D16C029813A8140E050E009
:100DD000C501B401B3D339014A017727692D582DD4
:100DE000472DD70119966C91199718968C918DDE25
:100DF0004FEF5FEFF7016585848587DE2E960FB68E
:100E0000F894DEBF0FBECDBFDF91CF911F910F9140
:100E1000FF90EF90DF90CF90BF90AF909F908F901A
:100E20007F906F905F904F9008954F925F926F9276
:100E30007F92BF92CF92DF92EF92FF920F931F9318
:100E4000CF93DF93FC01D90100811181228133818D
:100E5000400F511F621F731F40835183628373834E
:100E6000C484D584E12CF12C4C155D056E057F05FD
:100E700008F45BC0B12C40815181628173814C15B3
:100E80005D056E057F0508F44BC04C195D096E09C0
:100E90007F09408351836283738304811581268196
:100EA00037814085518562857385041715072607AC
:100EB0003707ACF4C685D7852E01662457FC6094AD
:100EC000762C400E511E621E731E44165506660691
:100ED0007706FCF44482558266827782CCCF401735
:100EE0005107620773073CF6C685D7852E01662435
:100EF00057FC6094762C0419150926093709401708
:100F00005107620773072CF4048315832683378304
:100F1000B2CF4483558366837783BB24B394ABCF2E
:100F2000BD01CF01AADE8B2D01C080E0DF91CF9102
:100F30001F910F91FF90EF90DF90CF90BF907F9027
:100F40006F905F904F90089520E030E0FC01E20F39
:100F5000F31F148A2F5F3F4F20383105B9F720E087
:100F600030E0FC01E20FF31FEC56FF4F422F440F1D
:100F700040832F5F3F4F2038310599F70895CF9375
:100F8000DF93EC01E1DFCE01DF91CF91D8CD882353
:100F900021F08091A4008B7F03C08091A400846025
:100FA0008093A4009091A400662311F082E001C018
:100FB00083E0892B8093A40008959CE09093A50082
:100FC000662329F09091A50090639093A50098E086
:100FD0009093A400880F81608093A100089580936E
:100FE0004501880F8093A2000895809145010895DE
:100FF000CE990AC080911F01909120010196909393
:10100000200180931F0104C01092200110921F0143
:1010100080911F0190912001843F914051F4809173
:10102000A500877F8093A5008091A50088608093AC
:10103000A5000895CF92DF92FF920F931F93CF9355
:10104000DF931F92CDB7DEB71091A30011FB0027ED
:1010500000F916FF37C0812F8170F82E8091A00013
:10106000C82ED12CD594C7944091240181E0411120
:1010700002C001118F2561E06F25498388DF8091CF
:1010800021014981823061F4442351F020E265E27C
:1010900071E080912201C6D880932401109223012F
:1010A000F11003C0109221010BC0002321F081E058
:1010B0008093210105C082E08093210110922401D8
:1010C000C092220117FF33C0002301F1E0912301F8
:1010D00080912401E81768F481E08E0F809323014A
:1010E000F0E0EB5DFE4F80818093A00060E081E046
:1010F00004C01092A00061E080E00F90DF91CF91DA
:101100001F910F91FF90DF90CF9041CF1091A000E1
:1011100060E081E03CDFE0912401E03240F481E0D6
:101120008E0F80932401F0E0EB5DFE4F10830F9053
:10113000DF91CF911F910F91FF90DF90CF90089595
:101140001F920F920FB60F9211242F933F934F933C
:101150005F936F937F938F939F93AF93BF93EF931F
:10116000FF9368DFFF91EF91BF91AF919F918F91B6
:101170007F916F915F914F913F912F910F900FBE93
:101180000F901F901895B99A80934A01811102C05F
:10119000C1980895C19A0895CF92DF92EF92FF927D
:1011A0001F93CF93DF93EC01EB81FC81408150E0F2
:1011B0004830510508F076C0405D5F4F89814F93FC
:1011C0005F930895863009F06DC0C381D481128188
:1011D000143008F065C080914A01813011F081E03F
:1011E000D2DF812F90E0880F991F880F991FBE01D1
:1011F000815A9D4FEDDA54C0843009F053C082818A
:10120000C2DF4EC0853009F04DC0C280D380CFE52B
:10121000D2E0E12CF12CB701A601CE0108DB249627
:1012200082E0CF36D807B9F73BC08430D9F5828148
:1012300090E0F3D935C08630A9F54281538160E052
:1012400070E024818BE491E0F6DC2AC0833018F052
:101250009DEF980F01C090E081E0992321F122C019
:10126000873001F582E08FDF8981863038F0EB81AD
:10127000FC81428153816481758103C040E050E06C
:10128000BA018BE491E0F3DC0BC0853059F4428164
:101290005381662757FD6095762F8BE491E06FDCD4
:1012A00081E001C080E0DF91CF911F91FF90EF902E
:1012B000DF90CF900895CF93DF93EB018530D1F489
:1012C0008BE491E056DC488150E0FA0134962C81A1
:1012D00030E021503109E217F30770F4EA81FB8115
:1012E000E40FF51F608371838283938388818C5F11
:1012F000888302C080E001C081E0DF91CF91089532
:1013000020914601222331F0FC011082FB01118261
:10131000108216C020914801211104C0209147017C
:10132000222381F021E0FC0120838091470190E09D
:10133000880F991F20914801822BFB0191838083A4
:1013400081E0089580E00895813081F48091470123
:1013500090E0880F991F20914801822B6817790728
:1013600049F410924801109247010895811102C07A
:10137000109246010895EF92FF920F931F93CF931F
:10138000DF93C7E0D1E053E0E52E51E0F52E0FE505
:1013900012E0E991F9918081D7019D917D01892B1E
:1013A000808340E355E760E070E0C80140DA0C5FFD
:1013B0001F4FB1E0CF30DB0761F7809162008160A1
:1013C000809362008BE491E0BADB80E0DCDECFE565
:1013D000D2E040E355E760E070E0CE0128DA2496E1
:1013E00082E0CF36D807A9F774D9CFE5D2E060E024
:1013F00070E0CE01EDD961E0CE01C5D92496A2E01E
:10140000CF36DA07A1F7DF91CF911F910F91FF90AF
:10141000EF90089581E0A9D644D821E044E150E05E
:1014200060E070E08BE491E006DC43D84B015C01A6
:10143000C1E0A5D63ED86B017C0180914A01823083
:1014400081F4B701A601481959096A097B092FE5FA
:1014500032E08BE491E0E9DC90914601982B909387
:10146000460186B381708C2790914901891303C08E
:1014700046015701DECF80934901882329F0C093AC
:10148000480110924701F4CFC0934701F1CF46E0E5
:1014900062E08FE592E019DA47E062E083E692E0ED
:1014A00014DA40E061E087E692E00FDA41E061E0C3
:1014B0008BE692E00ADA8BE491E061CDA1E21A2E8C
:1014C000AA1BBB1BFD010DC0AA1FBB1FEE1FFF1FE8
:1014D000A217B307E407F50720F0A21BB30BE40B38
:1014E000F50B661F771F881F991F1A9469F760957F
:1014F0007095809590959B01AC01BD01CF01089539
:10150000052E97FB16F400940FD057FD05D0D6DFBB
:1015100007FC02D046F408C05095409530952195BF
:101520003F4F4F4F5F4F089590958095709561950F
:101530007F4F8F4F9F4F089568940013E894A0E069
:10154000B0E0E4EAFAE01DC0EFEFE7F959016A0103
:101550005E23550FEE08FE2C87019B01AC019E23F4
:10156000990F660B762FCB0141D0CDB7DEB7EAE0FD
:1015700024C02F923F924F925F926F927F928F92F0
:101580009F92AF92BF92CF92DF92EF92FF920F9312
:101590001F93CF93DF93CDB7DEB7CA1BDB0B0FB61C
:1015A000F894DEBF0FBECDBF09942A8839884888D9
:1015B0005F846E847D848C849B84AA84B984C8846F
:1015C000DF80EE80FD800C811B81AA81B981CE0F66
:1015D000D11D0FB6F894DEBF0FBECDBFED0108954B
:1015E000EE0FFF1F0590F491E02D0994DF93CF9348
:1015F0009F92A0E49A2E0024D001E001F0011695FC
:101600000795F794E794D794C794B794A79448F4B0
:101610001068A20FB31FC41FD51FE61FF71F081EB7
:10162000191E220F331F441F551F661F771F881F67
:10163000991F9A9421F79D01AE01BF01C0011124A9
:101640009F90CF91DF910895E199FECF9FBB8EBB14
:10165000E09A99278DB30895A8E1B0E042E050E008
:1016600005C012D0272F11C0DC01CB01FC01E1998C
:10167000FECF06C0FFBBEEBBE09A31960DB20D92D5
:1016800041505040B8F70895262FE199FECF1CBA7B
:101690009FBB8EBB2DBB0FB6F894E29AE19A0FBEAA
:0816A00001960895F894FFCFB4
:1016A800FFFF05800402043A0037003A003A0000C0
:00000001FF
