:1000000000CC6FC06EC06DC085C36BC06AC069C0D4
:1000100068C067C066C0D7C264C063C062C061C048
:1000200060C05FC05EC05DC05CC05BC05AC059C0EC
:1000300058C057C056C055C054C0C0C43BC147C1CA
:1000400043C153C15CC15BC15AC16DC174C161C1BF
:100050007CC108000000BE922449123EABAAAA2A25
:10006000BECDCCCC4C3E00000080BEABAAAAAA3EBE
:1000700000000000BF000000803F000000000008FA
:100080004178D3BB4387D1133D190E3CC3BD428297
:10009000AD2B3E68EC8276BED98FE1A93E4C80EF55
:1000A000FFBE01C4FF7F3F000000000011241FBEFF
:1000B000CFEFD2E0DEBFCDBF11E0A0E0B1E0ECE4D5
:1000C000F1E102C005900D92A430B107D9F721E00B
:1000D000A4E0B1E001C01D92AD33B207E1F7F0D466
:1000E00033C88ECFEF92FF920F931F93CF93DF937E
:1000F000EC01E22E298368835C834B8380E039D056
:100100008A8300E010E0F12C0F5F1F4F0E151F05D2
:1001100054F4EB81FC81E00FF11F319760818A81FB
:1001200028D08A83F1CFDF91CF911F910F91FF905B
:10013000EF900895CF93DF93FC01C381D481218197
:10014000822F90E0DE01A80FB91F11975C914281C8
:10015000541709F00000233040F00397298130E064
:100160008217930711F481E0541380E0DF91CF915F
:100170000895682788E027E0962F990F67FF03C04E
:10018000692F622701C0692F8150B1F7862F08952A
:10019000682F89E050D380E060D34CD23ED41092D7
:1001A0000401089580910401813031F018F082300B
:1001B00029F0089580E00AC081E008C0FAD124EF58
:1001C00031E040E050E070D7822F8170FAC2CF93C7
:1001D000DF93FC01208130E0A9014E5F5F4F8481F5
:1001E00090E001974817590770F4A281B381A20FDC
:1001F000B31FEB01888199818D939C9380818E5FE1
:10020000808381E001C080E0DF91CF910895CF939A
:10021000DF93FC01208130E0A9014F5F5F4F8481B3
:1002200090E001974817590760F4A281B381A20FAB
:10023000B31FEB0188818C9380818F5F808381E085
:1002400001C080E0DF91CF910895BF92CF92DF92FD
:10025000EF92FF920F931F93CF93DF93CDB7DEB74B
:1002600028970FB6F894DEBF0FBECDBFC82E7B0116
:10027000B22EFB01D080242FAB01682FCE01019656
:1002800031DFCE01019656DF882309F46BC010924E
:1002900008018981893009F062C0EC81FD8100810B
:1002A00010E00B30110508F05DC0025E1F4F0F9388
:1002B0001F9308958A81843008F054C080E0CDD225
:1002C00010920401AAD34EC0CED281114BC08A81B4
:1002D000853009F047C0EC81FD8102811381AAD1EC
:1002E0008017910708F0C9C03DC08A818630D1F5DA
:1002F000028113819FD108171907A1F5B4C08A8123
:10030000853081F50281138195D10817190751F5C0
:10031000B4C08A81863031F5028113818BD10817F0
:10032000190701F5AEC065E071E087E091E076D392
:100330008823C1F0A2C08A818830A1F4038114818E
:1003400079D10817190771F4A7C08A81873051F451
:10035000028113816FD10817190721F4B0C0CE01B3
:1003600001964FD3CA821E821982FC82EB82BD8223
:10037000F9E0CF1251C080910801882309F470C0C0
:1003800084E0D81629F18D1550F08FEF8D0D823055
:1003900008F066C04FD198278927982734C0E6E037
:1003A000DE1681F1DE16E8F0F7E0DF1259C067E0F3
:1003B00071E0CE0101962BDF3DD198878F83BE017E
:1003C000695F7F4FCE01019602DF65E071E020C0DA
:1003D0004AD28F83BE01695F7F4FCE01019617DF3E
:1003E00022C010E0812F61D1082F8F83BE01695F89
:1003F0007F4FCE0101960BDF0023A9F01F5F103263
:1004000089F711C04FD198878F83BE01695F7F4FF5
:10041000CE010196DCDE07C0BE016F5F7F4F8D2DE0
:10042000AFD38823E9F06C2D80E0A3DE00E010E07C
:10043000298130E0021713074CF4EB81FC81E00FB7
:10044000F11F608196DE0F5F1F4FF2CF8F83BE01D9
:10045000695F7F4FCE010196DADE898190E03BC073
:1004600080E090E038C08A81853020F0EC81FD8109
:10047000848101C080E0F1D175CF81E080930801D3
:1004800071CF8A81853020F0EC81FD81848101C0AB
:1004900080E08093040166CF8A81873028F0EC8168
:1004A000FD816581768104C060E070E0833020F0DA
:1004B000EC81FD81828101C080E0C8D253CF8A8166
:1004C000863028F0EC81FD818481958102C080E036
:1004D00090E0DDD047CF28960FB6F894DEBF0FBE70
:1004E000CDBFDF91CF911F910F91FF90EF90DF90E3
:1004F000CF90BF900895CF93DF9300D0CDB7DEB7F4
:1005000089B96295660F607E68B985B1876085B9E3
:100510002F9A2E9A2E99FECF86B18A8387B189832E
:1005200029818A8190E0922B0F900F90DF91CF91DB
:10053000089589B7816089BF83B7836083BF78944A
:100540000895CF92DF92EF92FF922FB7F89482B77F
:10055000C82ED12CE12CF12C08B600FE06C080E894
:10056000C816D104E104F104B0F0409109015091A2
:100570000A0160910B0170910C012FBF962F852FFE
:10058000742F66276C0D7D1D8E1D9F1DFF90EF90B3
:10059000DF90CF9008958FEFD81AE80AF80AE5CFD8
:1005A000D0DF23E0660F771F881F991F2A95D1F7A8
:1005B0000895F6DF28EE33E040E050E075D5CA013B
:1005C000B901089508951F920F920FB60F9211244A
:1005D0002F933F934F935F936F937F938F939F934B
:1005E000AF93BF93EF93FF938091090190910A011C
:1005F000A0910B01B0910C010196A11DB11D80933A
:10060000090190930A01A0930B01B0930C012ED124
:10061000D9DFFF91EF91BF91AF919F918F917F9122
:100620006F915F914F913F912F910F900FBE0F905F
:100630001F9018950F931F938091000190910101D5
:100640000196F1F48CED91E059D5909301018093DE
:1006500000018091000190910101019689F430D050
:100660008C01222733276027712770930101609343
:10067000000160910001709101018CED91E043D582
:1006800080910001909101011F910F910895909325
:1006900001018093000160910001709101018CEDD6
:1006A00091E031C58EED91E029C5803238F490E0BB
:1006B00080529E4F1BD58F3F09F0089580E008952A
:1006C00010920E0110920F01109210011092110160
:1006D00088E080930D018EB581608EBDF89414BEC4
:1006E00081B5806481BD789480910D011816E4F382
:1006F000F89414BE81B58F7B81BD78948EB58E7FC2
:100700008EBD60910E0170910F018091100190914A
:10071000110108951F920F920FB60F9211242F937B
:100720004F935F936F937F938F939F93AF93BF93F9
:1007300080910D01815080930D0140910E015091E7
:100740000F01609110017091110180910E01909143
:100750000F01A0911001B09111018B2F9927AA27A9
:10076000BB27762F652F542F4427842B952BA62B40
:10077000B72B80930E0190930F01A0931001B093BB
:10078000110180910E0190910F01A0911001B09183
:1007900011012CB5822780930E0190930F01A09335
:1007A0001001B0931101BF91AF919F918F917F91F3
:1007B0006F915F914F912F910F900FBE0F901F90EF
:1007C00018959AB321E030E0A9010090020102C01F
:1007D000440F551F0A94E2F7942B9ABB90910201A3
:1007E000882349F08BB3092E01C0220F0A94EAF73F
:1007F000822B8BBB08958BB3092E01C0220F0A9464
:10080000EAF7209528232BBB0895882321F08091B7
:10081000A4008B7F03C08091A40084608093A40017
:100820009091A400662311F082E001C083E0892B3F
:100830008093A40008959CE09093A500662329F07E
:100840009091A50090639093A50098E09093A400E8
:10085000880F81608093A100089580933801880FEC
:100860008093A2000895809138010895CE990AC01E
:10087000809112019091130101969093130180933E
:10088000120104C010921301109212018091120102
:1008900090911301843F914051F48091A500877F8E
:1008A0008093A5008091A50088608093A50008959D
:1008B000CF92DF92FF920F931F93CF93DF931F92FC
:1008C000CDB7DEB71091A30011FB002700F916FF8A
:1008D00037C0812F8170F82E8091A000C82ED12CB6
:1008E000D594C7944091170181E0411102C00111D4
:1008F0008F2561E06F25498388DF8091140149814C
:10090000823061F4442351F020E268E171E080918B
:1009100015019BDC8093170110921601F11003C0A2
:10092000109214010BC0002321F081E08093140188
:1009300005C082E08093140110921701C092150146
:1009400017FF33C0002301F1E091160180911701D8
:10095000E81768F481E08E0F80931601F0E0E85EFE
:10096000FE4F80818093A00060E081E004C010927F
:10097000A00061E080E00F90DF91CF911F910F9177
:10098000FF90DF90CF9041CF1091A00060E081E018
:100990003CDFE0911701E03240F481E08E0F80935C
:1009A0001701F0E0E85EFE4F10830F90DF91CF91CA
:1009B0001F910F91FF90DF90CF9008951F920F929B
:1009C0000FB60F9211242F933F934F935F936F9322
:1009D0007F938F939F93AF93BF93EF93FF9368DFC2
:1009E000FF91EF91BF91AF919F918F917F916F9107
:1009F0005F914F913F912F910F900FBE0F901F90DD
:100A00001895DC011396ED91FC911497808182304A
:100A100010F481E0089580E00895089540913B012D
:100A200050913C012091390130913A01421753070E
:100A300059F0FC01108280913B0190913C01FB0137
:100A40009183808381E0089580E0089581110BC037
:100A500080913B0190913C016817790721F47093D4
:100A60003A01609339010895BC0180E090E0ABD178
:100A70009B01AC0160E070E080E894E40BD120E0E1
:100A800030E040E85FE3A1D031D223E931EA48E920
:100A900059E36CD22FE03FEC4BE55BE397D09B0131
:100AA000AC0160E070E080E89FE3F4D023E333E939
:100AB00048E853E48AD0089560E08BE01CDDD4CF91
:100AC000CF93DF9300D000D0CDB7DEB7F5DF6983D9
:100AD0007A838B839C8369817A818B819C8120E0DE
:100AE00030E040E251E442D23DD170933C0160934A
:100AF0003B011FDD81E04CDBC12CD12C760152DBA8
:100B0000DBDF49805A806B807C802AE037ED43E24E
:100B10005CE32CD24B015C0124EA30E74DE75FE354
:100B2000C301B20123D29B01AC01C501B4014ED077
:100B300069837A838B839C838FEC97E00197F1F72D
:100B400000C0000036DD6C197D098E099F096536ED
:100B500071058105910598F22CDD6B017C01F894FB
:100B600069817A818B819C8120E030E040E251E410
:100B7000FDD1F8D070933C0160933B017894BFCFD6
:100B80000F931F93CF93DF9300D0CDB7DEB78B01C8
:100B9000882331F0813089F460E08BE0ACDC04C064
:100BA00080913B0190913C019A838983BE016F5FE4
:100BB0007F4FC8010CDB81E001C080E00F900F90F7
:100BC000DF91CF911F910F9108955058BB27AA270D
:100BD0000ED04DC13ED130F043D120F031F49F3FD3
:100BE00011F41EF433C10EF4E095E7FB29C1E92F9F
:100BF0004FD180F3BA17620773078407950718F07F
:100C000071F49EF567C10EF4E0950B2EBA2FA02D5E
:100C10000B01B90190010C01CA01A0011124FF27A9
:100C2000591B99F0593F50F4503E68F11A16F040A4
:100C3000A22F232F342F4427585FF3CF46953795A3
:100C40002795A795F0405395C9F77EF41F16BA0B68
:100C5000620B730B840BBAF09150A1F0FF0FBB1F16
:100C6000661F771F881FC2F70EC0BA0F621F731F5F
:100C7000841F48F4879577956795B795F7959E3FBC
:100C800008F0B3CF9395880F08F09927EE0F97954A
:100C9000879508950CD0EBC0E3D040F0DAD030F067
:100CA00021F45F3F19F0CCC0511115C1CFC0F0D075
:100CB00098F39923C9F35523B1F3951B550BBB2723
:100CC000AA2762177307840738F09F5F5F4F220FD0
:100CD000331F441FAA1FA9F333D00E2E3AF0E0E8C9
:100CE00030D091505040E695001CCAF729D0FE2F15
:100CF00027D0660F771F881FBB1F261737074807A7
:100D0000AB07B0E809F0BB0B802DBF01FF2793585C
:100D10005F4F2AF09E3F510568F092C0DCC05F3FF4
:100D2000ECF3983EDCF3869577956795B795F79544
:100D30009F5FC9F7880F911D9695879597F908953C
:100D4000E1E0660F771F881FBB1F621773078407D8
:100D5000BA0720F0621B730B840BBA0BEE1F88F7E7
:100D6000E095089504D06894B111B5C0089598D065
:100D700088F09F5790F0B92F9927B751A0F0D1F084
:100D8000660F771F881F991F1AF0BA95C9F712C00E
:100D9000B13081F09FD0B1E008959CC0672F782FCB
:100DA0008827B85F39F0B93FCCF38695779567957A
:100DB000B395D9F73EF490958095709561957F4FE6
:100DC0008F4F9F4F0895E89409C097FB3EF490958C
:100DD0008095709561957F4F8F4F9F4F9923A9F014
:100DE000F92F96E9BB279395F695879577956795A3
:100DF000B795F111F8CFFAF4BB0F11F460FF1BC0E7
:100E00006F5F7F4F8F4F9F4F16C0882311F096E979
:100E100011C0772321F09EE8872F762F05C0662327
:100E200071F096E8862F70E060E02AF09A95660FE0
:100E3000771F881FDAF7880F9695879597F9089599
:100E400097F99F6780E870E060E008959FEF80EC7D
:100E5000089500240A941616170618060906089520
:100E600000240A9412161306140605060895092E86
:100E70000394000C11F4882352F0BB0F40F4BF2BF5
:100E800011F460FF04C06F5F7F4F8F4F9F4F089535
:100E900057FD9058440F551F59F05F3F71F047952B
:100EA000880F97FB991F61F09F3F79F08795089510
:100EB000121613061406551FF2CF4695F1DF08C02F
:100EC000161617061806991FF1CF8695710561054C
:100ED00008940895E894BB2766277727CB0197F9F4
:100EE00008950EF0AEC0B2CF6894AACFD9DFC8F390
:100EF0009923D1F3C6F3DF93CF931F930F93FF9200
:100F0000C92FDD2788232AF02197660F771F881FB6
:100F1000DAF720E030E040E85FEB9FE3883920F02B
:100F2000803E30F021968F7751DEE2E5F0E003C09D
:100F30004DDEEFE7F0E093D08B01BE01EC01FB2E1C
:100F40006F5771097595771F880B990B3EDF28E164
:100F500032E741E35FE315D0AF2D9801AE01FF907A
:100F60000F911F91CF91DF9142DE81CF0AD07FCFC9
:100F700070DF28F075DF18F0952309F061CF66CF98
:100F8000AACF86DFA8F39923D9F35523C9F3950F88
:100F900050E0551FAA27EE27FF27BB2700240894FF
:100FA000679520F4E20FF31FB41F0A1E220F331FB0
:100FB000441FAA1F6695A9F7779530F4F30FB41F65
:100FC0000A1E121E08F46395330F441FAA1F221F26
:100FD000769599F7879520F4B40F0A1E121E631FA9
:100FE000440FAA1F221F331F8695A9F7862F712D44
:100FF000602D11249F5750408AF0E1F088234AF079
:10100000EE0FFF1FBB1F661F771F881F91505040B8
:10101000A9F79E3F510570F013CF5DCF5F3FECF312
:10102000983EDCF3869577956795B795F795E795A4
:101030009F5FC1F7FE2B880F911D9695879597F9B5
:1010400008959F3F31F0915020F4879577956795EB
:10105000B795880F911D9695879597F90895DF9319
:10106000CF931F930F93FF92EF92DF927B018C013E
:10107000689405C0DA2EEF0184DFFE01E894A591A3
:101080002591359145915591AEF3EF01B0DDFE010B
:101090009701A801DA9479F7DF90EF90FF900F9114
:1010A0001F91CF91DF910895A1E21A2EAA1BBB1BBD
:1010B000FD010DC0AA1FBB1FEE1FFF1FA217B30724
:1010C000E407F50720F0A21BB30BE40BF50B661F3A
:1010D000771F881F991F1A9469F7609570958095FE
:1010E00090959B01AC01BD01CF010895E199FECF20
:1010F0009FBB8EBBE09A99278DB30895A8E1B0E01D
:1011000042E050E005C012D0272F11C0DC01CB0116
:10111000FC01E199FECF06C0FFBBEEBBE09A319621
:101120000DB20D9241505040B8F70895262FE19925
:10113000FECF1CBA9FBB8EBB2DBB0FB6F894E29AB4
:10114000E19A0FBE01960895F894FFCFFFFF0500C6
:10115000FFFFFFFFFFFFFFFFFFFFFFFFFFFFFFFF9F
:10116000FFFFFFFFFFFFFFFFFFFFFFFFFFFFFFFF8F
:10117000FFFFFFFFFFFFFFFFFFFFFFFFFFFFFFFF7F
:10118000FFFFFFFFFFFFFFFFFFFFFFFFFFFFFFFF6F
:1017F000FFFFFFFFFFFFFFFFFFFFFFFFFFFF56C4DD
:10180000540F11241FBECFEFD2E0DEBFCDBF11E0D9
:10181000A0E0B1E0ECE4FFE102C005900D92A2303F
:10182000B107D9F721E0A2E0B1E001C01D92A932D1
:10183000B207E1F718E1C2E0D8E103C02297FE0148
:1018400038D3C030D107D1F702D07EC3D9C31CD35F
:10185000D6DF80E090E00895FC011182108221E043
:1018600022830895FC0162830895FC0180819181A7
:101870000895CF93DF93EC018CED91E02ED38F3F51
:101880002FEF920711F481E090E099838883DF9134
:10189000CF910895FC01718360838CED91E043C387
:1018A000E0E0F0E021E220935700249131E2309310
:1018B0005700349161E2609357006491862F90E065
:1018C000A0E0B0E077276627732B622B0895CA014A
:1018D000422F50E0F2C2CA01422F50E003C3D59A12
:1018E000662311F0DD9A0895DD9808950F931F93F4
:1018F000407F66277727D90110E0421B530BCD01AB
:10190000821B930B8017910734F4FA01EA0FFB1F37
:10191000E491ED93F4CF80E190E01F910F91089551
:10192000CF92DF92EF92FF920F931F93CF936A01B2
:101930007B01AFE0CA22DD24EE24FF24CD28CE288F
:10194000CF2809F058C0DC011296EC91EE2359F033
:10195000411551056105710531F4EFEFD901EC93A3
:10196000EBEC1196EC93FC018281882339F0411550
:10197000F8E15F076105710508F03DC0DB01CA01B0
:101980008F739927AA27BB27892B8A2B8B2B51F47E
:1019900007B600FCFDCFE199FECF83E0FA0180930A
:1019A0005700E89580E090E010E0C1E080179107D3
:1019B000C4F4F901E80FF91FA181B0E0BA2FAA27FA
:1019C000E081AE2B07B600FCFDCFE199FECFFC0114
:1019D000E40FF51F0D01C0935700E89511240296FE
:1019E000E5CF07B600FCFDCFE199FECF85E0FA0117
:1019F00080935700E895CF911F910F91FF90EF9042
:101A0000DF90CF9008950F93CF93DF93CDB7DEB7DC
:101A100060970FB6F894DEBF0FBECDBF407C66273F
:101A20007727FC012281222331F04115F8E15F077D
:101A30006105710518F507B600FCFDCFE199FECFF1
:101A400033E0FA0130935700E8952223A1F0452BAB
:101A5000462B472B81F4FE013196AE014F5E5F4F5E
:101A60009F016FEF6193E417F507E1F700E140E0B4
:101A700050E0BA0155DF07B600FCFDCF60960FB607
:101A8000F894DEBF0FBECDBFDF91CF910F910895C7
:101A9000882321F08091A4008B7F03C08091A40053
:101AA00084608093A4009091A400662311F082E0EA
:101AB00001C083E0892B8093A40008959CE090935B
:101AC000A500882329F08091A50080638093A5005C
:101AD00088E08093A40083E18093A10008950F9390
:101AE0001F93CF93DF931F92CDB7DEB78091A300F2
:101AF00081FB112710F986FF36C0082F0170409135
:101B0000050181E0411102C01111802761E06027C9
:101B10004983BEDF809102014981823061F4442310
:101B200051F020E266E071E080910301ABD0809338
:101B3000050110920401011103C0109202010BC0B3
:101B4000112321F081E08093020105C082E080939F
:101B50000201109205018091A00090E09595879573
:101B60008093030132C087FF30C01123E9F0E09178
:101B7000040180910501E81768F481E08E0F8093DD
:101B80000401F0E0EA5FFE4F80818093A00060E0F6
:101B900081E004C01092A00061E080E00F90DF912E
:101BA000CF911F910F9174CF1091A00060E081E060
:101BB0006FDFE0910501E03240F481E08E0F809309
:101BC0000501F0E0EA5FFE4F10830F90DF91CF91A7
:101BD0001F910F9108951F920F920FB60F9211242B
:101BE0002F933F934F935F936F937F938F939F9325
:101BF000AF93BF93EF93FF9372DFFF91EF91BF918C
:101C0000AF919F918F917F916F915F914F913F9194
:101C10002F910F900FBE0F901F9018950F931F9349
:101C2000FC0123816281862F90E0A0E0B0E077275D
:101C30006627922B018110E0102F00272081022BB4
:101C4000222717FD2095322F602B712B822B932B8F
:101C50001F910F910895CF93DF93FC01C181D0E0D4
:101C6000DC2FCC278081C82B86E291E0FEDD21E0CD
:101C700030E0C817D90711F020E030E0C901DF914A
:101C8000CF9108950F931F93CF93DF93EB01042F10
:101C9000433008F4F2C08881883609F458C068F4EB
:101CA000853611F128F48823E1F08436D1F0E5C0BF
:101CB000863639F18736C1F1E0C08B3609F48EC023
:101CC00038F4893609F464C08A3609F475C0D5C081
:101CD0008D3609F4ACC008F497C08E3609F4BAC04A
:101CE000CCC010920001C9C0453009F0C6C0CB017C
:101CF0000296B1DF892B09F4C0C081E08883198284
:101D0000B1C0453009F0B9C00B8110E0102F002799
:101D10008A81082B86E291E0A8DD0817190708F0F0
:101D2000ACC0898398839EC0473009F0A6C0CB0120
:101D3000029691DF892B09F4A0C06D8170E0762FA7
:101D400066278C81682B86E291E0A4DD96C0453041
:101D500009F093C0CB0102967EDF892B09F48DC078
:101D600086E291E09DDD40E050E08B019C01042E75
:101D700004C036952795179507950A94D2F70993CD
:101D8000485F5F4F4032510581F784E090E077C0B3
:101D90004A3009F072C0CB0102965DDF892B09F44D
:101DA0006CC0CE0104963ADFAB01BC0108859E01F0
:101DB00086E291E09BDD63C0493009F05EC0CB0153
:101DC000029649DF892B09F458C0CE01049626DF1C
:101DD000AB01BC0186E291E016DE4FC0493008F449
:101DE0004CC0CB01029637DF892B09F446C0CE01E7
:101DF000049614DFAB01BC0109509E01285F3F4FE0
:101E000086E291E08DDD39C04A30B9F5CB0102960A
:101E100022DF892B91F1CE01049600DF1885212F56
:101E2000AE0186E291E053DD812F90E028C0493079
:101E300020F1CB0102960FDF892BF9F0CE01049639
:101E4000EDDE27EF200FAE01485F5F4F86E291E0A5
:101E500042DD13C0443089F4CB010196FCDE892BAE
:101E600021F40BC082E090E00AC061E08B81811117
:101E700001C060E086E291E0F5DC80E090E0DF9177
:101E8000CF911F910F91089586E291E0F2DC80E0FE
:101E900015DE61E086E291E022DD80910001882379
:101EA00011F01DDEFACF089586E291E0D5CCEE0F59
:101EB000FF1F0590F491E02D0994DC01CB01FC019A
:101EC000E199FECF06C0FFBBEEBBE09A31960DB2A2
:101ED0000D9241505040B8F70895A8E1B0E042E0BB
:101EE00050E0EDCFDC01A40FB51F4150504040F051
:101EF000CB01840F951F2E9105D041505040D8F74B
:101F00000895262FE199FECF9FBB8EBBE09A0197E3
:101F10000DB2021639F01CBA2DBB0FB6F894E29A36
:101F2000E19A0FBE089502D0272F01C0262FE19914
:101F3000FECF1CBA9FBB8EBB2DBB0FB6F894E29AA6
:101F4000E19A0FBE01960895F894FFCF0100FFFFBC
:101F5000FFFFFFFFFFFFFFFFFFFFFFFFFFFFFFFF91
:101F6000FFFFFFFFFFFFFFFFFFFFFFFFFFFFFFFF81
:101F7000FFFFFFFFFFFFFFFFFFFFFFFFFFFFFFFF71
:101F8000FFFFFFFFFFFFFFFFFFFFFFFFFFFFFFFF61
:101F9000FFFFFFFFFFFFFFFFFFFFFFFFFFFFFFFF51
:101FA000FFFFFFFFFFFFFFFFFFFFFFFFFFFFFFFF41
:101FB000FFFFFFFFFFFFFFFFFFFFFFFFFFFFFFFF31
:101FC000FFFFFFFFFFFFFFFFFFFFFFFFFFFFFFFF21
:101FD000FFFFFFFFFFFFFFFFFFFFFFFFFFFFFFFF11
:101FE000FFFFFFFFFFFFFFFFFFFFFFFFFFFFFFFF01
:101FF000FFFFFFFFFFFFFFFFFFFFFFFFFFFFFFFFF1
:00000001FF
